{
	"contracts/eleccion.sol": {
		"Election": {
			"abi": [
				{
					"inputs": [],
					"stateMutability": "nonpayable",
					"type": "constructor"
				},
				{
					"anonymous": false,
					"inputs": [
						{
							"indexed": false,
							"internalType": "address[]",
							"name": "candidates",
							"type": "address[]"
						},
						{
							"indexed": false,
							"internalType": "uint256[]",
							"name": "votes",
							"type": "uint256[]"
						},
						{
							"indexed": false,
							"internalType": "address",
							"name": "winner",
							"type": "address"
						}
					],
					"name": "closeElection",
					"type": "event"
				},
				{
					"anonymous": false,
					"inputs": [
						{
							"indexed": false,
							"internalType": "address",
							"name": "user",
							"type": "address"
						},
						{
							"indexed": false,
							"internalType": "bytes32",
							"name": "voteHash",
							"type": "bytes32"
						}
					],
					"name": "emitedVote",
					"type": "event"
				},
				{
					"anonymous": false,
					"inputs": [
						{
							"indexed": false,
							"internalType": "bool",
							"name": "electionEnded",
							"type": "bool"
						}
					],
					"name": "openElection",
					"type": "event"
				},
				{
					"anonymous": false,
					"inputs": [
						{
							"indexed": false,
							"internalType": "address",
							"name": "user",
							"type": "address"
						}
					],
					"name": "registeredVoter",
					"type": "event"
				},
				{
					"inputs": [
						{
							"internalType": "address",
							"name": "user",
							"type": "address"
						}
					],
					"name": "UserRegister",
					"outputs": [],
					"stateMutability": "nonpayable",
					"type": "function"
				},
				{
					"inputs": [
						{
							"internalType": "address",
							"name": "user",
							"type": "address"
						}
					],
					"name": "addAuthorized",
					"outputs": [],
					"stateMutability": "nonpayable",
					"type": "function"
				},
				{
					"inputs": [
						{
							"internalType": "address",
							"name": "candidate",
							"type": "address"
						}
					],
					"name": "addCandidate",
					"outputs": [],
					"stateMutability": "nonpayable",
					"type": "function"
				},
				{
					"inputs": [],
					"name": "closeElections",
					"outputs": [],
					"stateMutability": "nonpayable",
					"type": "function"
				},
				{
					"inputs": [],
					"name": "openElections",
					"outputs": [],
					"stateMutability": "nonpayable",
					"type": "function"
				},
				{
					"inputs": [
						{
							"internalType": "address",
							"name": "user",
							"type": "address"
						},
						{
							"internalType": "address",
							"name": "candidate",
							"type": "address"
						}
					],
					"name": "vote",
					"outputs": [],
					"stateMutability": "nonpayable",
					"type": "function"
				}
			],
			"devdoc": {
				"kind": "dev",
				"methods": {},
				"version": 1
			},
			"evm": {
				"assembly": "    /* \"contracts/eleccion.sol\":60:2914  contract Election{... */\n  mstore(0x40, 0x80)\n    /* \"contracts/eleccion.sol\":770:843  constructor(){... */\n  callvalue\n  dup1\n  iszero\n  tag_1\n  jumpi\n  revert(0x00, 0x00)\ntag_1:\n  pop\n    /* \"contracts/eleccion.sol\":805:806  0 */\n  0x00\n    /* \"contracts/eleccion.sol\":794:804  totalVotes */\n  0x08\n    /* \"contracts/eleccion.sol\":794:806  totalVotes=0 */\n  dup2\n  swap1\n  sstore\n  pop\n    /* \"contracts/eleccion.sol\":823:833  msg.sender */\n  caller\n    /* \"contracts/eleccion.sol\":817:822  owner */\n  0x09\n  0x01\n    /* \"contracts/eleccion.sol\":817:833  owner=msg.sender */\n  0x0100\n  exp\n  dup2\n  sload\n  dup2\n  0xffffffffffffffffffffffffffffffffffffffff\n  mul\n  not\n  and\n  swap1\n  dup4\n  0xffffffffffffffffffffffffffffffffffffffff\n  and\n  mul\n  or\n  swap1\n  sstore\n  pop\n    /* \"contracts/eleccion.sol\":60:2914  contract Election{... */\n  dataSize(sub_0)\n  dup1\n  dataOffset(sub_0)\n  0x00\n  codecopy\n  0x00\n  return\nstop\n\nsub_0: assembly {\n        /* \"contracts/eleccion.sol\":60:2914  contract Election{... */\n      mstore(0x40, 0x80)\n      callvalue\n      dup1\n      iszero\n      tag_1\n      jumpi\n      revert(0x00, 0x00)\n    tag_1:\n      pop\n      jumpi(tag_2, lt(calldatasize, 0x04))\n      shr(0xe0, calldataload(0x00))\n      dup1\n      0x0361d74f\n      eq\n      tag_3\n      jumpi\n      dup1\n      0x1afa74e5\n      eq\n      tag_4\n      jumpi\n      dup1\n      0x3acd75f8\n      eq\n      tag_5\n      jumpi\n      dup1\n      0x49900c0f\n      eq\n      tag_6\n      jumpi\n      dup1\n      0xcf1c316a\n      eq\n      tag_7\n      jumpi\n      dup1\n      0xd409b823\n      eq\n      tag_8\n      jumpi\n    tag_2:\n      revert(0x00, 0x00)\n        /* \"contracts/eleccion.sol\":1694:1978  function UserRegister(address user) public  {... */\n    tag_3:\n      tag_9\n      0x04\n      dup1\n      calldatasize\n      sub\n      dup2\n      add\n      swap1\n      tag_10\n      swap2\n      swap1\n      tag_11\n      jump\t// in\n    tag_10:\n      tag_12\n      jump\t// in\n    tag_9:\n      stop\n        /* \"contracts/eleccion.sol\":2258:2727  function vote(address user, address candidate) public {... */\n    tag_4:\n      tag_13\n      0x04\n      dup1\n      calldatasize\n      sub\n      dup2\n      add\n      swap1\n      tag_14\n      swap2\n      swap1\n      tag_15\n      jump\t// in\n    tag_14:\n      tag_16\n      jump\t// in\n    tag_13:\n      stop\n        /* \"contracts/eleccion.sol\":2735:2901  function addCandidate(address candidate) public {... */\n    tag_5:\n      tag_17\n      0x04\n      dup1\n      calldatasize\n      sub\n      dup2\n      add\n      swap1\n      tag_18\n      swap2\n      swap1\n      tag_11\n      jump\t// in\n    tag_18:\n      tag_19\n      jump\t// in\n    tag_17:\n      stop\n        /* \"contracts/eleccion.sol\":1043:1686  function closeElections() public {... */\n    tag_6:\n      tag_20\n      tag_21\n      jump\t// in\n    tag_20:\n      stop\n        /* \"contracts/eleccion.sol\":1992:2250  function addAuthorized(address user) public{... */\n    tag_7:\n      tag_22\n      0x04\n      dup1\n      calldatasize\n      sub\n      dup2\n      add\n      swap1\n      tag_23\n      swap2\n      swap1\n      tag_11\n      jump\t// in\n    tag_23:\n      tag_24\n      jump\t// in\n    tag_22:\n      stop\n        /* \"contracts/eleccion.sol\":851:1035  function openElections() public {... */\n    tag_8:\n      tag_25\n      tag_26\n      jump\t// in\n    tag_25:\n      stop\n        /* \"contracts/eleccion.sol\":1694:1978  function UserRegister(address user) public  {... */\n    tag_12:\n        /* \"contracts/eleccion.sol\":1757:1767  authorized */\n      0x05\n        /* \"contracts/eleccion.sol\":1757:1773  authorized[user] */\n      0x00\n        /* \"contracts/eleccion.sol\":1768:1772  user */\n      dup3\n        /* \"contracts/eleccion.sol\":1757:1773  authorized[user] */\n      0xffffffffffffffffffffffffffffffffffffffff\n      and\n      0xffffffffffffffffffffffffffffffffffffffff\n      and\n      dup2\n      mstore\n      0x20\n      add\n      swap1\n      dup2\n      mstore\n      0x20\n      add\n      0x00\n      keccak256\n      0x00\n      swap1\n      sload\n      swap1\n      0x0100\n      exp\n      swap1\n      div\n      0xff\n      and\n        /* \"contracts/eleccion.sol\":1749:1796  require(authorized[user], \"No esta autorizado\") */\n      tag_28\n      jumpi\n      mload(0x40)\n      0x08c379a000000000000000000000000000000000000000000000000000000000\n      dup2\n      mstore\n      0x04\n      add\n      tag_29\n      swap1\n      tag_30\n      jump\t// in\n    tag_29:\n      mload(0x40)\n      dup1\n      swap2\n      sub\n      swap1\n      revert\n    tag_28:\n        /* \"contracts/eleccion.sol\":1816:1826  registered */\n      0x06\n        /* \"contracts/eleccion.sol\":1816:1832  registered[user] */\n      0x00\n        /* \"contracts/eleccion.sol\":1827:1831  user */\n      dup3\n        /* \"contracts/eleccion.sol\":1816:1832  registered[user] */\n      0xffffffffffffffffffffffffffffffffffffffff\n      and\n      0xffffffffffffffffffffffffffffffffffffffff\n      and\n      dup2\n      mstore\n      0x20\n      add\n      swap1\n      dup2\n      mstore\n      0x20\n      add\n      0x00\n      keccak256\n      0x00\n      swap1\n      sload\n      swap1\n      0x0100\n      exp\n      swap1\n      div\n      0xff\n      and\n        /* \"contracts/eleccion.sol\":1815:1832  !registered[user] */\n      iszero\n        /* \"contracts/eleccion.sol\":1807:1863  require(!registered[user], \"Usuario ya esta registrado\") */\n      tag_31\n      jumpi\n      mload(0x40)\n      0x08c379a000000000000000000000000000000000000000000000000000000000\n      dup2\n      mstore\n      0x04\n      add\n      tag_32\n      swap1\n      tag_33\n      jump\t// in\n    tag_32:\n      mload(0x40)\n      dup1\n      swap2\n      sub\n      swap1\n      revert\n    tag_31:\n        /* \"contracts/eleccion.sol\":1891:1895  true */\n      0x01\n        /* \"contracts/eleccion.sol\":1874:1884  registered */\n      0x06\n        /* \"contracts/eleccion.sol\":1874:1890  registered[user] */\n      0x00\n        /* \"contracts/eleccion.sol\":1885:1889  user */\n      dup4\n        /* \"contracts/eleccion.sol\":1874:1890  registered[user] */\n      0xffffffffffffffffffffffffffffffffffffffff\n      and\n      0xffffffffffffffffffffffffffffffffffffffff\n      and\n      dup2\n      mstore\n      0x20\n      add\n      swap1\n      dup2\n      mstore\n      0x20\n      add\n      0x00\n      keccak256\n      0x00\n        /* \"contracts/eleccion.sol\":1874:1895  registered[user]=true */\n      0x0100\n      exp\n      dup2\n      sload\n      dup2\n      0xff\n      mul\n      not\n      and\n      swap1\n      dup4\n      iszero\n      iszero\n      mul\n      or\n      swap1\n      sstore\n      pop\n        /* \"contracts/eleccion.sol\":1906:1922  registeredVoters */\n      0x02\n        /* \"contracts/eleccion.sol\":1928:1932  user */\n      dup2\n        /* \"contracts/eleccion.sol\":1906:1933  registeredVoters.push(user) */\n      swap1\n      dup1\n      0x01\n      dup2\n      sload\n      add\n      dup1\n      dup3\n      sstore\n      dup1\n      swap2\n      pop\n      pop\n      0x01\n      swap1\n      sub\n      swap1\n      0x00\n      mstore\n      keccak256(0x00, 0x20)\n      add\n      0x00\n      swap1\n      swap2\n      swap1\n      swap2\n      swap1\n      swap2\n      0x0100\n      exp\n      dup2\n      sload\n      dup2\n      0xffffffffffffffffffffffffffffffffffffffff\n      mul\n      not\n      and\n      swap1\n      dup4\n      0xffffffffffffffffffffffffffffffffffffffff\n      and\n      mul\n      or\n      swap1\n      sstore\n      pop\n        /* \"contracts/eleccion.sol\":1949:1970  registeredVoter(user) */\n      0x0cc981479567a200e9e9a4bcf6cbac3c8a19a146e0ca15a8c842da3924f011f4\n        /* \"contracts/eleccion.sol\":1965:1969  user */\n      dup2\n        /* \"contracts/eleccion.sol\":1949:1970  registeredVoter(user) */\n      mload(0x40)\n      tag_35\n      swap2\n      swap1\n      tag_36\n      jump\t// in\n    tag_35:\n      mload(0x40)\n      dup1\n      swap2\n      sub\n      swap1\n      log1\n        /* \"contracts/eleccion.sol\":1694:1978  function UserRegister(address user) public  {... */\n      pop\n      jump\t// out\n        /* \"contracts/eleccion.sol\":2258:2727  function vote(address user, address candidate) public {... */\n    tag_16:\n        /* \"contracts/eleccion.sol\":2347:2352  false */\n      0x00\n        /* \"contracts/eleccion.sol\":2332:2352  electionEnded==false */\n      iszero\n      iszero\n        /* \"contracts/eleccion.sol\":2332:2345  electionEnded */\n      0x09\n      0x00\n      swap1\n      sload\n      swap1\n      0x0100\n      exp\n      swap1\n      div\n      0xff\n      and\n        /* \"contracts/eleccion.sol\":2332:2352  electionEnded==false */\n      iszero\n      iszero\n      eq\n        /* \"contracts/eleccion.sol\":2324:2377  require(electionEnded==false, \"Eleccion ya finalizo\") */\n      tag_38\n      jumpi\n      mload(0x40)\n      0x08c379a000000000000000000000000000000000000000000000000000000000\n      dup2\n      mstore\n      0x04\n      add\n      tag_39\n      swap1\n      tag_40\n      jump\t// in\n    tag_39:\n      mload(0x40)\n      dup1\n      swap2\n      sub\n      swap1\n      revert\n    tag_38:\n        /* \"contracts/eleccion.sol\":2397:2407  registered */\n      0x06\n        /* \"contracts/eleccion.sol\":2397:2413  registered[user] */\n      0x00\n        /* \"contracts/eleccion.sol\":2408:2412  user */\n      dup4\n        /* \"contracts/eleccion.sol\":2397:2413  registered[user] */\n      0xffffffffffffffffffffffffffffffffffffffff\n      and\n      0xffffffffffffffffffffffffffffffffffffffff\n      and\n      dup2\n      mstore\n      0x20\n      add\n      swap1\n      dup2\n      mstore\n      0x20\n      add\n      0x00\n      keccak256\n      0x00\n      swap1\n      sload\n      swap1\n      0x0100\n      exp\n      swap1\n      div\n      0xff\n      and\n        /* \"contracts/eleccion.sol\":2389:2444  require(registered[user], \"Usuario ya esta registrado\") */\n      tag_41\n      jumpi\n      mload(0x40)\n      0x08c379a000000000000000000000000000000000000000000000000000000000\n      dup2\n      mstore\n      0x04\n      add\n      tag_42\n      swap1\n      tag_33\n      jump\t// in\n    tag_42:\n      mload(0x40)\n      dup1\n      swap2\n      sub\n      swap1\n      revert\n    tag_41:\n        /* \"contracts/eleccion.sol\":2464:2475  _candidates */\n      0x07\n        /* \"contracts/eleccion.sol\":2464:2486  _candidates[candidate] */\n      0x00\n        /* \"contracts/eleccion.sol\":2476:2485  candidate */\n      dup3\n        /* \"contracts/eleccion.sol\":2464:2486  _candidates[candidate] */\n      0xffffffffffffffffffffffffffffffffffffffff\n      and\n      0xffffffffffffffffffffffffffffffffffffffff\n      and\n      dup2\n      mstore\n      0x20\n      add\n      swap1\n      dup2\n      mstore\n      0x20\n      add\n      0x00\n      keccak256\n      0x00\n      swap1\n      sload\n      swap1\n      0x0100\n      exp\n      swap1\n      div\n      0xff\n      and\n        /* \"contracts/eleccion.sol\":2456:2510  require(_candidates[candidate], \"Candidato no valido\") */\n      tag_43\n      jumpi\n      mload(0x40)\n      0x08c379a000000000000000000000000000000000000000000000000000000000\n      dup2\n      mstore\n      0x04\n      add\n      tag_44\n      swap1\n      tag_45\n      jump\t// in\n    tag_44:\n      mload(0x40)\n      dup1\n      swap2\n      sub\n      swap1\n      revert\n    tag_43:\n        /* \"contracts/eleccion.sol\":2522:2532  totalVotes */\n      0x08\n      0x00\n        /* \"contracts/eleccion.sol\":2522:2534  totalVotes++ */\n      dup2\n      sload\n      dup1\n      swap3\n      swap2\n      swap1\n      tag_46\n      swap1\n      tag_47\n      jump\t// in\n    tag_46:\n      swap2\n      swap1\n      pop\n      sstore\n      pop\n        /* \"contracts/eleccion.sol\":2546:2556  voteEmited */\n      0x03\n        /* \"contracts/eleccion.sol\":2546:2567  voteEmited[candidate] */\n      0x00\n        /* \"contracts/eleccion.sol\":2557:2566  candidate */\n      dup3\n        /* \"contracts/eleccion.sol\":2546:2567  voteEmited[candidate] */\n      0xffffffffffffffffffffffffffffffffffffffff\n      and\n      0xffffffffffffffffffffffffffffffffffffffff\n      and\n      dup2\n      mstore\n      0x20\n      add\n      swap1\n      dup2\n      mstore\n      0x20\n      add\n      0x00\n      keccak256\n      0x00\n        /* \"contracts/eleccion.sol\":2546:2569  voteEmited[candidate]++ */\n      dup2\n      sload\n      dup1\n      swap3\n      swap2\n      swap1\n      tag_48\n      swap1\n      tag_47\n      jump\t// in\n    tag_48:\n      swap2\n      swap1\n      pop\n      sstore\n      pop\n        /* \"contracts/eleccion.sol\":2593:2597  true */\n      0x01\n        /* \"contracts/eleccion.sol\":2581:2586  voted */\n      0x04\n        /* \"contracts/eleccion.sol\":2581:2592  voted[user] */\n      0x00\n        /* \"contracts/eleccion.sol\":2587:2591  user */\n      dup5\n        /* \"contracts/eleccion.sol\":2581:2592  voted[user] */\n      0xffffffffffffffffffffffffffffffffffffffff\n      and\n      0xffffffffffffffffffffffffffffffffffffffff\n      and\n      dup2\n      mstore\n      0x20\n      add\n      swap1\n      dup2\n      mstore\n      0x20\n      add\n      0x00\n      keccak256\n      0x00\n        /* \"contracts/eleccion.sol\":2581:2597  voted[user]=true */\n      0x0100\n      exp\n      dup2\n      sload\n      dup2\n      0xff\n      mul\n      not\n      and\n      swap1\n      dup4\n      iszero\n      iszero\n      mul\n      or\n      swap1\n      sstore\n      pop\n        /* \"contracts/eleccion.sol\":2609:2625  bytes32 voteHash */\n      0x00\n        /* \"contracts/eleccion.sol\":2653:2663  msg.sender */\n      caller\n        /* \"contracts/eleccion.sol\":2665:2674  candidate */\n      dup3\n        /* \"contracts/eleccion.sol\":2636:2675  abi.encodePacked(msg.sender, candidate) */\n      add(0x20, mload(0x40))\n      tag_49\n      swap3\n      swap2\n      swap1\n      tag_50\n      jump\t// in\n    tag_49:\n      mload(0x40)\n      0x20\n      dup2\n      dup4\n      sub\n      sub\n      dup2\n      mstore\n      swap1\n      0x40\n      mstore\n        /* \"contracts/eleccion.sol\":2626:2676  keccak256(abi.encodePacked(msg.sender, candidate)) */\n      dup1\n      mload\n      swap1\n      0x20\n      add\n      keccak256\n        /* \"contracts/eleccion.sol\":2609:2676  bytes32 voteHash=keccak256(abi.encodePacked(msg.sender, candidate)) */\n      swap1\n      pop\n        /* \"contracts/eleccion.sol\":2693:2719  emitedVote(user, voteHash) */\n      0xf6684373e278c7bb736ada72935212b27cbe57520c7f54b688a2e9fe725f877c\n        /* \"contracts/eleccion.sol\":2704:2708  user */\n      dup4\n        /* \"contracts/eleccion.sol\":2710:2718  voteHash */\n      dup3\n        /* \"contracts/eleccion.sol\":2693:2719  emitedVote(user, voteHash) */\n      mload(0x40)\n      tag_51\n      swap3\n      swap2\n      swap1\n      tag_52\n      jump\t// in\n    tag_51:\n      mload(0x40)\n      dup1\n      swap2\n      sub\n      swap1\n      log1\n        /* \"contracts/eleccion.sol\":2312:2727  {... */\n      pop\n        /* \"contracts/eleccion.sol\":2258:2727  function vote(address user, address candidate) public {... */\n      pop\n      pop\n      jump\t// out\n        /* \"contracts/eleccion.sol\":2735:2901  function addCandidate(address candidate) public {... */\n    tag_19:\n        /* \"contracts/eleccion.sol\":2794:2804  candidates */\n      0x00\n        /* \"contracts/eleccion.sol\":2810:2819  candidate */\n      dup2\n        /* \"contracts/eleccion.sol\":2794:2820  candidates.push(candidate) */\n      swap1\n      dup1\n      0x01\n      dup2\n      sload\n      add\n      dup1\n      dup3\n      sstore\n      dup1\n      swap2\n      pop\n      pop\n      0x01\n      swap1\n      sub\n      swap1\n      0x00\n      mstore\n      keccak256(0x00, 0x20)\n      add\n      0x00\n      swap1\n      swap2\n      swap1\n      swap2\n      swap1\n      swap2\n      0x0100\n      exp\n      dup2\n      sload\n      dup2\n      0xffffffffffffffffffffffffffffffffffffffff\n      mul\n      not\n      and\n      swap1\n      dup4\n      0xffffffffffffffffffffffffffffffffffffffff\n      and\n      mul\n      or\n      swap1\n      sstore\n      pop\n        /* \"contracts/eleccion.sol\":2854:2855  0 */\n      0x00\n        /* \"contracts/eleccion.sol\":2831:2841  voteEmited */\n      0x03\n        /* \"contracts/eleccion.sol\":2831:2852  voteEmited[candidate] */\n      0x00\n        /* \"contracts/eleccion.sol\":2842:2851  candidate */\n      dup4\n        /* \"contracts/eleccion.sol\":2831:2852  voteEmited[candidate] */\n      0xffffffffffffffffffffffffffffffffffffffff\n      and\n      0xffffffffffffffffffffffffffffffffffffffff\n      and\n      dup2\n      mstore\n      0x20\n      add\n      swap1\n      dup2\n      mstore\n      0x20\n      add\n      0x00\n      keccak256\n        /* \"contracts/eleccion.sol\":2831:2855  voteEmited[candidate]= 0 */\n      dup2\n      swap1\n      sstore\n      pop\n        /* \"contracts/eleccion.sol\":2889:2893  true */\n      0x01\n        /* \"contracts/eleccion.sol\":2866:2877  _candidates */\n      0x07\n        /* \"contracts/eleccion.sol\":2866:2888  _candidates[candidate] */\n      0x00\n        /* \"contracts/eleccion.sol\":2878:2887  candidate */\n      dup4\n        /* \"contracts/eleccion.sol\":2866:2888  _candidates[candidate] */\n      0xffffffffffffffffffffffffffffffffffffffff\n      and\n      0xffffffffffffffffffffffffffffffffffffffff\n      and\n      dup2\n      mstore\n      0x20\n      add\n      swap1\n      dup2\n      mstore\n      0x20\n      add\n      0x00\n      keccak256\n      0x00\n        /* \"contracts/eleccion.sol\":2866:2893  _candidates[candidate]=true */\n      0x0100\n      exp\n      dup2\n      sload\n      dup2\n      0xff\n      mul\n      not\n      and\n      swap1\n      dup4\n      iszero\n      iszero\n      mul\n      or\n      swap1\n      sstore\n      pop\n        /* \"contracts/eleccion.sol\":2735:2901  function addCandidate(address candidate) public {... */\n      pop\n      jump\t// out\n        /* \"contracts/eleccion.sol\":1043:1686  function closeElections() public {... */\n    tag_21:\n        /* \"contracts/eleccion.sol\":1110:1114  true */\n      0x01\n        /* \"contracts/eleccion.sol\":1095:1114  electionEnded==true */\n      iszero\n      iszero\n        /* \"contracts/eleccion.sol\":1095:1108  electionEnded */\n      0x09\n      0x00\n      swap1\n      sload\n      swap1\n      0x0100\n      exp\n      swap1\n      div\n      0xff\n      and\n        /* \"contracts/eleccion.sol\":1095:1114  electionEnded==true */\n      iszero\n      iszero\n      eq\n        /* \"contracts/eleccion.sol\":1087:1146  require(electionEnded==true, \"La eleccion ya esta cerrada\") */\n      tag_56\n      jumpi\n      mload(0x40)\n      0x08c379a000000000000000000000000000000000000000000000000000000000\n      dup2\n      mstore\n      0x04\n      add\n      tag_57\n      swap1\n      tag_58\n      jump\t// in\n    tag_57:\n      mload(0x40)\n      dup1\n      swap2\n      sub\n      swap1\n      revert\n    tag_56:\n        /* \"contracts/eleccion.sol\":1171:1175  true */\n      0x01\n        /* \"contracts/eleccion.sol\":1157:1170  electionEnded */\n      0x09\n      0x00\n        /* \"contracts/eleccion.sol\":1157:1175  electionEnded=true */\n      0x0100\n      exp\n      dup2\n      sload\n      dup2\n      0xff\n      mul\n      not\n      and\n      swap1\n      dup4\n      iszero\n      iszero\n      mul\n      or\n      swap1\n      sstore\n      pop\n        /* \"contracts/eleccion.sol\":1188:1222  uint256[] memory votesperCandidate */\n      0x00\n        /* \"contracts/eleccion.sol\":1239:1249  candidates */\n      0x00\n        /* \"contracts/eleccion.sol\":1239:1256  candidates.length */\n      dup1\n      sload\n      swap1\n      pop\n        /* \"contracts/eleccion.sol\":1225:1257  new uint256[](candidates.length) */\n      0xffffffffffffffff\n      dup2\n      gt\n      iszero\n      tag_59\n      jumpi\n      tag_60\n      tag_61\n      jump\t// in\n    tag_60:\n    tag_59:\n      mload(0x40)\n      swap1\n      dup1\n      dup3\n      mstore\n      dup1\n      0x20\n      mul\n      0x20\n      add\n      dup3\n      add\n      0x40\n      mstore\n      dup1\n      iszero\n      tag_62\n      jumpi\n      dup2\n      0x20\n      add\n      0x20\n      dup3\n      mul\n      dup1\n      calldatasize\n      dup4\n      calldatacopy\n      dup1\n      dup3\n      add\n      swap2\n      pop\n      pop\n      swap1\n      pop\n    tag_62:\n      pop\n        /* \"contracts/eleccion.sol\":1188:1257  uint256[] memory votesperCandidate = new uint256[](candidates.length) */\n      swap1\n      pop\n        /* \"contracts/eleccion.sol\":1268:1282  address winner */\n      0x00\n        /* \"contracts/eleccion.sol\":1293:1309  uint256 maxVotes */\n      0x00\n        /* \"contracts/eleccion.sol\":1310:1311  0 */\n      0x00\n        /* \"contracts/eleccion.sol\":1293:1311  uint256 maxVotes=0 */\n      swap1\n      pop\n        /* \"contracts/eleccion.sol\":1329:1338  uint256 i */\n      0x00\n        /* \"contracts/eleccion.sol\":1341:1342  0 */\n      0x00\n        /* \"contracts/eleccion.sol\":1329:1342  uint256 i = 0 */\n      swap1\n      pop\n        /* \"contracts/eleccion.sol\":1324:1609  for (uint256 i = 0 ; i<candidates.length; i++)  {... */\n    tag_63:\n        /* \"contracts/eleccion.sol\":1347:1357  candidates */\n      0x00\n        /* \"contracts/eleccion.sol\":1347:1364  candidates.length */\n      dup1\n      sload\n      swap1\n      pop\n        /* \"contracts/eleccion.sol\":1345:1346  i */\n      dup2\n        /* \"contracts/eleccion.sol\":1345:1364  i<candidates.length */\n      lt\n        /* \"contracts/eleccion.sol\":1324:1609  for (uint256 i = 0 ; i<candidates.length; i++)  {... */\n      iszero\n      tag_64\n      jumpi\n        /* \"contracts/eleccion.sol\":1408:1418  voteEmited */\n      0x03\n        /* \"contracts/eleccion.sol\":1408:1433  voteEmited[candidates[i]] */\n      0x00\n        /* \"contracts/eleccion.sol\":1419:1429  candidates */\n      0x00\n        /* \"contracts/eleccion.sol\":1430:1431  i */\n      dup4\n        /* \"contracts/eleccion.sol\":1419:1432  candidates[i] */\n      dup2\n      sload\n      dup2\n      lt\n      tag_66\n      jumpi\n      tag_67\n      tag_68\n      jump\t// in\n    tag_67:\n    tag_66:\n      swap1\n      0x00\n      mstore\n      keccak256(0x00, 0x20)\n      add\n      0x00\n      swap1\n      sload\n      swap1\n      0x0100\n      exp\n      swap1\n      div\n      0xffffffffffffffffffffffffffffffffffffffff\n      and\n        /* \"contracts/eleccion.sol\":1408:1433  voteEmited[candidates[i]] */\n      0xffffffffffffffffffffffffffffffffffffffff\n      and\n      0xffffffffffffffffffffffffffffffffffffffff\n      and\n      dup2\n      mstore\n      0x20\n      add\n      swap1\n      dup2\n      mstore\n      0x20\n      add\n      0x00\n      keccak256\n      sload\n        /* \"contracts/eleccion.sol\":1387:1404  votesperCandidate */\n      dup5\n        /* \"contracts/eleccion.sol\":1405:1406  i */\n      dup3\n        /* \"contracts/eleccion.sol\":1387:1407  votesperCandidate[i] */\n      dup2\n      mload\n      dup2\n      lt\n      tag_70\n      jumpi\n      tag_71\n      tag_68\n      jump\t// in\n    tag_71:\n    tag_70:\n      0x20\n      mul\n      0x20\n      add\n      add\n        /* \"contracts/eleccion.sol\":1387:1433  votesperCandidate[i]=voteEmited[candidates[i]] */\n      dup2\n      dup2\n      mstore\n      pop\n      pop\n        /* \"contracts/eleccion.sol\":1480:1488  maxVotes */\n      dup2\n        /* \"contracts/eleccion.sol\":1452:1462  voteEmited */\n      0x03\n        /* \"contracts/eleccion.sol\":1452:1477  voteEmited[candidates[i]] */\n      0x00\n        /* \"contracts/eleccion.sol\":1463:1473  candidates */\n      0x00\n        /* \"contracts/eleccion.sol\":1474:1475  i */\n      dup5\n        /* \"contracts/eleccion.sol\":1463:1476  candidates[i] */\n      dup2\n      sload\n      dup2\n      lt\n      tag_72\n      jumpi\n      tag_73\n      tag_68\n      jump\t// in\n    tag_73:\n    tag_72:\n      swap1\n      0x00\n      mstore\n      keccak256(0x00, 0x20)\n      add\n      0x00\n      swap1\n      sload\n      swap1\n      0x0100\n      exp\n      swap1\n      div\n      0xffffffffffffffffffffffffffffffffffffffff\n      and\n        /* \"contracts/eleccion.sol\":1452:1477  voteEmited[candidates[i]] */\n      0xffffffffffffffffffffffffffffffffffffffff\n      and\n      0xffffffffffffffffffffffffffffffffffffffff\n      and\n      dup2\n      mstore\n      0x20\n      add\n      swap1\n      dup2\n      mstore\n      0x20\n      add\n      0x00\n      keccak256\n      sload\n        /* \"contracts/eleccion.sol\":1452:1488  voteEmited[candidates[i]] > maxVotes */\n      gt\n        /* \"contracts/eleccion.sol\":1448:1598  if (voteEmited[candidates[i]] > maxVotes) {... */\n      iszero\n      tag_75\n      jumpi\n        /* \"contracts/eleccion.sol\":1518:1528  voteEmited */\n      0x03\n        /* \"contracts/eleccion.sol\":1518:1543  voteEmited[candidates[i]] */\n      0x00\n        /* \"contracts/eleccion.sol\":1529:1539  candidates */\n      0x00\n        /* \"contracts/eleccion.sol\":1540:1541  i */\n      dup4\n        /* \"contracts/eleccion.sol\":1529:1542  candidates[i] */\n      dup2\n      sload\n      dup2\n      lt\n      tag_76\n      jumpi\n      tag_77\n      tag_68\n      jump\t// in\n    tag_77:\n    tag_76:\n      swap1\n      0x00\n      mstore\n      keccak256(0x00, 0x20)\n      add\n      0x00\n      swap1\n      sload\n      swap1\n      0x0100\n      exp\n      swap1\n      div\n      0xffffffffffffffffffffffffffffffffffffffff\n      and\n        /* \"contracts/eleccion.sol\":1518:1543  voteEmited[candidates[i]] */\n      0xffffffffffffffffffffffffffffffffffffffff\n      and\n      0xffffffffffffffffffffffffffffffffffffffff\n      and\n      dup2\n      mstore\n      0x20\n      add\n      swap1\n      dup2\n      mstore\n      0x20\n      add\n      0x00\n      keccak256\n      sload\n        /* \"contracts/eleccion.sol\":1509:1543  maxVotes=voteEmited[candidates[i]] */\n      swap2\n      pop\n        /* \"contracts/eleccion.sol\":1569:1579  candidates */\n      0x00\n        /* \"contracts/eleccion.sol\":1580:1581  i */\n      dup2\n        /* \"contracts/eleccion.sol\":1569:1582  candidates[i] */\n      dup2\n      sload\n      dup2\n      lt\n      tag_79\n      jumpi\n      tag_80\n      tag_68\n      jump\t// in\n    tag_80:\n    tag_79:\n      swap1\n      0x00\n      mstore\n      keccak256(0x00, 0x20)\n      add\n      0x00\n      swap1\n      sload\n      swap1\n      0x0100\n      exp\n      swap1\n      div\n      0xffffffffffffffffffffffffffffffffffffffff\n      and\n        /* \"contracts/eleccion.sol\":1562:1582  winner=candidates[i] */\n      swap3\n      pop\n        /* \"contracts/eleccion.sol\":1448:1598  if (voteEmited[candidates[i]] > maxVotes) {... */\n    tag_75:\n        /* \"contracts/eleccion.sol\":1366:1369  i++ */\n      dup1\n      dup1\n      0x01\n      add\n      swap2\n      pop\n      pop\n        /* \"contracts/eleccion.sol\":1324:1609  for (uint256 i = 0 ; i<candidates.length; i++)  {... */\n      jump(tag_63)\n    tag_64:\n      pop\n        /* \"contracts/eleccion.sol\":1624:1676  closeElection(candidates, votesperCandidate, winner) */\n      0x7bc88c418adeed68a67af6593e30b44583abd7d4ac5f93bd98fbcf5a0c37c99d\n        /* \"contracts/eleccion.sol\":1638:1648  candidates */\n      0x00\n        /* \"contracts/eleccion.sol\":1650:1667  votesperCandidate */\n      dup5\n        /* \"contracts/eleccion.sol\":1669:1675  winner */\n      dup5\n        /* \"contracts/eleccion.sol\":1624:1676  closeElection(candidates, votesperCandidate, winner) */\n      mload(0x40)\n      tag_82\n      swap4\n      swap3\n      swap2\n      swap1\n      tag_83\n      jump\t// in\n    tag_82:\n      mload(0x40)\n      dup1\n      swap2\n      sub\n      swap1\n      log1\n        /* \"contracts/eleccion.sol\":1076:1686  {... */\n      pop\n      pop\n      pop\n        /* \"contracts/eleccion.sol\":1043:1686  function closeElections() public {... */\n      jump\t// out\n        /* \"contracts/eleccion.sol\":1992:2250  function addAuthorized(address user) public{... */\n    tag_24:\n        /* \"contracts/eleccion.sol\":2068:2073  owner */\n      0x09\n      0x01\n      swap1\n      sload\n      swap1\n      0x0100\n      exp\n      swap1\n      div\n      0xffffffffffffffffffffffffffffffffffffffff\n      and\n        /* \"contracts/eleccion.sol\":2054:2073  msg.sender == owner */\n      0xffffffffffffffffffffffffffffffffffffffff\n      and\n        /* \"contracts/eleccion.sol\":2054:2064  msg.sender */\n      caller\n        /* \"contracts/eleccion.sol\":2054:2073  msg.sender == owner */\n      0xffffffffffffffffffffffffffffffffffffffff\n      and\n      eq\n        /* \"contracts/eleccion.sol\":2046:2105  require(msg.sender == owner, \"Solo el dueno puede agregar\") */\n      tag_85\n      jumpi\n      mload(0x40)\n      0x08c379a000000000000000000000000000000000000000000000000000000000\n      dup2\n      mstore\n      0x04\n      add\n      tag_86\n      swap1\n      tag_87\n      jump\t// in\n    tag_86:\n      mload(0x40)\n      dup1\n      swap2\n      sub\n      swap1\n      revert\n    tag_85:\n        /* \"contracts/eleccion.sol\":2125:2135  authorized */\n      0x05\n        /* \"contracts/eleccion.sol\":2125:2141  authorized[user] */\n      0x00\n        /* \"contracts/eleccion.sol\":2136:2140  user */\n      dup3\n        /* \"contracts/eleccion.sol\":2125:2141  authorized[user] */\n      0xffffffffffffffffffffffffffffffffffffffff\n      and\n      0xffffffffffffffffffffffffffffffffffffffff\n      and\n      dup2\n      mstore\n      0x20\n      add\n      swap1\n      dup2\n      mstore\n      0x20\n      add\n      0x00\n      keccak256\n      0x00\n      swap1\n      sload\n      swap1\n      0x0100\n      exp\n      swap1\n      div\n      0xff\n      and\n        /* \"contracts/eleccion.sol\":2124:2141  !authorized[user] */\n      iszero\n        /* \"contracts/eleccion.sol\":2116:2172  require(!authorized[user], \"Usuario ya esta registrado\") */\n      tag_88\n      jumpi\n      mload(0x40)\n      0x08c379a000000000000000000000000000000000000000000000000000000000\n      dup2\n      mstore\n      0x04\n      add\n      tag_89\n      swap1\n      tag_33\n      jump\t// in\n    tag_89:\n      mload(0x40)\n      dup1\n      swap2\n      sub\n      swap1\n      revert\n    tag_88:\n        /* \"contracts/eleccion.sol\":2200:2204  true */\n      0x01\n        /* \"contracts/eleccion.sol\":2183:2193  authorized */\n      0x05\n        /* \"contracts/eleccion.sol\":2183:2199  authorized[user] */\n      0x00\n        /* \"contracts/eleccion.sol\":2194:2198  user */\n      dup4\n        /* \"contracts/eleccion.sol\":2183:2199  authorized[user] */\n      0xffffffffffffffffffffffffffffffffffffffff\n      and\n      0xffffffffffffffffffffffffffffffffffffffff\n      and\n      dup2\n      mstore\n      0x20\n      add\n      swap1\n      dup2\n      mstore\n      0x20\n      add\n      0x00\n      keccak256\n      0x00\n        /* \"contracts/eleccion.sol\":2183:2204  authorized[user]=true */\n      0x0100\n      exp\n      dup2\n      sload\n      dup2\n      0xff\n      mul\n      not\n      and\n      swap1\n      dup4\n      iszero\n      iszero\n      mul\n      or\n      swap1\n      sstore\n      pop\n        /* \"contracts/eleccion.sol\":2215:2231  authorizedVoters */\n      0x01\n        /* \"contracts/eleccion.sol\":2237:2241  user */\n      dup2\n        /* \"contracts/eleccion.sol\":2215:2242  authorizedVoters.push(user) */\n      swap1\n      dup1\n      0x01\n      dup2\n      sload\n      add\n      dup1\n      dup3\n      sstore\n      dup1\n      swap2\n      pop\n      pop\n      0x01\n      swap1\n      sub\n      swap1\n      0x00\n      mstore\n      keccak256(0x00, 0x20)\n      add\n      0x00\n      swap1\n      swap2\n      swap1\n      swap2\n      swap1\n      swap2\n      0x0100\n      exp\n      dup2\n      sload\n      dup2\n      0xffffffffffffffffffffffffffffffffffffffff\n      mul\n      not\n      and\n      swap1\n      dup4\n      0xffffffffffffffffffffffffffffffffffffffff\n      and\n      mul\n      or\n      swap1\n      sstore\n      pop\n        /* \"contracts/eleccion.sol\":1992:2250  function addAuthorized(address user) public{... */\n      pop\n      jump\t// out\n        /* \"contracts/eleccion.sol\":851:1035  function openElections() public {... */\n    tag_26:\n        /* \"contracts/eleccion.sol\":917:922  false */\n      0x00\n        /* \"contracts/eleccion.sol\":902:922  electionEnded==false */\n      iszero\n      iszero\n        /* \"contracts/eleccion.sol\":902:915  electionEnded */\n      0x09\n      0x00\n      swap1\n      sload\n      swap1\n      0x0100\n      exp\n      swap1\n      div\n      0xff\n      and\n        /* \"contracts/eleccion.sol\":902:922  electionEnded==false */\n      iszero\n      iszero\n      eq\n        /* \"contracts/eleccion.sol\":894:954  require(electionEnded==false, \"La eleccion ya esta abierta\") */\n      tag_92\n      jumpi\n      mload(0x40)\n      0x08c379a000000000000000000000000000000000000000000000000000000000\n      dup2\n      mstore\n      0x04\n      add\n      tag_93\n      swap1\n      tag_94\n      jump\t// in\n    tag_93:\n      mload(0x40)\n      dup1\n      swap2\n      sub\n      swap1\n      revert\n    tag_92:\n        /* \"contracts/eleccion.sol\":979:984  false */\n      0x00\n        /* \"contracts/eleccion.sol\":965:978  electionEnded */\n      0x09\n      0x00\n        /* \"contracts/eleccion.sol\":965:984  electionEnded=false */\n      0x0100\n      exp\n      dup2\n      sload\n      dup2\n      0xff\n      mul\n      not\n      and\n      swap1\n      dup4\n      iszero\n      iszero\n      mul\n      or\n      swap1\n      sstore\n      pop\n        /* \"contracts/eleccion.sol\":1000:1027  openElection(electionEnded) */\n      0x2e56e5fbc5e99f3162ee2f3688bf28b937b43e7ad57f557daaac0688bc6c7d28\n        /* \"contracts/eleccion.sol\":1013:1026  electionEnded */\n      0x09\n      0x00\n      swap1\n      sload\n      swap1\n      0x0100\n      exp\n      swap1\n      div\n      0xff\n      and\n        /* \"contracts/eleccion.sol\":1000:1027  openElection(electionEnded) */\n      mload(0x40)\n      tag_95\n      swap2\n      swap1\n      tag_96\n      jump\t// in\n    tag_95:\n      mload(0x40)\n      dup1\n      swap2\n      sub\n      swap1\n      log1\n        /* \"contracts/eleccion.sol\":851:1035  function openElections() public {... */\n      jump\t// out\n        /* \"#utility.yul\":88:205   */\n    tag_98:\n        /* \"#utility.yul\":197:198   */\n      0x00\n        /* \"#utility.yul\":194:195   */\n      0x00\n        /* \"#utility.yul\":187:199   */\n      revert\n        /* \"#utility.yul\":334:460   */\n    tag_100:\n        /* \"#utility.yul\":371:378   */\n      0x00\n        /* \"#utility.yul\":411:453   */\n      0xffffffffffffffffffffffffffffffffffffffff\n        /* \"#utility.yul\":404:409   */\n      dup3\n        /* \"#utility.yul\":400:454   */\n      and\n        /* \"#utility.yul\":389:454   */\n      swap1\n      pop\n        /* \"#utility.yul\":334:460   */\n      swap2\n      swap1\n      pop\n      jump\t// out\n        /* \"#utility.yul\":466:562   */\n    tag_101:\n        /* \"#utility.yul\":503:510   */\n      0x00\n        /* \"#utility.yul\":532:556   */\n      tag_154\n        /* \"#utility.yul\":550:555   */\n      dup3\n        /* \"#utility.yul\":532:556   */\n      tag_100\n      jump\t// in\n    tag_154:\n        /* \"#utility.yul\":521:556   */\n      swap1\n      pop\n        /* \"#utility.yul\":466:562   */\n      swap2\n      swap1\n      pop\n      jump\t// out\n        /* \"#utility.yul\":568:690   */\n    tag_102:\n        /* \"#utility.yul\":641:665   */\n      tag_156\n        /* \"#utility.yul\":659:664   */\n      dup2\n        /* \"#utility.yul\":641:665   */\n      tag_101\n      jump\t// in\n    tag_156:\n        /* \"#utility.yul\":634:639   */\n      dup2\n        /* \"#utility.yul\":631:666   */\n      eq\n        /* \"#utility.yul\":621:684   */\n      tag_157\n      jumpi\n        /* \"#utility.yul\":680:681   */\n      0x00\n        /* \"#utility.yul\":677:678   */\n      0x00\n        /* \"#utility.yul\":670:682   */\n      revert\n        /* \"#utility.yul\":621:684   */\n    tag_157:\n        /* \"#utility.yul\":568:690   */\n      pop\n      jump\t// out\n        /* \"#utility.yul\":696:835   */\n    tag_103:\n        /* \"#utility.yul\":742:747   */\n      0x00\n        /* \"#utility.yul\":780:786   */\n      dup2\n        /* \"#utility.yul\":767:787   */\n      calldataload\n        /* \"#utility.yul\":758:787   */\n      swap1\n      pop\n        /* \"#utility.yul\":796:829   */\n      tag_159\n        /* \"#utility.yul\":823:828   */\n      dup2\n        /* \"#utility.yul\":796:829   */\n      tag_102\n      jump\t// in\n    tag_159:\n        /* \"#utility.yul\":696:835   */\n      swap3\n      swap2\n      pop\n      pop\n      jump\t// out\n        /* \"#utility.yul\":841:1170   */\n    tag_11:\n        /* \"#utility.yul\":900:906   */\n      0x00\n        /* \"#utility.yul\":949:951   */\n      0x20\n        /* \"#utility.yul\":937:946   */\n      dup3\n        /* \"#utility.yul\":928:935   */\n      dup5\n        /* \"#utility.yul\":924:947   */\n      sub\n        /* \"#utility.yul\":920:952   */\n      slt\n        /* \"#utility.yul\":917:1036   */\n      iszero\n      tag_161\n      jumpi\n        /* \"#utility.yul\":955:1034   */\n      tag_162\n      tag_98\n      jump\t// in\n    tag_162:\n        /* \"#utility.yul\":917:1036   */\n    tag_161:\n        /* \"#utility.yul\":1075:1076   */\n      0x00\n        /* \"#utility.yul\":1100:1153   */\n      tag_163\n        /* \"#utility.yul\":1145:1152   */\n      dup5\n        /* \"#utility.yul\":1136:1142   */\n      dup3\n        /* \"#utility.yul\":1125:1134   */\n      dup6\n        /* \"#utility.yul\":1121:1143   */\n      add\n        /* \"#utility.yul\":1100:1153   */\n      tag_103\n      jump\t// in\n    tag_163:\n        /* \"#utility.yul\":1090:1153   */\n      swap2\n      pop\n        /* \"#utility.yul\":1046:1163   */\n      pop\n        /* \"#utility.yul\":841:1170   */\n      swap3\n      swap2\n      pop\n      pop\n      jump\t// out\n        /* \"#utility.yul\":1176:1650   */\n    tag_15:\n        /* \"#utility.yul\":1244:1250   */\n      0x00\n        /* \"#utility.yul\":1252:1258   */\n      0x00\n        /* \"#utility.yul\":1301:1303   */\n      0x40\n        /* \"#utility.yul\":1289:1298   */\n      dup4\n        /* \"#utility.yul\":1280:1287   */\n      dup6\n        /* \"#utility.yul\":1276:1299   */\n      sub\n        /* \"#utility.yul\":1272:1304   */\n      slt\n        /* \"#utility.yul\":1269:1388   */\n      iszero\n      tag_165\n      jumpi\n        /* \"#utility.yul\":1307:1386   */\n      tag_166\n      tag_98\n      jump\t// in\n    tag_166:\n        /* \"#utility.yul\":1269:1388   */\n    tag_165:\n        /* \"#utility.yul\":1427:1428   */\n      0x00\n        /* \"#utility.yul\":1452:1505   */\n      tag_167\n        /* \"#utility.yul\":1497:1504   */\n      dup6\n        /* \"#utility.yul\":1488:1494   */\n      dup3\n        /* \"#utility.yul\":1477:1486   */\n      dup7\n        /* \"#utility.yul\":1473:1495   */\n      add\n        /* \"#utility.yul\":1452:1505   */\n      tag_103\n      jump\t// in\n    tag_167:\n        /* \"#utility.yul\":1442:1505   */\n      swap3\n      pop\n        /* \"#utility.yul\":1398:1515   */\n      pop\n        /* \"#utility.yul\":1554:1556   */\n      0x20\n        /* \"#utility.yul\":1580:1633   */\n      tag_168\n        /* \"#utility.yul\":1625:1632   */\n      dup6\n        /* \"#utility.yul\":1616:1622   */\n      dup3\n        /* \"#utility.yul\":1605:1614   */\n      dup7\n        /* \"#utility.yul\":1601:1623   */\n      add\n        /* \"#utility.yul\":1580:1633   */\n      tag_103\n      jump\t// in\n    tag_168:\n        /* \"#utility.yul\":1570:1633   */\n      swap2\n      pop\n        /* \"#utility.yul\":1525:1643   */\n      pop\n        /* \"#utility.yul\":1176:1650   */\n      swap3\n      pop\n      swap3\n      swap1\n      pop\n      jump\t// out\n        /* \"#utility.yul\":1656:1825   */\n    tag_104:\n        /* \"#utility.yul\":1740:1751   */\n      0x00\n        /* \"#utility.yul\":1774:1780   */\n      dup3\n        /* \"#utility.yul\":1769:1772   */\n      dup3\n        /* \"#utility.yul\":1762:1781   */\n      mstore\n        /* \"#utility.yul\":1814:1818   */\n      0x20\n        /* \"#utility.yul\":1809:1812   */\n      dup3\n        /* \"#utility.yul\":1805:1819   */\n      add\n        /* \"#utility.yul\":1790:1819   */\n      swap1\n      pop\n        /* \"#utility.yul\":1656:1825   */\n      swap3\n      swap2\n      pop\n      pop\n      jump\t// out\n        /* \"#utility.yul\":1831:1999   */\n    tag_105:\n        /* \"#utility.yul\":1971:1991   */\n      0x4e6f2065737461206175746f72697a61646f0000000000000000000000000000\n        /* \"#utility.yul\":1967:1968   */\n      0x00\n        /* \"#utility.yul\":1959:1965   */\n      dup3\n        /* \"#utility.yul\":1955:1969   */\n      add\n        /* \"#utility.yul\":1948:1992   */\n      mstore\n        /* \"#utility.yul\":1831:1999   */\n      pop\n      jump\t// out\n        /* \"#utility.yul\":2005:2371   */\n    tag_106:\n        /* \"#utility.yul\":2147:2150   */\n      0x00\n        /* \"#utility.yul\":2168:2235   */\n      tag_172\n        /* \"#utility.yul\":2232:2234   */\n      0x12\n        /* \"#utility.yul\":2227:2230   */\n      dup4\n        /* \"#utility.yul\":2168:2235   */\n      tag_104\n      jump\t// in\n    tag_172:\n        /* \"#utility.yul\":2161:2235   */\n      swap2\n      pop\n        /* \"#utility.yul\":2244:2337   */\n      tag_173\n        /* \"#utility.yul\":2333:2336   */\n      dup3\n        /* \"#utility.yul\":2244:2337   */\n      tag_105\n      jump\t// in\n    tag_173:\n        /* \"#utility.yul\":2362:2364   */\n      0x20\n        /* \"#utility.yul\":2357:2360   */\n      dup3\n        /* \"#utility.yul\":2353:2365   */\n      add\n        /* \"#utility.yul\":2346:2365   */\n      swap1\n      pop\n        /* \"#utility.yul\":2005:2371   */\n      swap2\n      swap1\n      pop\n      jump\t// out\n        /* \"#utility.yul\":2377:2796   */\n    tag_30:\n        /* \"#utility.yul\":2543:2547   */\n      0x00\n        /* \"#utility.yul\":2581:2583   */\n      0x20\n        /* \"#utility.yul\":2570:2579   */\n      dup3\n        /* \"#utility.yul\":2566:2584   */\n      add\n        /* \"#utility.yul\":2558:2584   */\n      swap1\n      pop\n        /* \"#utility.yul\":2630:2639   */\n      dup2\n        /* \"#utility.yul\":2624:2628   */\n      dup2\n        /* \"#utility.yul\":2620:2640   */\n      sub\n        /* \"#utility.yul\":2616:2617   */\n      0x00\n        /* \"#utility.yul\":2605:2614   */\n      dup4\n        /* \"#utility.yul\":2601:2618   */\n      add\n        /* \"#utility.yul\":2594:2641   */\n      mstore\n        /* \"#utility.yul\":2658:2789   */\n      tag_175\n        /* \"#utility.yul\":2784:2788   */\n      dup2\n        /* \"#utility.yul\":2658:2789   */\n      tag_106\n      jump\t// in\n    tag_175:\n        /* \"#utility.yul\":2650:2789   */\n      swap1\n      pop\n        /* \"#utility.yul\":2377:2796   */\n      swap2\n      swap1\n      pop\n      jump\t// out\n        /* \"#utility.yul\":2802:2978   */\n    tag_107:\n        /* \"#utility.yul\":2942:2970   */\n      0x5573756172696f2079612065737461207265676973747261646f000000000000\n        /* \"#utility.yul\":2938:2939   */\n      0x00\n        /* \"#utility.yul\":2930:2936   */\n      dup3\n        /* \"#utility.yul\":2926:2940   */\n      add\n        /* \"#utility.yul\":2919:2971   */\n      mstore\n        /* \"#utility.yul\":2802:2978   */\n      pop\n      jump\t// out\n        /* \"#utility.yul\":2984:3350   */\n    tag_108:\n        /* \"#utility.yul\":3126:3129   */\n      0x00\n        /* \"#utility.yul\":3147:3214   */\n      tag_178\n        /* \"#utility.yul\":3211:3213   */\n      0x1a\n        /* \"#utility.yul\":3206:3209   */\n      dup4\n        /* \"#utility.yul\":3147:3214   */\n      tag_104\n      jump\t// in\n    tag_178:\n        /* \"#utility.yul\":3140:3214   */\n      swap2\n      pop\n        /* \"#utility.yul\":3223:3316   */\n      tag_179\n        /* \"#utility.yul\":3312:3315   */\n      dup3\n        /* \"#utility.yul\":3223:3316   */\n      tag_107\n      jump\t// in\n    tag_179:\n        /* \"#utility.yul\":3341:3343   */\n      0x20\n        /* \"#utility.yul\":3336:3339   */\n      dup3\n        /* \"#utility.yul\":3332:3344   */\n      add\n        /* \"#utility.yul\":3325:3344   */\n      swap1\n      pop\n        /* \"#utility.yul\":2984:3350   */\n      swap2\n      swap1\n      pop\n      jump\t// out\n        /* \"#utility.yul\":3356:3775   */\n    tag_33:\n        /* \"#utility.yul\":3522:3526   */\n      0x00\n        /* \"#utility.yul\":3560:3562   */\n      0x20\n        /* \"#utility.yul\":3549:3558   */\n      dup3\n        /* \"#utility.yul\":3545:3563   */\n      add\n        /* \"#utility.yul\":3537:3563   */\n      swap1\n      pop\n        /* \"#utility.yul\":3609:3618   */\n      dup2\n        /* \"#utility.yul\":3603:3607   */\n      dup2\n        /* \"#utility.yul\":3599:3619   */\n      sub\n        /* \"#utility.yul\":3595:3596   */\n      0x00\n        /* \"#utility.yul\":3584:3593   */\n      dup4\n        /* \"#utility.yul\":3580:3597   */\n      add\n        /* \"#utility.yul\":3573:3620   */\n      mstore\n        /* \"#utility.yul\":3637:3768   */\n      tag_181\n        /* \"#utility.yul\":3763:3767   */\n      dup2\n        /* \"#utility.yul\":3637:3768   */\n      tag_108\n      jump\t// in\n    tag_181:\n        /* \"#utility.yul\":3629:3768   */\n      swap1\n      pop\n        /* \"#utility.yul\":3356:3775   */\n      swap2\n      swap1\n      pop\n      jump\t// out\n        /* \"#utility.yul\":3781:3899   */\n    tag_109:\n        /* \"#utility.yul\":3868:3892   */\n      tag_183\n        /* \"#utility.yul\":3886:3891   */\n      dup2\n        /* \"#utility.yul\":3868:3892   */\n      tag_101\n      jump\t// in\n    tag_183:\n        /* \"#utility.yul\":3863:3866   */\n      dup3\n        /* \"#utility.yul\":3856:3893   */\n      mstore\n        /* \"#utility.yul\":3781:3899   */\n      pop\n      pop\n      jump\t// out\n        /* \"#utility.yul\":3905:4127   */\n    tag_36:\n        /* \"#utility.yul\":3998:4002   */\n      0x00\n        /* \"#utility.yul\":4036:4038   */\n      0x20\n        /* \"#utility.yul\":4025:4034   */\n      dup3\n        /* \"#utility.yul\":4021:4039   */\n      add\n        /* \"#utility.yul\":4013:4039   */\n      swap1\n      pop\n        /* \"#utility.yul\":4049:4120   */\n      tag_185\n        /* \"#utility.yul\":4117:4118   */\n      0x00\n        /* \"#utility.yul\":4106:4115   */\n      dup4\n        /* \"#utility.yul\":4102:4119   */\n      add\n        /* \"#utility.yul\":4093:4099   */\n      dup5\n        /* \"#utility.yul\":4049:4120   */\n      tag_109\n      jump\t// in\n    tag_185:\n        /* \"#utility.yul\":3905:4127   */\n      swap3\n      swap2\n      pop\n      pop\n      jump\t// out\n        /* \"#utility.yul\":4133:4303   */\n    tag_110:\n        /* \"#utility.yul\":4273:4295   */\n      0x456c656363696f6e2079612066696e616c697a6f000000000000000000000000\n        /* \"#utility.yul\":4269:4270   */\n      0x00\n        /* \"#utility.yul\":4261:4267   */\n      dup3\n        /* \"#utility.yul\":4257:4271   */\n      add\n        /* \"#utility.yul\":4250:4296   */\n      mstore\n        /* \"#utility.yul\":4133:4303   */\n      pop\n      jump\t// out\n        /* \"#utility.yul\":4309:4675   */\n    tag_111:\n        /* \"#utility.yul\":4451:4454   */\n      0x00\n        /* \"#utility.yul\":4472:4539   */\n      tag_188\n        /* \"#utility.yul\":4536:4538   */\n      0x14\n        /* \"#utility.yul\":4531:4534   */\n      dup4\n        /* \"#utility.yul\":4472:4539   */\n      tag_104\n      jump\t// in\n    tag_188:\n        /* \"#utility.yul\":4465:4539   */\n      swap2\n      pop\n        /* \"#utility.yul\":4548:4641   */\n      tag_189\n        /* \"#utility.yul\":4637:4640   */\n      dup3\n        /* \"#utility.yul\":4548:4641   */\n      tag_110\n      jump\t// in\n    tag_189:\n        /* \"#utility.yul\":4666:4668   */\n      0x20\n        /* \"#utility.yul\":4661:4664   */\n      dup3\n        /* \"#utility.yul\":4657:4669   */\n      add\n        /* \"#utility.yul\":4650:4669   */\n      swap1\n      pop\n        /* \"#utility.yul\":4309:4675   */\n      swap2\n      swap1\n      pop\n      jump\t// out\n        /* \"#utility.yul\":4681:5100   */\n    tag_40:\n        /* \"#utility.yul\":4847:4851   */\n      0x00\n        /* \"#utility.yul\":4885:4887   */\n      0x20\n        /* \"#utility.yul\":4874:4883   */\n      dup3\n        /* \"#utility.yul\":4870:4888   */\n      add\n        /* \"#utility.yul\":4862:4888   */\n      swap1\n      pop\n        /* \"#utility.yul\":4934:4943   */\n      dup2\n        /* \"#utility.yul\":4928:4932   */\n      dup2\n        /* \"#utility.yul\":4924:4944   */\n      sub\n        /* \"#utility.yul\":4920:4921   */\n      0x00\n        /* \"#utility.yul\":4909:4918   */\n      dup4\n        /* \"#utility.yul\":4905:4922   */\n      add\n        /* \"#utility.yul\":4898:4945   */\n      mstore\n        /* \"#utility.yul\":4962:5093   */\n      tag_191\n        /* \"#utility.yul\":5088:5092   */\n      dup2\n        /* \"#utility.yul\":4962:5093   */\n      tag_111\n      jump\t// in\n    tag_191:\n        /* \"#utility.yul\":4954:5093   */\n      swap1\n      pop\n        /* \"#utility.yul\":4681:5100   */\n      swap2\n      swap1\n      pop\n      jump\t// out\n        /* \"#utility.yul\":5106:5275   */\n    tag_112:\n        /* \"#utility.yul\":5246:5267   */\n      0x43616e64696461746f206e6f2076616c69646f00000000000000000000000000\n        /* \"#utility.yul\":5242:5243   */\n      0x00\n        /* \"#utility.yul\":5234:5240   */\n      dup3\n        /* \"#utility.yul\":5230:5244   */\n      add\n        /* \"#utility.yul\":5223:5268   */\n      mstore\n        /* \"#utility.yul\":5106:5275   */\n      pop\n      jump\t// out\n        /* \"#utility.yul\":5281:5647   */\n    tag_113:\n        /* \"#utility.yul\":5423:5426   */\n      0x00\n        /* \"#utility.yul\":5444:5511   */\n      tag_194\n        /* \"#utility.yul\":5508:5510   */\n      0x13\n        /* \"#utility.yul\":5503:5506   */\n      dup4\n        /* \"#utility.yul\":5444:5511   */\n      tag_104\n      jump\t// in\n    tag_194:\n        /* \"#utility.yul\":5437:5511   */\n      swap2\n      pop\n        /* \"#utility.yul\":5520:5613   */\n      tag_195\n        /* \"#utility.yul\":5609:5612   */\n      dup3\n        /* \"#utility.yul\":5520:5613   */\n      tag_112\n      jump\t// in\n    tag_195:\n        /* \"#utility.yul\":5638:5640   */\n      0x20\n        /* \"#utility.yul\":5633:5636   */\n      dup3\n        /* \"#utility.yul\":5629:5641   */\n      add\n        /* \"#utility.yul\":5622:5641   */\n      swap1\n      pop\n        /* \"#utility.yul\":5281:5647   */\n      swap2\n      swap1\n      pop\n      jump\t// out\n        /* \"#utility.yul\":5653:6072   */\n    tag_45:\n        /* \"#utility.yul\":5819:5823   */\n      0x00\n        /* \"#utility.yul\":5857:5859   */\n      0x20\n        /* \"#utility.yul\":5846:5855   */\n      dup3\n        /* \"#utility.yul\":5842:5860   */\n      add\n        /* \"#utility.yul\":5834:5860   */\n      swap1\n      pop\n        /* \"#utility.yul\":5906:5915   */\n      dup2\n        /* \"#utility.yul\":5900:5904   */\n      dup2\n        /* \"#utility.yul\":5896:5916   */\n      sub\n        /* \"#utility.yul\":5892:5893   */\n      0x00\n        /* \"#utility.yul\":5881:5890   */\n      dup4\n        /* \"#utility.yul\":5877:5894   */\n      add\n        /* \"#utility.yul\":5870:5917   */\n      mstore\n        /* \"#utility.yul\":5934:6065   */\n      tag_197\n        /* \"#utility.yul\":6060:6064   */\n      dup2\n        /* \"#utility.yul\":5934:6065   */\n      tag_113\n      jump\t// in\n    tag_197:\n        /* \"#utility.yul\":5926:6065   */\n      swap1\n      pop\n        /* \"#utility.yul\":5653:6072   */\n      swap2\n      swap1\n      pop\n      jump\t// out\n        /* \"#utility.yul\":6078:6258   */\n    tag_114:\n        /* \"#utility.yul\":6126:6203   */\n      0x4e487b7100000000000000000000000000000000000000000000000000000000\n        /* \"#utility.yul\":6123:6124   */\n      0x00\n        /* \"#utility.yul\":6116:6204   */\n      mstore\n        /* \"#utility.yul\":6223:6227   */\n      0x11\n        /* \"#utility.yul\":6220:6221   */\n      0x04\n        /* \"#utility.yul\":6213:6228   */\n      mstore\n        /* \"#utility.yul\":6247:6251   */\n      0x24\n        /* \"#utility.yul\":6244:6245   */\n      0x00\n        /* \"#utility.yul\":6237:6252   */\n      revert\n        /* \"#utility.yul\":6264:6341   */\n    tag_115:\n        /* \"#utility.yul\":6301:6308   */\n      0x00\n        /* \"#utility.yul\":6330:6335   */\n      dup2\n        /* \"#utility.yul\":6319:6335   */\n      swap1\n      pop\n        /* \"#utility.yul\":6264:6341   */\n      swap2\n      swap1\n      pop\n      jump\t// out\n        /* \"#utility.yul\":6347:6580   */\n    tag_47:\n        /* \"#utility.yul\":6386:6389   */\n      0x00\n        /* \"#utility.yul\":6409:6433   */\n      tag_201\n        /* \"#utility.yul\":6427:6432   */\n      dup3\n        /* \"#utility.yul\":6409:6433   */\n      tag_115\n      jump\t// in\n    tag_201:\n        /* \"#utility.yul\":6400:6433   */\n      swap2\n      pop\n        /* \"#utility.yul\":6455:6521   */\n      0xffffffffffffffffffffffffffffffffffffffffffffffffffffffffffffffff\n        /* \"#utility.yul\":6448:6453   */\n      dup3\n        /* \"#utility.yul\":6445:6522   */\n      sub\n        /* \"#utility.yul\":6442:6545   */\n      tag_202\n      jumpi\n        /* \"#utility.yul\":6525:6543   */\n      tag_203\n      tag_114\n      jump\t// in\n    tag_203:\n        /* \"#utility.yul\":6442:6545   */\n    tag_202:\n        /* \"#utility.yul\":6572:6573   */\n      0x01\n        /* \"#utility.yul\":6565:6570   */\n      dup3\n        /* \"#utility.yul\":6561:6574   */\n      add\n        /* \"#utility.yul\":6554:6574   */\n      swap1\n      pop\n        /* \"#utility.yul\":6347:6580   */\n      swap2\n      swap1\n      pop\n      jump\t// out\n        /* \"#utility.yul\":6586:6680   */\n    tag_116:\n        /* \"#utility.yul\":6619:6627   */\n      0x00\n        /* \"#utility.yul\":6667:6672   */\n      dup2\n        /* \"#utility.yul\":6663:6665   */\n      0x60\n        /* \"#utility.yul\":6659:6673   */\n      shl\n        /* \"#utility.yul\":6638:6673   */\n      swap1\n      pop\n        /* \"#utility.yul\":6586:6680   */\n      swap2\n      swap1\n      pop\n      jump\t// out\n        /* \"#utility.yul\":6686:6780   */\n    tag_117:\n        /* \"#utility.yul\":6725:6732   */\n      0x00\n        /* \"#utility.yul\":6754:6774   */\n      tag_206\n        /* \"#utility.yul\":6768:6773   */\n      dup3\n        /* \"#utility.yul\":6754:6774   */\n      tag_116\n      jump\t// in\n    tag_206:\n        /* \"#utility.yul\":6743:6774   */\n      swap1\n      pop\n        /* \"#utility.yul\":6686:6780   */\n      swap2\n      swap1\n      pop\n      jump\t// out\n        /* \"#utility.yul\":6786:6886   */\n    tag_118:\n        /* \"#utility.yul\":6825:6832   */\n      0x00\n        /* \"#utility.yul\":6854:6880   */\n      tag_208\n        /* \"#utility.yul\":6874:6879   */\n      dup3\n        /* \"#utility.yul\":6854:6880   */\n      tag_117\n      jump\t// in\n    tag_208:\n        /* \"#utility.yul\":6843:6880   */\n      swap1\n      pop\n        /* \"#utility.yul\":6786:6886   */\n      swap2\n      swap1\n      pop\n      jump\t// out\n        /* \"#utility.yul\":6892:7049   */\n    tag_119:\n        /* \"#utility.yul\":6997:7042   */\n      tag_210\n        /* \"#utility.yul\":7017:7041   */\n      tag_211\n        /* \"#utility.yul\":7035:7040   */\n      dup3\n        /* \"#utility.yul\":7017:7041   */\n      tag_101\n      jump\t// in\n    tag_211:\n        /* \"#utility.yul\":6997:7042   */\n      tag_118\n      jump\t// in\n    tag_210:\n        /* \"#utility.yul\":6992:6995   */\n      dup3\n        /* \"#utility.yul\":6985:7043   */\n      mstore\n        /* \"#utility.yul\":6892:7049   */\n      pop\n      pop\n      jump\t// out\n        /* \"#utility.yul\":7055:7452   */\n    tag_50:\n        /* \"#utility.yul\":7195:7198   */\n      0x00\n        /* \"#utility.yul\":7210:7285   */\n      tag_213\n        /* \"#utility.yul\":7281:7284   */\n      dup3\n        /* \"#utility.yul\":7272:7278   */\n      dup6\n        /* \"#utility.yul\":7210:7285   */\n      tag_119\n      jump\t// in\n    tag_213:\n        /* \"#utility.yul\":7310:7312   */\n      0x14\n        /* \"#utility.yul\":7305:7308   */\n      dup3\n        /* \"#utility.yul\":7301:7313   */\n      add\n        /* \"#utility.yul\":7294:7313   */\n      swap2\n      pop\n        /* \"#utility.yul\":7323:7398   */\n      tag_214\n        /* \"#utility.yul\":7394:7397   */\n      dup3\n        /* \"#utility.yul\":7385:7391   */\n      dup5\n        /* \"#utility.yul\":7323:7398   */\n      tag_119\n      jump\t// in\n    tag_214:\n        /* \"#utility.yul\":7423:7425   */\n      0x14\n        /* \"#utility.yul\":7418:7421   */\n      dup3\n        /* \"#utility.yul\":7414:7426   */\n      add\n        /* \"#utility.yul\":7407:7426   */\n      swap2\n      pop\n        /* \"#utility.yul\":7443:7446   */\n      dup2\n        /* \"#utility.yul\":7436:7446   */\n      swap1\n      pop\n        /* \"#utility.yul\":7055:7452   */\n      swap4\n      swap3\n      pop\n      pop\n      pop\n      jump\t// out\n        /* \"#utility.yul\":7458:7535   */\n    tag_120:\n        /* \"#utility.yul\":7495:7502   */\n      0x00\n        /* \"#utility.yul\":7524:7529   */\n      dup2\n        /* \"#utility.yul\":7513:7529   */\n      swap1\n      pop\n        /* \"#utility.yul\":7458:7535   */\n      swap2\n      swap1\n      pop\n      jump\t// out\n        /* \"#utility.yul\":7541:7659   */\n    tag_121:\n        /* \"#utility.yul\":7628:7652   */\n      tag_217\n        /* \"#utility.yul\":7646:7651   */\n      dup2\n        /* \"#utility.yul\":7628:7652   */\n      tag_120\n      jump\t// in\n    tag_217:\n        /* \"#utility.yul\":7623:7626   */\n      dup3\n        /* \"#utility.yul\":7616:7653   */\n      mstore\n        /* \"#utility.yul\":7541:7659   */\n      pop\n      pop\n      jump\t// out\n        /* \"#utility.yul\":7665:7997   */\n    tag_52:\n        /* \"#utility.yul\":7786:7790   */\n      0x00\n        /* \"#utility.yul\":7824:7826   */\n      0x40\n        /* \"#utility.yul\":7813:7822   */\n      dup3\n        /* \"#utility.yul\":7809:7827   */\n      add\n        /* \"#utility.yul\":7801:7827   */\n      swap1\n      pop\n        /* \"#utility.yul\":7837:7908   */\n      tag_219\n        /* \"#utility.yul\":7905:7906   */\n      0x00\n        /* \"#utility.yul\":7894:7903   */\n      dup4\n        /* \"#utility.yul\":7890:7907   */\n      add\n        /* \"#utility.yul\":7881:7887   */\n      dup6\n        /* \"#utility.yul\":7837:7908   */\n      tag_109\n      jump\t// in\n    tag_219:\n        /* \"#utility.yul\":7918:7990   */\n      tag_220\n        /* \"#utility.yul\":7986:7988   */\n      0x20\n        /* \"#utility.yul\":7975:7984   */\n      dup4\n        /* \"#utility.yul\":7971:7989   */\n      add\n        /* \"#utility.yul\":7962:7968   */\n      dup5\n        /* \"#utility.yul\":7918:7990   */\n      tag_121\n      jump\t// in\n    tag_220:\n        /* \"#utility.yul\":7665:7997   */\n      swap4\n      swap3\n      pop\n      pop\n      pop\n      jump\t// out\n        /* \"#utility.yul\":8003:8180   */\n    tag_122:\n        /* \"#utility.yul\":8143:8172   */\n      0x4c6120656c656363696f6e207961206573746120636572726164610000000000\n        /* \"#utility.yul\":8139:8140   */\n      0x00\n        /* \"#utility.yul\":8131:8137   */\n      dup3\n        /* \"#utility.yul\":8127:8141   */\n      add\n        /* \"#utility.yul\":8120:8173   */\n      mstore\n        /* \"#utility.yul\":8003:8180   */\n      pop\n      jump\t// out\n        /* \"#utility.yul\":8186:8552   */\n    tag_123:\n        /* \"#utility.yul\":8328:8331   */\n      0x00\n        /* \"#utility.yul\":8349:8416   */\n      tag_223\n        /* \"#utility.yul\":8413:8415   */\n      0x1b\n        /* \"#utility.yul\":8408:8411   */\n      dup4\n        /* \"#utility.yul\":8349:8416   */\n      tag_104\n      jump\t// in\n    tag_223:\n        /* \"#utility.yul\":8342:8416   */\n      swap2\n      pop\n        /* \"#utility.yul\":8425:8518   */\n      tag_224\n        /* \"#utility.yul\":8514:8517   */\n      dup3\n        /* \"#utility.yul\":8425:8518   */\n      tag_122\n      jump\t// in\n    tag_224:\n        /* \"#utility.yul\":8543:8545   */\n      0x20\n        /* \"#utility.yul\":8538:8541   */\n      dup3\n        /* \"#utility.yul\":8534:8546   */\n      add\n        /* \"#utility.yul\":8527:8546   */\n      swap1\n      pop\n        /* \"#utility.yul\":8186:8552   */\n      swap2\n      swap1\n      pop\n      jump\t// out\n        /* \"#utility.yul\":8558:8977   */\n    tag_58:\n        /* \"#utility.yul\":8724:8728   */\n      0x00\n        /* \"#utility.yul\":8762:8764   */\n      0x20\n        /* \"#utility.yul\":8751:8760   */\n      dup3\n        /* \"#utility.yul\":8747:8765   */\n      add\n        /* \"#utility.yul\":8739:8765   */\n      swap1\n      pop\n        /* \"#utility.yul\":8811:8820   */\n      dup2\n        /* \"#utility.yul\":8805:8809   */\n      dup2\n        /* \"#utility.yul\":8801:8821   */\n      sub\n        /* \"#utility.yul\":8797:8798   */\n      0x00\n        /* \"#utility.yul\":8786:8795   */\n      dup4\n        /* \"#utility.yul\":8782:8799   */\n      add\n        /* \"#utility.yul\":8775:8822   */\n      mstore\n        /* \"#utility.yul\":8839:8970   */\n      tag_226\n        /* \"#utility.yul\":8965:8969   */\n      dup2\n        /* \"#utility.yul\":8839:8970   */\n      tag_123\n      jump\t// in\n    tag_226:\n        /* \"#utility.yul\":8831:8970   */\n      swap1\n      pop\n        /* \"#utility.yul\":8558:8977   */\n      swap2\n      swap1\n      pop\n      jump\t// out\n        /* \"#utility.yul\":8983:9163   */\n    tag_61:\n        /* \"#utility.yul\":9031:9108   */\n      0x4e487b7100000000000000000000000000000000000000000000000000000000\n        /* \"#utility.yul\":9028:9029   */\n      0x00\n        /* \"#utility.yul\":9021:9109   */\n      mstore\n        /* \"#utility.yul\":9128:9132   */\n      0x41\n        /* \"#utility.yul\":9125:9126   */\n      0x04\n        /* \"#utility.yul\":9118:9133   */\n      mstore\n        /* \"#utility.yul\":9152:9156   */\n      0x24\n        /* \"#utility.yul\":9149:9150   */\n      0x00\n        /* \"#utility.yul\":9142:9157   */\n      revert\n        /* \"#utility.yul\":9169:9349   */\n    tag_68:\n        /* \"#utility.yul\":9217:9294   */\n      0x4e487b7100000000000000000000000000000000000000000000000000000000\n        /* \"#utility.yul\":9214:9215   */\n      0x00\n        /* \"#utility.yul\":9207:9295   */\n      mstore\n        /* \"#utility.yul\":9314:9318   */\n      0x32\n        /* \"#utility.yul\":9311:9312   */\n      0x04\n        /* \"#utility.yul\":9304:9319   */\n      mstore\n        /* \"#utility.yul\":9338:9342   */\n      0x24\n        /* \"#utility.yul\":9335:9336   */\n      0x00\n        /* \"#utility.yul\":9328:9343   */\n      revert\n        /* \"#utility.yul\":9355:9466   */\n    tag_124:\n        /* \"#utility.yul\":9419:9425   */\n      0x00\n        /* \"#utility.yul\":9453:9458   */\n      dup2\n        /* \"#utility.yul\":9447:9459   */\n      sload\n        /* \"#utility.yul\":9437:9459   */\n      swap1\n      pop\n        /* \"#utility.yul\":9355:9466   */\n      swap2\n      swap1\n      pop\n      jump\t// out\n        /* \"#utility.yul\":9472:9656   */\n    tag_125:\n        /* \"#utility.yul\":9571:9582   */\n      0x00\n        /* \"#utility.yul\":9605:9611   */\n      dup3\n        /* \"#utility.yul\":9600:9603   */\n      dup3\n        /* \"#utility.yul\":9593:9612   */\n      mstore\n        /* \"#utility.yul\":9645:9649   */\n      0x20\n        /* \"#utility.yul\":9640:9643   */\n      dup3\n        /* \"#utility.yul\":9636:9650   */\n      add\n        /* \"#utility.yul\":9621:9650   */\n      swap1\n      pop\n        /* \"#utility.yul\":9472:9656   */\n      swap3\n      swap2\n      pop\n      pop\n      jump\t// out\n        /* \"#utility.yul\":9662:9818   */\n    tag_126:\n        /* \"#utility.yul\":9726:9730   */\n      0x00\n        /* \"#utility.yul\":9749:9752   */\n      dup2\n        /* \"#utility.yul\":9741:9752   */\n      swap1\n      pop\n        /* \"#utility.yul\":9772:9775   */\n      dup2\n        /* \"#utility.yul\":9769:9770   */\n      0x00\n        /* \"#utility.yul\":9762:9776   */\n      mstore\n        /* \"#utility.yul\":9806:9810   */\n      0x20\n        /* \"#utility.yul\":9803:9804   */\n      0x00\n        /* \"#utility.yul\":9793:9811   */\n      keccak256\n        /* \"#utility.yul\":9785:9811   */\n      swap1\n      pop\n        /* \"#utility.yul\":9662:9818   */\n      swap2\n      swap1\n      pop\n      jump\t// out\n        /* \"#utility.yul\":9824:9932   */\n    tag_127:\n        /* \"#utility.yul\":9901:9925   */\n      tag_233\n        /* \"#utility.yul\":9919:9924   */\n      dup2\n        /* \"#utility.yul\":9901:9925   */\n      tag_101\n      jump\t// in\n    tag_233:\n        /* \"#utility.yul\":9896:9899   */\n      dup3\n        /* \"#utility.yul\":9889:9926   */\n      mstore\n        /* \"#utility.yul\":9824:9932   */\n      pop\n      pop\n      jump\t// out\n        /* \"#utility.yul\":9938:10117   */\n    tag_128:\n        /* \"#utility.yul\":10007:10017   */\n      0x00\n        /* \"#utility.yul\":10028:10074   */\n      tag_235\n        /* \"#utility.yul\":10070:10073   */\n      dup4\n        /* \"#utility.yul\":10062:10068   */\n      dup4\n        /* \"#utility.yul\":10028:10074   */\n      tag_127\n      jump\t// in\n    tag_235:\n        /* \"#utility.yul\":10106:10110   */\n      0x20\n        /* \"#utility.yul\":10101:10104   */\n      dup4\n        /* \"#utility.yul\":10097:10111   */\n      add\n        /* \"#utility.yul\":10083:10111   */\n      swap1\n      pop\n        /* \"#utility.yul\":9938:10117   */\n      swap3\n      swap2\n      pop\n      pop\n      jump\t// out\n        /* \"#utility.yul\":10123:10225   */\n    tag_129:\n        /* \"#utility.yul\":10165:10173   */\n      0x00\n        /* \"#utility.yul\":10212:10217   */\n      dup2\n        /* \"#utility.yul\":10209:10210   */\n      0x00\n        /* \"#utility.yul\":10205:10218   */\n      shr\n        /* \"#utility.yul\":10184:10218   */\n      swap1\n      pop\n        /* \"#utility.yul\":10123:10225   */\n      swap2\n      swap1\n      pop\n      jump\t// out\n        /* \"#utility.yul\":10231:10370   */\n    tag_130:\n        /* \"#utility.yul\":10281:10288   */\n      0x00\n        /* \"#utility.yul\":10321:10363   */\n      0xffffffffffffffffffffffffffffffffffffffff\n        /* \"#utility.yul\":10314:10319   */\n      dup3\n        /* \"#utility.yul\":10310:10364   */\n      and\n        /* \"#utility.yul\":10299:10364   */\n      swap1\n      pop\n        /* \"#utility.yul\":10231:10370   */\n      swap2\n      swap1\n      pop\n      jump\t// out\n        /* \"#utility.yul\":10376:10543   */\n    tag_131:\n        /* \"#utility.yul\":10446:10451   */\n      0x00\n        /* \"#utility.yul\":10471:10537   */\n      tag_239\n        /* \"#utility.yul\":10502:10536   */\n      tag_240\n        /* \"#utility.yul\":10525:10535   */\n      dup4\n        /* \"#utility.yul\":10502:10536   */\n      tag_129\n      jump\t// in\n    tag_240:\n        /* \"#utility.yul\":10471:10537   */\n      tag_130\n      jump\t// in\n    tag_239:\n        /* \"#utility.yul\":10462:10537   */\n      swap1\n      pop\n        /* \"#utility.yul\":10376:10543   */\n      swap2\n      swap1\n      pop\n      jump\t// out\n        /* \"#utility.yul\":10549:10694   */\n    tag_132:\n        /* \"#utility.yul\":10604:10609   */\n      0x00\n        /* \"#utility.yul\":10629:10687   */\n      tag_242\n        /* \"#utility.yul\":10681:10685   */\n      dup3\n        /* \"#utility.yul\":10675:10686   */\n      sload\n        /* \"#utility.yul\":10629:10687   */\n      tag_131\n      jump\t// in\n    tag_242:\n        /* \"#utility.yul\":10620:10687   */\n      swap1\n      pop\n        /* \"#utility.yul\":10549:10694   */\n      swap2\n      swap1\n      pop\n      jump\t// out\n        /* \"#utility.yul\":10700:10810   */\n    tag_133:\n        /* \"#utility.yul\":10767:10771   */\n      0x00\n        /* \"#utility.yul\":10799:10803   */\n      0x01\n        /* \"#utility.yul\":10794:10797   */\n      dup3\n        /* \"#utility.yul\":10790:10804   */\n      add\n        /* \"#utility.yul\":10782:10804   */\n      swap1\n      pop\n        /* \"#utility.yul\":10700:10810   */\n      swap2\n      swap1\n      pop\n      jump\t// out\n        /* \"#utility.yul\":10846:11597   */\n    tag_134:\n        /* \"#utility.yul\":10962:10965   */\n      0x00\n        /* \"#utility.yul\":10991:11042   */\n      tag_245\n        /* \"#utility.yul\":11036:11041   */\n      dup3\n        /* \"#utility.yul\":10991:11042   */\n      tag_124\n      jump\t// in\n    tag_245:\n        /* \"#utility.yul\":11058:11144   */\n      tag_246\n        /* \"#utility.yul\":11137:11143   */\n      dup2\n        /* \"#utility.yul\":11132:11135   */\n      dup6\n        /* \"#utility.yul\":11058:11144   */\n      tag_125\n      jump\t// in\n    tag_246:\n        /* \"#utility.yul\":11051:11144   */\n      swap4\n      pop\n        /* \"#utility.yul\":11168:11221   */\n      tag_247\n        /* \"#utility.yul\":11215:11220   */\n      dup4\n        /* \"#utility.yul\":11168:11221   */\n      tag_126\n      jump\t// in\n    tag_247:\n        /* \"#utility.yul\":11244:11251   */\n      dup1\n        /* \"#utility.yul\":11275:11276   */\n      0x00\n        /* \"#utility.yul\":11260:11572   */\n    tag_248:\n        /* \"#utility.yul\":11285:11291   */\n      dup4\n        /* \"#utility.yul\":11282:11283   */\n      dup2\n        /* \"#utility.yul\":11279:11292   */\n      lt\n        /* \"#utility.yul\":11260:11572   */\n      iszero\n      tag_250\n      jumpi\n        /* \"#utility.yul\":11355:11399   */\n      tag_251\n        /* \"#utility.yul\":11392:11398   */\n      dup3\n        /* \"#utility.yul\":11355:11399   */\n      tag_132\n      jump\t// in\n    tag_251:\n        /* \"#utility.yul\":11419:11482   */\n      tag_252\n        /* \"#utility.yul\":11478:11481   */\n      dup9\n        /* \"#utility.yul\":11463:11476   */\n      dup3\n        /* \"#utility.yul\":11419:11482   */\n      tag_128\n      jump\t// in\n    tag_252:\n        /* \"#utility.yul\":11412:11482   */\n      swap8\n      pop\n        /* \"#utility.yul\":11505:11562   */\n      tag_253\n        /* \"#utility.yul\":11555:11561   */\n      dup4\n        /* \"#utility.yul\":11505:11562   */\n      tag_133\n      jump\t// in\n    tag_253:\n        /* \"#utility.yul\":11495:11562   */\n      swap3\n      pop\n        /* \"#utility.yul\":11320:11572   */\n      pop\n        /* \"#utility.yul\":11307:11308   */\n      0x01\n        /* \"#utility.yul\":11304:11305   */\n      dup2\n        /* \"#utility.yul\":11300:11309   */\n      add\n        /* \"#utility.yul\":11295:11309   */\n      swap1\n      pop\n        /* \"#utility.yul\":11260:11572   */\n      jump(tag_248)\n    tag_250:\n        /* \"#utility.yul\":11264:11278   */\n      pop\n        /* \"#utility.yul\":11588:11591   */\n      dup6\n        /* \"#utility.yul\":11581:11591   */\n      swap4\n      pop\n        /* \"#utility.yul\":10967:11597   */\n      pop\n      pop\n      pop\n        /* \"#utility.yul\":10846:11597   */\n      swap3\n      swap2\n      pop\n      pop\n      jump\t// out\n        /* \"#utility.yul\":11603:11717   */\n    tag_135:\n        /* \"#utility.yul\":11670:11676   */\n      0x00\n        /* \"#utility.yul\":11704:11709   */\n      dup2\n        /* \"#utility.yul\":11698:11710   */\n      mload\n        /* \"#utility.yul\":11688:11710   */\n      swap1\n      pop\n        /* \"#utility.yul\":11603:11717   */\n      swap2\n      swap1\n      pop\n      jump\t// out\n        /* \"#utility.yul\":11723:11907   */\n    tag_136:\n        /* \"#utility.yul\":11822:11833   */\n      0x00\n        /* \"#utility.yul\":11856:11862   */\n      dup3\n        /* \"#utility.yul\":11851:11854   */\n      dup3\n        /* \"#utility.yul\":11844:11863   */\n      mstore\n        /* \"#utility.yul\":11896:11900   */\n      0x20\n        /* \"#utility.yul\":11891:11894   */\n      dup3\n        /* \"#utility.yul\":11887:11901   */\n      add\n        /* \"#utility.yul\":11872:11901   */\n      swap1\n      pop\n        /* \"#utility.yul\":11723:11907   */\n      swap3\n      swap2\n      pop\n      pop\n      jump\t// out\n        /* \"#utility.yul\":11913:12045   */\n    tag_137:\n        /* \"#utility.yul\":11980:11984   */\n      0x00\n        /* \"#utility.yul\":12003:12006   */\n      dup2\n        /* \"#utility.yul\":11995:12006   */\n      swap1\n      pop\n        /* \"#utility.yul\":12033:12037   */\n      0x20\n        /* \"#utility.yul\":12028:12031   */\n      dup3\n        /* \"#utility.yul\":12024:12038   */\n      add\n        /* \"#utility.yul\":12016:12038   */\n      swap1\n      pop\n        /* \"#utility.yul\":11913:12045   */\n      swap2\n      swap1\n      pop\n      jump\t// out\n        /* \"#utility.yul\":12051:12159   */\n    tag_138:\n        /* \"#utility.yul\":12128:12152   */\n      tag_258\n        /* \"#utility.yul\":12146:12151   */\n      dup2\n        /* \"#utility.yul\":12128:12152   */\n      tag_115\n      jump\t// in\n    tag_258:\n        /* \"#utility.yul\":12123:12126   */\n      dup3\n        /* \"#utility.yul\":12116:12153   */\n      mstore\n        /* \"#utility.yul\":12051:12159   */\n      pop\n      pop\n      jump\t// out\n        /* \"#utility.yul\":12165:12344   */\n    tag_139:\n        /* \"#utility.yul\":12234:12244   */\n      0x00\n        /* \"#utility.yul\":12255:12301   */\n      tag_260\n        /* \"#utility.yul\":12297:12300   */\n      dup4\n        /* \"#utility.yul\":12289:12295   */\n      dup4\n        /* \"#utility.yul\":12255:12301   */\n      tag_138\n      jump\t// in\n    tag_260:\n        /* \"#utility.yul\":12333:12337   */\n      0x20\n        /* \"#utility.yul\":12328:12331   */\n      dup4\n        /* \"#utility.yul\":12324:12338   */\n      add\n        /* \"#utility.yul\":12310:12338   */\n      swap1\n      pop\n        /* \"#utility.yul\":12165:12344   */\n      swap3\n      swap2\n      pop\n      pop\n      jump\t// out\n        /* \"#utility.yul\":12350:12463   */\n    tag_140:\n        /* \"#utility.yul\":12420:12424   */\n      0x00\n        /* \"#utility.yul\":12452:12456   */\n      0x20\n        /* \"#utility.yul\":12447:12450   */\n      dup3\n        /* \"#utility.yul\":12443:12457   */\n      add\n        /* \"#utility.yul\":12435:12457   */\n      swap1\n      pop\n        /* \"#utility.yul\":12350:12463   */\n      swap2\n      swap1\n      pop\n      jump\t// out\n        /* \"#utility.yul\":12499:13231   */\n    tag_141:\n        /* \"#utility.yul\":12618:12621   */\n      0x00\n        /* \"#utility.yul\":12647:12701   */\n      tag_263\n        /* \"#utility.yul\":12695:12700   */\n      dup3\n        /* \"#utility.yul\":12647:12701   */\n      tag_135\n      jump\t// in\n    tag_263:\n        /* \"#utility.yul\":12717:12803   */\n      tag_264\n        /* \"#utility.yul\":12796:12802   */\n      dup2\n        /* \"#utility.yul\":12791:12794   */\n      dup6\n        /* \"#utility.yul\":12717:12803   */\n      tag_136\n      jump\t// in\n    tag_264:\n        /* \"#utility.yul\":12710:12803   */\n      swap4\n      pop\n        /* \"#utility.yul\":12827:12883   */\n      tag_265\n        /* \"#utility.yul\":12877:12882   */\n      dup4\n        /* \"#utility.yul\":12827:12883   */\n      tag_137\n      jump\t// in\n    tag_265:\n        /* \"#utility.yul\":12906:12913   */\n      dup1\n        /* \"#utility.yul\":12937:12938   */\n      0x00\n        /* \"#utility.yul\":12922:13206   */\n    tag_266:\n        /* \"#utility.yul\":12947:12953   */\n      dup4\n        /* \"#utility.yul\":12944:12945   */\n      dup2\n        /* \"#utility.yul\":12941:12954   */\n      lt\n        /* \"#utility.yul\":12922:13206   */\n      iszero\n      tag_268\n      jumpi\n        /* \"#utility.yul\":13023:13029   */\n      dup2\n        /* \"#utility.yul\":13017:13030   */\n      mload\n        /* \"#utility.yul\":13050:13113   */\n      tag_269\n        /* \"#utility.yul\":13109:13112   */\n      dup9\n        /* \"#utility.yul\":13094:13107   */\n      dup3\n        /* \"#utility.yul\":13050:13113   */\n      tag_139\n      jump\t// in\n    tag_269:\n        /* \"#utility.yul\":13043:13113   */\n      swap8\n      pop\n        /* \"#utility.yul\":13136:13196   */\n      tag_270\n        /* \"#utility.yul\":13189:13195   */\n      dup4\n        /* \"#utility.yul\":13136:13196   */\n      tag_140\n      jump\t// in\n    tag_270:\n        /* \"#utility.yul\":13126:13196   */\n      swap3\n      pop\n        /* \"#utility.yul\":12982:13206   */\n      pop\n        /* \"#utility.yul\":12969:12970   */\n      0x01\n        /* \"#utility.yul\":12966:12967   */\n      dup2\n        /* \"#utility.yul\":12962:12971   */\n      add\n        /* \"#utility.yul\":12957:12971   */\n      swap1\n      pop\n        /* \"#utility.yul\":12922:13206   */\n      jump(tag_266)\n    tag_268:\n        /* \"#utility.yul\":12926:12940   */\n      pop\n        /* \"#utility.yul\":13222:13225   */\n      dup6\n        /* \"#utility.yul\":13215:13225   */\n      swap4\n      pop\n        /* \"#utility.yul\":12623:13231   */\n      pop\n      pop\n      pop\n        /* \"#utility.yul\":12499:13231   */\n      swap3\n      swap2\n      pop\n      pop\n      jump\t// out\n        /* \"#utility.yul\":13237:13975   */\n    tag_83:\n        /* \"#utility.yul\":13483:13487   */\n      0x00\n        /* \"#utility.yul\":13521:13523   */\n      0x60\n        /* \"#utility.yul\":13510:13519   */\n      dup3\n        /* \"#utility.yul\":13506:13524   */\n      add\n        /* \"#utility.yul\":13498:13524   */\n      swap1\n      pop\n        /* \"#utility.yul\":13570:13579   */\n      dup2\n        /* \"#utility.yul\":13564:13568   */\n      dup2\n        /* \"#utility.yul\":13560:13580   */\n      sub\n        /* \"#utility.yul\":13556:13557   */\n      0x00\n        /* \"#utility.yul\":13545:13554   */\n      dup4\n        /* \"#utility.yul\":13541:13558   */\n      add\n        /* \"#utility.yul\":13534:13581   */\n      mstore\n        /* \"#utility.yul\":13598:13703   */\n      tag_272\n        /* \"#utility.yul\":13698:13702   */\n      dup2\n        /* \"#utility.yul\":13689:13695   */\n      dup7\n        /* \"#utility.yul\":13598:13703   */\n      tag_134\n      jump\t// in\n    tag_272:\n        /* \"#utility.yul\":13590:13703   */\n      swap1\n      pop\n        /* \"#utility.yul\":13750:13759   */\n      dup2\n        /* \"#utility.yul\":13744:13748   */\n      dup2\n        /* \"#utility.yul\":13740:13760   */\n      sub\n        /* \"#utility.yul\":13735:13737   */\n      0x20\n        /* \"#utility.yul\":13724:13733   */\n      dup4\n        /* \"#utility.yul\":13720:13738   */\n      add\n        /* \"#utility.yul\":13713:13761   */\n      mstore\n        /* \"#utility.yul\":13778:13886   */\n      tag_273\n        /* \"#utility.yul\":13881:13885   */\n      dup2\n        /* \"#utility.yul\":13872:13878   */\n      dup6\n        /* \"#utility.yul\":13778:13886   */\n      tag_141\n      jump\t// in\n    tag_273:\n        /* \"#utility.yul\":13770:13886   */\n      swap1\n      pop\n        /* \"#utility.yul\":13896:13968   */\n      tag_274\n        /* \"#utility.yul\":13964:13966   */\n      0x40\n        /* \"#utility.yul\":13953:13962   */\n      dup4\n        /* \"#utility.yul\":13949:13967   */\n      add\n        /* \"#utility.yul\":13940:13946   */\n      dup5\n        /* \"#utility.yul\":13896:13968   */\n      tag_109\n      jump\t// in\n    tag_274:\n        /* \"#utility.yul\":13237:13975   */\n      swap5\n      swap4\n      pop\n      pop\n      pop\n      pop\n      jump\t// out\n        /* \"#utility.yul\":13981:14158   */\n    tag_142:\n        /* \"#utility.yul\":14121:14150   */\n      0x536f6c6f20656c206475656e6f20707565646520616772656761720000000000\n        /* \"#utility.yul\":14117:14118   */\n      0x00\n        /* \"#utility.yul\":14109:14115   */\n      dup3\n        /* \"#utility.yul\":14105:14119   */\n      add\n        /* \"#utility.yul\":14098:14151   */\n      mstore\n        /* \"#utility.yul\":13981:14158   */\n      pop\n      jump\t// out\n        /* \"#utility.yul\":14164:14530   */\n    tag_143:\n        /* \"#utility.yul\":14306:14309   */\n      0x00\n        /* \"#utility.yul\":14327:14394   */\n      tag_277\n        /* \"#utility.yul\":14391:14393   */\n      0x1b\n        /* \"#utility.yul\":14386:14389   */\n      dup4\n        /* \"#utility.yul\":14327:14394   */\n      tag_104\n      jump\t// in\n    tag_277:\n        /* \"#utility.yul\":14320:14394   */\n      swap2\n      pop\n        /* \"#utility.yul\":14403:14496   */\n      tag_278\n        /* \"#utility.yul\":14492:14495   */\n      dup3\n        /* \"#utility.yul\":14403:14496   */\n      tag_142\n      jump\t// in\n    tag_278:\n        /* \"#utility.yul\":14521:14523   */\n      0x20\n        /* \"#utility.yul\":14516:14519   */\n      dup3\n        /* \"#utility.yul\":14512:14524   */\n      add\n        /* \"#utility.yul\":14505:14524   */\n      swap1\n      pop\n        /* \"#utility.yul\":14164:14530   */\n      swap2\n      swap1\n      pop\n      jump\t// out\n        /* \"#utility.yul\":14536:14955   */\n    tag_87:\n        /* \"#utility.yul\":14702:14706   */\n      0x00\n        /* \"#utility.yul\":14740:14742   */\n      0x20\n        /* \"#utility.yul\":14729:14738   */\n      dup3\n        /* \"#utility.yul\":14725:14743   */\n      add\n        /* \"#utility.yul\":14717:14743   */\n      swap1\n      pop\n        /* \"#utility.yul\":14789:14798   */\n      dup2\n        /* \"#utility.yul\":14783:14787   */\n      dup2\n        /* \"#utility.yul\":14779:14799   */\n      sub\n        /* \"#utility.yul\":14775:14776   */\n      0x00\n        /* \"#utility.yul\":14764:14773   */\n      dup4\n        /* \"#utility.yul\":14760:14777   */\n      add\n        /* \"#utility.yul\":14753:14800   */\n      mstore\n        /* \"#utility.yul\":14817:14948   */\n      tag_280\n        /* \"#utility.yul\":14943:14947   */\n      dup2\n        /* \"#utility.yul\":14817:14948   */\n      tag_143\n      jump\t// in\n    tag_280:\n        /* \"#utility.yul\":14809:14948   */\n      swap1\n      pop\n        /* \"#utility.yul\":14536:14955   */\n      swap2\n      swap1\n      pop\n      jump\t// out\n        /* \"#utility.yul\":14961:15138   */\n    tag_144:\n        /* \"#utility.yul\":15101:15130   */\n      0x4c6120656c656363696f6e207961206573746120616269657274610000000000\n        /* \"#utility.yul\":15097:15098   */\n      0x00\n        /* \"#utility.yul\":15089:15095   */\n      dup3\n        /* \"#utility.yul\":15085:15099   */\n      add\n        /* \"#utility.yul\":15078:15131   */\n      mstore\n        /* \"#utility.yul\":14961:15138   */\n      pop\n      jump\t// out\n        /* \"#utility.yul\":15144:15510   */\n    tag_145:\n        /* \"#utility.yul\":15286:15289   */\n      0x00\n        /* \"#utility.yul\":15307:15374   */\n      tag_283\n        /* \"#utility.yul\":15371:15373   */\n      0x1b\n        /* \"#utility.yul\":15366:15369   */\n      dup4\n        /* \"#utility.yul\":15307:15374   */\n      tag_104\n      jump\t// in\n    tag_283:\n        /* \"#utility.yul\":15300:15374   */\n      swap2\n      pop\n        /* \"#utility.yul\":15383:15476   */\n      tag_284\n        /* \"#utility.yul\":15472:15475   */\n      dup3\n        /* \"#utility.yul\":15383:15476   */\n      tag_144\n      jump\t// in\n    tag_284:\n        /* \"#utility.yul\":15501:15503   */\n      0x20\n        /* \"#utility.yul\":15496:15499   */\n      dup3\n        /* \"#utility.yul\":15492:15504   */\n      add\n        /* \"#utility.yul\":15485:15504   */\n      swap1\n      pop\n        /* \"#utility.yul\":15144:15510   */\n      swap2\n      swap1\n      pop\n      jump\t// out\n        /* \"#utility.yul\":15516:15935   */\n    tag_94:\n        /* \"#utility.yul\":15682:15686   */\n      0x00\n        /* \"#utility.yul\":15720:15722   */\n      0x20\n        /* \"#utility.yul\":15709:15718   */\n      dup3\n        /* \"#utility.yul\":15705:15723   */\n      add\n        /* \"#utility.yul\":15697:15723   */\n      swap1\n      pop\n        /* \"#utility.yul\":15769:15778   */\n      dup2\n        /* \"#utility.yul\":15763:15767   */\n      dup2\n        /* \"#utility.yul\":15759:15779   */\n      sub\n        /* \"#utility.yul\":15755:15756   */\n      0x00\n        /* \"#utility.yul\":15744:15753   */\n      dup4\n        /* \"#utility.yul\":15740:15757   */\n      add\n        /* \"#utility.yul\":15733:15780   */\n      mstore\n        /* \"#utility.yul\":15797:15928   */\n      tag_286\n        /* \"#utility.yul\":15923:15927   */\n      dup2\n        /* \"#utility.yul\":15797:15928   */\n      tag_145\n      jump\t// in\n    tag_286:\n        /* \"#utility.yul\":15789:15928   */\n      swap1\n      pop\n        /* \"#utility.yul\":15516:15935   */\n      swap2\n      swap1\n      pop\n      jump\t// out\n        /* \"#utility.yul\":15941:16031   */\n    tag_146:\n        /* \"#utility.yul\":15975:15982   */\n      0x00\n        /* \"#utility.yul\":16018:16023   */\n      dup2\n        /* \"#utility.yul\":16011:16024   */\n      iszero\n        /* \"#utility.yul\":16004:16025   */\n      iszero\n        /* \"#utility.yul\":15993:16025   */\n      swap1\n      pop\n        /* \"#utility.yul\":15941:16031   */\n      swap2\n      swap1\n      pop\n      jump\t// out\n        /* \"#utility.yul\":16037:16146   */\n    tag_147:\n        /* \"#utility.yul\":16118:16139   */\n      tag_289\n        /* \"#utility.yul\":16133:16138   */\n      dup2\n        /* \"#utility.yul\":16118:16139   */\n      tag_146\n      jump\t// in\n    tag_289:\n        /* \"#utility.yul\":16113:16116   */\n      dup3\n        /* \"#utility.yul\":16106:16140   */\n      mstore\n        /* \"#utility.yul\":16037:16146   */\n      pop\n      pop\n      jump\t// out\n        /* \"#utility.yul\":16152:16362   */\n    tag_96:\n        /* \"#utility.yul\":16239:16243   */\n      0x00\n        /* \"#utility.yul\":16277:16279   */\n      0x20\n        /* \"#utility.yul\":16266:16275   */\n      dup3\n        /* \"#utility.yul\":16262:16280   */\n      add\n        /* \"#utility.yul\":16254:16280   */\n      swap1\n      pop\n        /* \"#utility.yul\":16290:16355   */\n      tag_291\n        /* \"#utility.yul\":16352:16353   */\n      0x00\n        /* \"#utility.yul\":16341:16350   */\n      dup4\n        /* \"#utility.yul\":16337:16354   */\n      add\n        /* \"#utility.yul\":16328:16334   */\n      dup5\n        /* \"#utility.yul\":16290:16355   */\n      tag_147\n      jump\t// in\n    tag_291:\n        /* \"#utility.yul\":16152:16362   */\n      swap3\n      swap2\n      pop\n      pop\n      jump\t// out\n\n    auxdata: 0xa2646970667358221220ce2f68403a109a19ef69b6f58f28d1f1ac9c74233bb02add404e0feef910479a64736f6c634300081e0033\n}\n",
				"bytecode": {
					"linkReferences": {},
					"object": "6080604052348015600e575f5ffd5b505f60088190555033600960016101000a81548173ffffffffffffffffffffffffffffffffffffffff021916908373ffffffffffffffffffffffffffffffffffffffff1602179055506113be806100645f395ff3fe608060405234801561000f575f5ffd5b5060043610610060575f3560e01c80630361d74f146100645780631afa74e5146100805780633acd75f81461009c57806349900c0f146100b8578063cf1c316a146100c2578063d409b823146100de575b5f5ffd5b61007e60048036038101906100799190610c46565b6100e8565b005b61009a60048036038101906100959190610c71565b6102ea565b005b6100b660048036038101906100b19190610c46565b610578565b005b6100c0610671565b005b6100dc60048036038101906100d79190610c46565b610962565b005b6100e6610b34565b005b60055f8273ffffffffffffffffffffffffffffffffffffffff1673ffffffffffffffffffffffffffffffffffffffff1681526020019081526020015f205f9054906101000a900460ff16610171576040517f08c379a000000000000000000000000000000000000000000000000000000000815260040161016890610d09565b60405180910390fd5b60065f8273ffffffffffffffffffffffffffffffffffffffff1673ffffffffffffffffffffffffffffffffffffffff1681526020019081526020015f205f9054906101000a900460ff16156101fb576040517f08c379a00000000000000000000000000000000000000000000000000000000081526004016101f290610d71565b60405180910390fd5b600160065f8373ffffffffffffffffffffffffffffffffffffffff1673ffffffffffffffffffffffffffffffffffffffff1681526020019081526020015f205f6101000a81548160ff021916908315150217905550600281908060018154018082558091505060019003905f5260205f20015f9091909190916101000a81548173ffffffffffffffffffffffffffffffffffffffff021916908373ffffffffffffffffffffffffffffffffffffffff1602179055507f0cc981479567a200e9e9a4bcf6cbac3c8a19a146e0ca15a8c842da3924f011f4816040516102df9190610d9e565b60405180910390a150565b5f151560095f9054906101000a900460ff1615151461033e576040517f08c379a000000000000000000000000000000000000000000000000000000000815260040161033590610e01565b60405180910390fd5b60065f8373ffffffffffffffffffffffffffffffffffffffff1673ffffffffffffffffffffffffffffffffffffffff1681526020019081526020015f205f9054906101000a900460ff166103c7576040517f08c379a00000000000000000000000000000000000000000000000000000000081526004016103be90610d71565b60405180910390fd5b60075f8273ffffffffffffffffffffffffffffffffffffffff1673ffffffffffffffffffffffffffffffffffffffff1681526020019081526020015f205f9054906101000a900460ff16610450576040517f08c379a000000000000000000000000000000000000000000000000000000000815260040161044790610e69565b60405180910390fd5b60085f81548092919061046290610ebd565b919050555060035f8273ffffffffffffffffffffffffffffffffffffffff1673ffffffffffffffffffffffffffffffffffffffff1681526020019081526020015f205f8154809291906104b490610ebd565b9190505550600160045f8473ffffffffffffffffffffffffffffffffffffffff1673ffffffffffffffffffffffffffffffffffffffff1681526020019081526020015f205f6101000a81548160ff0219169083151502179055505f3382604051602001610522929190610f49565b6040516020818303038152906040528051906020012090507ff6684373e278c7bb736ada72935212b27cbe57520c7f54b688a2e9fe725f877c838260405161056b929190610f8c565b60405180910390a1505050565b5f81908060018154018082558091505060019003905f5260205f20015f9091909190916101000a81548173ffffffffffffffffffffffffffffffffffffffff021916908373ffffffffffffffffffffffffffffffffffffffff1602179055505f60035f8373ffffffffffffffffffffffffffffffffffffffff1673ffffffffffffffffffffffffffffffffffffffff1681526020019081526020015f2081905550600160075f8373ffffffffffffffffffffffffffffffffffffffff1673ffffffffffffffffffffffffffffffffffffffff1681526020019081526020015f205f6101000a81548160ff02191690831515021790555050565b6001151560095f9054906101000a900460ff161515146106c6576040517f08c379a00000000000000000000000000000000000000000000000000000000081526004016106bd90610ffd565b60405180910390fd5b600160095f6101000a81548160ff0219169083151502179055505f5f8054905067ffffffffffffffff8111156106ff576106fe61101b565b5b60405190808252806020026020018201604052801561072d5781602001602082028036833780820191505090505b5090505f5f5f90505f5f90505b5f805490508110156109215760035f5f838154811061075c5761075b611048565b5b905f5260205f20015f9054906101000a900473ffffffffffffffffffffffffffffffffffffffff1673ffffffffffffffffffffffffffffffffffffffff1673ffffffffffffffffffffffffffffffffffffffff1681526020019081526020015f20548482815181106107d1576107d0611048565b5b6020026020010181815250508160035f5f84815481106107f4576107f3611048565b5b905f5260205f20015f9054906101000a900473ffffffffffffffffffffffffffffffffffffffff1673ffffffffffffffffffffffffffffffffffffffff1673ffffffffffffffffffffffffffffffffffffffff1681526020019081526020015f205411156109145760035f5f838154811061087257610871611048565b5b905f5260205f20015f9054906101000a900473ffffffffffffffffffffffffffffffffffffffff1673ffffffffffffffffffffffffffffffffffffffff1673ffffffffffffffffffffffffffffffffffffffff1681526020019081526020015f205491505f81815481106108e9576108e8611048565b5b905f5260205f20015f9054906101000a900473ffffffffffffffffffffffffffffffffffffffff1692505b808060010191505061073a565b507f7bc88c418adeed68a67af6593e30b44583abd7d4ac5f93bd98fbcf5a0c37c99d5f848460405161095593929190611242565b60405180910390a1505050565b600960019054906101000a900473ffffffffffffffffffffffffffffffffffffffff1673ffffffffffffffffffffffffffffffffffffffff163373ffffffffffffffffffffffffffffffffffffffff16146109f2576040517f08c379a00000000000000000000000000000000000000000000000000000000081526004016109e9906112cf565b60405180910390fd5b60055f8273ffffffffffffffffffffffffffffffffffffffff1673ffffffffffffffffffffffffffffffffffffffff1681526020019081526020015f205f9054906101000a900460ff1615610a7c576040517f08c379a0000000000000000000000000000000000000000000000000000000008152600401610a7390610d71565b60405180910390fd5b600160055f8373ffffffffffffffffffffffffffffffffffffffff1673ffffffffffffffffffffffffffffffffffffffff1681526020019081526020015f205f6101000a81548160ff021916908315150217905550600181908060018154018082558091505060019003905f5260205f20015f9091909190916101000a81548173ffffffffffffffffffffffffffffffffffffffff021916908373ffffffffffffffffffffffffffffffffffffffff16021790555050565b5f151560095f9054906101000a900460ff16151514610b88576040517f08c379a0000000000000000000000000000000000000000000000000000000008152600401610b7f90611337565b60405180910390fd5b5f60095f6101000a81548160ff0219169083151502179055507f2e56e5fbc5e99f3162ee2f3688bf28b937b43e7ad57f557daaac0688bc6c7d2860095f9054906101000a900460ff16604051610bde919061136f565b60405180910390a1565b5f5ffd5b5f73ffffffffffffffffffffffffffffffffffffffff82169050919050565b5f610c1582610bec565b9050919050565b610c2581610c0b565b8114610c2f575f5ffd5b50565b5f81359050610c4081610c1c565b92915050565b5f60208284031215610c5b57610c5a610be8565b5b5f610c6884828501610c32565b91505092915050565b5f5f60408385031215610c8757610c86610be8565b5b5f610c9485828601610c32565b9250506020610ca585828601610c32565b9150509250929050565b5f82825260208201905092915050565b7f4e6f2065737461206175746f72697a61646f00000000000000000000000000005f82015250565b5f610cf3601283610caf565b9150610cfe82610cbf565b602082019050919050565b5f6020820190508181035f830152610d2081610ce7565b9050919050565b7f5573756172696f2079612065737461207265676973747261646f0000000000005f82015250565b5f610d5b601a83610caf565b9150610d6682610d27565b602082019050919050565b5f6020820190508181035f830152610d8881610d4f565b9050919050565b610d9881610c0b565b82525050565b5f602082019050610db15f830184610d8f565b92915050565b7f456c656363696f6e2079612066696e616c697a6f0000000000000000000000005f82015250565b5f610deb601483610caf565b9150610df682610db7565b602082019050919050565b5f6020820190508181035f830152610e1881610ddf565b9050919050565b7f43616e64696461746f206e6f2076616c69646f000000000000000000000000005f82015250565b5f610e53601383610caf565b9150610e5e82610e1f565b602082019050919050565b5f6020820190508181035f830152610e8081610e47565b9050919050565b7f4e487b71000000000000000000000000000000000000000000000000000000005f52601160045260245ffd5b5f819050919050565b5f610ec782610eb4565b91507fffffffffffffffffffffffffffffffffffffffffffffffffffffffffffffffff8203610ef957610ef8610e87565b5b600182019050919050565b5f8160601b9050919050565b5f610f1a82610f04565b9050919050565b5f610f2b82610f10565b9050919050565b610f43610f3e82610c0b565b610f21565b82525050565b5f610f548285610f32565b601482019150610f648284610f32565b6014820191508190509392505050565b5f819050919050565b610f8681610f74565b82525050565b5f604082019050610f9f5f830185610d8f565b610fac6020830184610f7d565b9392505050565b7f4c6120656c656363696f6e2079612065737461206365727261646100000000005f82015250565b5f610fe7601b83610caf565b9150610ff282610fb3565b602082019050919050565b5f6020820190508181035f83015261101481610fdb565b9050919050565b7f4e487b71000000000000000000000000000000000000000000000000000000005f52604160045260245ffd5b7f4e487b71000000000000000000000000000000000000000000000000000000005f52603260045260245ffd5b5f81549050919050565b5f82825260208201905092915050565b5f819050815f5260205f209050919050565b6110aa81610c0b565b82525050565b5f6110bb83836110a1565b60208301905092915050565b5f815f1c9050919050565b5f73ffffffffffffffffffffffffffffffffffffffff82169050919050565b5f6111036110fe836110c7565b6110d2565b9050919050565b5f61111582546110f1565b9050919050565b5f600182019050919050565b5f61113282611075565b61113c818561107f565b93506111478361108f565b805f5b8381101561117e5761115b8261110a565b61116588826110b0565b97506111708361111c565b92505060018101905061114a565b5085935050505092915050565b5f81519050919050565b5f82825260208201905092915050565b5f819050602082019050919050565b6111bd81610eb4565b82525050565b5f6111ce83836111b4565b60208301905092915050565b5f602082019050919050565b5f6111f08261118b565b6111fa8185611195565b9350611205836111a5565b805f5b8381101561123557815161121c88826111c3565b9750611227836111da565b925050600181019050611208565b5085935050505092915050565b5f6060820190508181035f83015261125a8186611128565b9050818103602083015261126e81856111e6565b905061127d6040830184610d8f565b949350505050565b7f536f6c6f20656c206475656e6f207075656465206167726567617200000000005f82015250565b5f6112b9601b83610caf565b91506112c482611285565b602082019050919050565b5f6020820190508181035f8301526112e6816112ad565b9050919050565b7f4c6120656c656363696f6e2079612065737461206162696572746100000000005f82015250565b5f611321601b83610caf565b915061132c826112ed565b602082019050919050565b5f6020820190508181035f83015261134e81611315565b9050919050565b5f8115159050919050565b61136981611355565b82525050565b5f6020820190506113825f830184611360565b9291505056fea2646970667358221220ce2f68403a109a19ef69b6f58f28d1f1ac9c74233bb02add404e0feef910479a64736f6c634300081e0033",
					"opcodes": "PUSH1 0x80 PUSH1 0x40 MSTORE CALLVALUE DUP1 ISZERO PUSH1 0xE JUMPI PUSH0 PUSH0 REVERT JUMPDEST POP PUSH0 PUSH1 0x8 DUP2 SWAP1 SSTORE POP CALLER PUSH1 0x9 PUSH1 0x1 PUSH2 0x100 EXP DUP2 SLOAD DUP2 PUSH20 0xFFFFFFFFFFFFFFFFFFFFFFFFFFFFFFFFFFFFFFFF MUL NOT AND SWAP1 DUP4 PUSH20 0xFFFFFFFFFFFFFFFFFFFFFFFFFFFFFFFFFFFFFFFF AND MUL OR SWAP1 SSTORE POP PUSH2 0x13BE DUP1 PUSH2 0x64 PUSH0 CODECOPY PUSH0 RETURN INVALID PUSH1 0x80 PUSH1 0x40 MSTORE CALLVALUE DUP1 ISZERO PUSH2 0xF JUMPI PUSH0 PUSH0 REVERT JUMPDEST POP PUSH1 0x4 CALLDATASIZE LT PUSH2 0x60 JUMPI PUSH0 CALLDATALOAD PUSH1 0xE0 SHR DUP1 PUSH4 0x361D74F EQ PUSH2 0x64 JUMPI DUP1 PUSH4 0x1AFA74E5 EQ PUSH2 0x80 JUMPI DUP1 PUSH4 0x3ACD75F8 EQ PUSH2 0x9C JUMPI DUP1 PUSH4 0x49900C0F EQ PUSH2 0xB8 JUMPI DUP1 PUSH4 0xCF1C316A EQ PUSH2 0xC2 JUMPI DUP1 PUSH4 0xD409B823 EQ PUSH2 0xDE JUMPI JUMPDEST PUSH0 PUSH0 REVERT JUMPDEST PUSH2 0x7E PUSH1 0x4 DUP1 CALLDATASIZE SUB DUP2 ADD SWAP1 PUSH2 0x79 SWAP2 SWAP1 PUSH2 0xC46 JUMP JUMPDEST PUSH2 0xE8 JUMP JUMPDEST STOP JUMPDEST PUSH2 0x9A PUSH1 0x4 DUP1 CALLDATASIZE SUB DUP2 ADD SWAP1 PUSH2 0x95 SWAP2 SWAP1 PUSH2 0xC71 JUMP JUMPDEST PUSH2 0x2EA JUMP JUMPDEST STOP JUMPDEST PUSH2 0xB6 PUSH1 0x4 DUP1 CALLDATASIZE SUB DUP2 ADD SWAP1 PUSH2 0xB1 SWAP2 SWAP1 PUSH2 0xC46 JUMP JUMPDEST PUSH2 0x578 JUMP JUMPDEST STOP JUMPDEST PUSH2 0xC0 PUSH2 0x671 JUMP JUMPDEST STOP JUMPDEST PUSH2 0xDC PUSH1 0x4 DUP1 CALLDATASIZE SUB DUP2 ADD SWAP1 PUSH2 0xD7 SWAP2 SWAP1 PUSH2 0xC46 JUMP JUMPDEST PUSH2 0x962 JUMP JUMPDEST STOP JUMPDEST PUSH2 0xE6 PUSH2 0xB34 JUMP JUMPDEST STOP JUMPDEST PUSH1 0x5 PUSH0 DUP3 PUSH20 0xFFFFFFFFFFFFFFFFFFFFFFFFFFFFFFFFFFFFFFFF AND PUSH20 0xFFFFFFFFFFFFFFFFFFFFFFFFFFFFFFFFFFFFFFFF AND DUP2 MSTORE PUSH1 0x20 ADD SWAP1 DUP2 MSTORE PUSH1 0x20 ADD PUSH0 KECCAK256 PUSH0 SWAP1 SLOAD SWAP1 PUSH2 0x100 EXP SWAP1 DIV PUSH1 0xFF AND PUSH2 0x171 JUMPI PUSH1 0x40 MLOAD PUSH32 0x8C379A000000000000000000000000000000000000000000000000000000000 DUP2 MSTORE PUSH1 0x4 ADD PUSH2 0x168 SWAP1 PUSH2 0xD09 JUMP JUMPDEST PUSH1 0x40 MLOAD DUP1 SWAP2 SUB SWAP1 REVERT JUMPDEST PUSH1 0x6 PUSH0 DUP3 PUSH20 0xFFFFFFFFFFFFFFFFFFFFFFFFFFFFFFFFFFFFFFFF AND PUSH20 0xFFFFFFFFFFFFFFFFFFFFFFFFFFFFFFFFFFFFFFFF AND DUP2 MSTORE PUSH1 0x20 ADD SWAP1 DUP2 MSTORE PUSH1 0x20 ADD PUSH0 KECCAK256 PUSH0 SWAP1 SLOAD SWAP1 PUSH2 0x100 EXP SWAP1 DIV PUSH1 0xFF AND ISZERO PUSH2 0x1FB JUMPI PUSH1 0x40 MLOAD PUSH32 0x8C379A000000000000000000000000000000000000000000000000000000000 DUP2 MSTORE PUSH1 0x4 ADD PUSH2 0x1F2 SWAP1 PUSH2 0xD71 JUMP JUMPDEST PUSH1 0x40 MLOAD DUP1 SWAP2 SUB SWAP1 REVERT JUMPDEST PUSH1 0x1 PUSH1 0x6 PUSH0 DUP4 PUSH20 0xFFFFFFFFFFFFFFFFFFFFFFFFFFFFFFFFFFFFFFFF AND PUSH20 0xFFFFFFFFFFFFFFFFFFFFFFFFFFFFFFFFFFFFFFFF AND DUP2 MSTORE PUSH1 0x20 ADD SWAP1 DUP2 MSTORE PUSH1 0x20 ADD PUSH0 KECCAK256 PUSH0 PUSH2 0x100 EXP DUP2 SLOAD DUP2 PUSH1 0xFF MUL NOT AND SWAP1 DUP4 ISZERO ISZERO MUL OR SWAP1 SSTORE POP PUSH1 0x2 DUP2 SWAP1 DUP1 PUSH1 0x1 DUP2 SLOAD ADD DUP1 DUP3 SSTORE DUP1 SWAP2 POP POP PUSH1 0x1 SWAP1 SUB SWAP1 PUSH0 MSTORE PUSH1 0x20 PUSH0 KECCAK256 ADD PUSH0 SWAP1 SWAP2 SWAP1 SWAP2 SWAP1 SWAP2 PUSH2 0x100 EXP DUP2 SLOAD DUP2 PUSH20 0xFFFFFFFFFFFFFFFFFFFFFFFFFFFFFFFFFFFFFFFF MUL NOT AND SWAP1 DUP4 PUSH20 0xFFFFFFFFFFFFFFFFFFFFFFFFFFFFFFFFFFFFFFFF AND MUL OR SWAP1 SSTORE POP PUSH32 0xCC981479567A200E9E9A4BCF6CBAC3C8A19A146E0CA15A8C842DA3924F011F4 DUP2 PUSH1 0x40 MLOAD PUSH2 0x2DF SWAP2 SWAP1 PUSH2 0xD9E JUMP JUMPDEST PUSH1 0x40 MLOAD DUP1 SWAP2 SUB SWAP1 LOG1 POP JUMP JUMPDEST PUSH0 ISZERO ISZERO PUSH1 0x9 PUSH0 SWAP1 SLOAD SWAP1 PUSH2 0x100 EXP SWAP1 DIV PUSH1 0xFF AND ISZERO ISZERO EQ PUSH2 0x33E JUMPI PUSH1 0x40 MLOAD PUSH32 0x8C379A000000000000000000000000000000000000000000000000000000000 DUP2 MSTORE PUSH1 0x4 ADD PUSH2 0x335 SWAP1 PUSH2 0xE01 JUMP JUMPDEST PUSH1 0x40 MLOAD DUP1 SWAP2 SUB SWAP1 REVERT JUMPDEST PUSH1 0x6 PUSH0 DUP4 PUSH20 0xFFFFFFFFFFFFFFFFFFFFFFFFFFFFFFFFFFFFFFFF AND PUSH20 0xFFFFFFFFFFFFFFFFFFFFFFFFFFFFFFFFFFFFFFFF AND DUP2 MSTORE PUSH1 0x20 ADD SWAP1 DUP2 MSTORE PUSH1 0x20 ADD PUSH0 KECCAK256 PUSH0 SWAP1 SLOAD SWAP1 PUSH2 0x100 EXP SWAP1 DIV PUSH1 0xFF AND PUSH2 0x3C7 JUMPI PUSH1 0x40 MLOAD PUSH32 0x8C379A000000000000000000000000000000000000000000000000000000000 DUP2 MSTORE PUSH1 0x4 ADD PUSH2 0x3BE SWAP1 PUSH2 0xD71 JUMP JUMPDEST PUSH1 0x40 MLOAD DUP1 SWAP2 SUB SWAP1 REVERT JUMPDEST PUSH1 0x7 PUSH0 DUP3 PUSH20 0xFFFFFFFFFFFFFFFFFFFFFFFFFFFFFFFFFFFFFFFF AND PUSH20 0xFFFFFFFFFFFFFFFFFFFFFFFFFFFFFFFFFFFFFFFF AND DUP2 MSTORE PUSH1 0x20 ADD SWAP1 DUP2 MSTORE PUSH1 0x20 ADD PUSH0 KECCAK256 PUSH0 SWAP1 SLOAD SWAP1 PUSH2 0x100 EXP SWAP1 DIV PUSH1 0xFF AND PUSH2 0x450 JUMPI PUSH1 0x40 MLOAD PUSH32 0x8C379A000000000000000000000000000000000000000000000000000000000 DUP2 MSTORE PUSH1 0x4 ADD PUSH2 0x447 SWAP1 PUSH2 0xE69 JUMP JUMPDEST PUSH1 0x40 MLOAD DUP1 SWAP2 SUB SWAP1 REVERT JUMPDEST PUSH1 0x8 PUSH0 DUP2 SLOAD DUP1 SWAP3 SWAP2 SWAP1 PUSH2 0x462 SWAP1 PUSH2 0xEBD JUMP JUMPDEST SWAP2 SWAP1 POP SSTORE POP PUSH1 0x3 PUSH0 DUP3 PUSH20 0xFFFFFFFFFFFFFFFFFFFFFFFFFFFFFFFFFFFFFFFF AND PUSH20 0xFFFFFFFFFFFFFFFFFFFFFFFFFFFFFFFFFFFFFFFF AND DUP2 MSTORE PUSH1 0x20 ADD SWAP1 DUP2 MSTORE PUSH1 0x20 ADD PUSH0 KECCAK256 PUSH0 DUP2 SLOAD DUP1 SWAP3 SWAP2 SWAP1 PUSH2 0x4B4 SWAP1 PUSH2 0xEBD JUMP JUMPDEST SWAP2 SWAP1 POP SSTORE POP PUSH1 0x1 PUSH1 0x4 PUSH0 DUP5 PUSH20 0xFFFFFFFFFFFFFFFFFFFFFFFFFFFFFFFFFFFFFFFF AND PUSH20 0xFFFFFFFFFFFFFFFFFFFFFFFFFFFFFFFFFFFFFFFF AND DUP2 MSTORE PUSH1 0x20 ADD SWAP1 DUP2 MSTORE PUSH1 0x20 ADD PUSH0 KECCAK256 PUSH0 PUSH2 0x100 EXP DUP2 SLOAD DUP2 PUSH1 0xFF MUL NOT AND SWAP1 DUP4 ISZERO ISZERO MUL OR SWAP1 SSTORE POP PUSH0 CALLER DUP3 PUSH1 0x40 MLOAD PUSH1 0x20 ADD PUSH2 0x522 SWAP3 SWAP2 SWAP1 PUSH2 0xF49 JUMP JUMPDEST PUSH1 0x40 MLOAD PUSH1 0x20 DUP2 DUP4 SUB SUB DUP2 MSTORE SWAP1 PUSH1 0x40 MSTORE DUP1 MLOAD SWAP1 PUSH1 0x20 ADD KECCAK256 SWAP1 POP PUSH32 0xF6684373E278C7BB736ADA72935212B27CBE57520C7F54B688A2E9FE725F877C DUP4 DUP3 PUSH1 0x40 MLOAD PUSH2 0x56B SWAP3 SWAP2 SWAP1 PUSH2 0xF8C JUMP JUMPDEST PUSH1 0x40 MLOAD DUP1 SWAP2 SUB SWAP1 LOG1 POP POP POP JUMP JUMPDEST PUSH0 DUP2 SWAP1 DUP1 PUSH1 0x1 DUP2 SLOAD ADD DUP1 DUP3 SSTORE DUP1 SWAP2 POP POP PUSH1 0x1 SWAP1 SUB SWAP1 PUSH0 MSTORE PUSH1 0x20 PUSH0 KECCAK256 ADD PUSH0 SWAP1 SWAP2 SWAP1 SWAP2 SWAP1 SWAP2 PUSH2 0x100 EXP DUP2 SLOAD DUP2 PUSH20 0xFFFFFFFFFFFFFFFFFFFFFFFFFFFFFFFFFFFFFFFF MUL NOT AND SWAP1 DUP4 PUSH20 0xFFFFFFFFFFFFFFFFFFFFFFFFFFFFFFFFFFFFFFFF AND MUL OR SWAP1 SSTORE POP PUSH0 PUSH1 0x3 PUSH0 DUP4 PUSH20 0xFFFFFFFFFFFFFFFFFFFFFFFFFFFFFFFFFFFFFFFF AND PUSH20 0xFFFFFFFFFFFFFFFFFFFFFFFFFFFFFFFFFFFFFFFF AND DUP2 MSTORE PUSH1 0x20 ADD SWAP1 DUP2 MSTORE PUSH1 0x20 ADD PUSH0 KECCAK256 DUP2 SWAP1 SSTORE POP PUSH1 0x1 PUSH1 0x7 PUSH0 DUP4 PUSH20 0xFFFFFFFFFFFFFFFFFFFFFFFFFFFFFFFFFFFFFFFF AND PUSH20 0xFFFFFFFFFFFFFFFFFFFFFFFFFFFFFFFFFFFFFFFF AND DUP2 MSTORE PUSH1 0x20 ADD SWAP1 DUP2 MSTORE PUSH1 0x20 ADD PUSH0 KECCAK256 PUSH0 PUSH2 0x100 EXP DUP2 SLOAD DUP2 PUSH1 0xFF MUL NOT AND SWAP1 DUP4 ISZERO ISZERO MUL OR SWAP1 SSTORE POP POP JUMP JUMPDEST PUSH1 0x1 ISZERO ISZERO PUSH1 0x9 PUSH0 SWAP1 SLOAD SWAP1 PUSH2 0x100 EXP SWAP1 DIV PUSH1 0xFF AND ISZERO ISZERO EQ PUSH2 0x6C6 JUMPI PUSH1 0x40 MLOAD PUSH32 0x8C379A000000000000000000000000000000000000000000000000000000000 DUP2 MSTORE PUSH1 0x4 ADD PUSH2 0x6BD SWAP1 PUSH2 0xFFD JUMP JUMPDEST PUSH1 0x40 MLOAD DUP1 SWAP2 SUB SWAP1 REVERT JUMPDEST PUSH1 0x1 PUSH1 0x9 PUSH0 PUSH2 0x100 EXP DUP2 SLOAD DUP2 PUSH1 0xFF MUL NOT AND SWAP1 DUP4 ISZERO ISZERO MUL OR SWAP1 SSTORE POP PUSH0 PUSH0 DUP1 SLOAD SWAP1 POP PUSH8 0xFFFFFFFFFFFFFFFF DUP2 GT ISZERO PUSH2 0x6FF JUMPI PUSH2 0x6FE PUSH2 0x101B JUMP JUMPDEST JUMPDEST PUSH1 0x40 MLOAD SWAP1 DUP1 DUP3 MSTORE DUP1 PUSH1 0x20 MUL PUSH1 0x20 ADD DUP3 ADD PUSH1 0x40 MSTORE DUP1 ISZERO PUSH2 0x72D JUMPI DUP2 PUSH1 0x20 ADD PUSH1 0x20 DUP3 MUL DUP1 CALLDATASIZE DUP4 CALLDATACOPY DUP1 DUP3 ADD SWAP2 POP POP SWAP1 POP JUMPDEST POP SWAP1 POP PUSH0 PUSH0 PUSH0 SWAP1 POP PUSH0 PUSH0 SWAP1 POP JUMPDEST PUSH0 DUP1 SLOAD SWAP1 POP DUP2 LT ISZERO PUSH2 0x921 JUMPI PUSH1 0x3 PUSH0 PUSH0 DUP4 DUP2 SLOAD DUP2 LT PUSH2 0x75C JUMPI PUSH2 0x75B PUSH2 0x1048 JUMP JUMPDEST JUMPDEST SWAP1 PUSH0 MSTORE PUSH1 0x20 PUSH0 KECCAK256 ADD PUSH0 SWAP1 SLOAD SWAP1 PUSH2 0x100 EXP SWAP1 DIV PUSH20 0xFFFFFFFFFFFFFFFFFFFFFFFFFFFFFFFFFFFFFFFF AND PUSH20 0xFFFFFFFFFFFFFFFFFFFFFFFFFFFFFFFFFFFFFFFF AND PUSH20 0xFFFFFFFFFFFFFFFFFFFFFFFFFFFFFFFFFFFFFFFF AND DUP2 MSTORE PUSH1 0x20 ADD SWAP1 DUP2 MSTORE PUSH1 0x20 ADD PUSH0 KECCAK256 SLOAD DUP5 DUP3 DUP2 MLOAD DUP2 LT PUSH2 0x7D1 JUMPI PUSH2 0x7D0 PUSH2 0x1048 JUMP JUMPDEST JUMPDEST PUSH1 0x20 MUL PUSH1 0x20 ADD ADD DUP2 DUP2 MSTORE POP POP DUP2 PUSH1 0x3 PUSH0 PUSH0 DUP5 DUP2 SLOAD DUP2 LT PUSH2 0x7F4 JUMPI PUSH2 0x7F3 PUSH2 0x1048 JUMP JUMPDEST JUMPDEST SWAP1 PUSH0 MSTORE PUSH1 0x20 PUSH0 KECCAK256 ADD PUSH0 SWAP1 SLOAD SWAP1 PUSH2 0x100 EXP SWAP1 DIV PUSH20 0xFFFFFFFFFFFFFFFFFFFFFFFFFFFFFFFFFFFFFFFF AND PUSH20 0xFFFFFFFFFFFFFFFFFFFFFFFFFFFFFFFFFFFFFFFF AND PUSH20 0xFFFFFFFFFFFFFFFFFFFFFFFFFFFFFFFFFFFFFFFF AND DUP2 MSTORE PUSH1 0x20 ADD SWAP1 DUP2 MSTORE PUSH1 0x20 ADD PUSH0 KECCAK256 SLOAD GT ISZERO PUSH2 0x914 JUMPI PUSH1 0x3 PUSH0 PUSH0 DUP4 DUP2 SLOAD DUP2 LT PUSH2 0x872 JUMPI PUSH2 0x871 PUSH2 0x1048 JUMP JUMPDEST JUMPDEST SWAP1 PUSH0 MSTORE PUSH1 0x20 PUSH0 KECCAK256 ADD PUSH0 SWAP1 SLOAD SWAP1 PUSH2 0x100 EXP SWAP1 DIV PUSH20 0xFFFFFFFFFFFFFFFFFFFFFFFFFFFFFFFFFFFFFFFF AND PUSH20 0xFFFFFFFFFFFFFFFFFFFFFFFFFFFFFFFFFFFFFFFF AND PUSH20 0xFFFFFFFFFFFFFFFFFFFFFFFFFFFFFFFFFFFFFFFF AND DUP2 MSTORE PUSH1 0x20 ADD SWAP1 DUP2 MSTORE PUSH1 0x20 ADD PUSH0 KECCAK256 SLOAD SWAP2 POP PUSH0 DUP2 DUP2 SLOAD DUP2 LT PUSH2 0x8E9 JUMPI PUSH2 0x8E8 PUSH2 0x1048 JUMP JUMPDEST JUMPDEST SWAP1 PUSH0 MSTORE PUSH1 0x20 PUSH0 KECCAK256 ADD PUSH0 SWAP1 SLOAD SWAP1 PUSH2 0x100 EXP SWAP1 DIV PUSH20 0xFFFFFFFFFFFFFFFFFFFFFFFFFFFFFFFFFFFFFFFF AND SWAP3 POP JUMPDEST DUP1 DUP1 PUSH1 0x1 ADD SWAP2 POP POP PUSH2 0x73A JUMP JUMPDEST POP PUSH32 0x7BC88C418ADEED68A67AF6593E30B44583ABD7D4AC5F93BD98FBCF5A0C37C99D PUSH0 DUP5 DUP5 PUSH1 0x40 MLOAD PUSH2 0x955 SWAP4 SWAP3 SWAP2 SWAP1 PUSH2 0x1242 JUMP JUMPDEST PUSH1 0x40 MLOAD DUP1 SWAP2 SUB SWAP1 LOG1 POP POP POP JUMP JUMPDEST PUSH1 0x9 PUSH1 0x1 SWAP1 SLOAD SWAP1 PUSH2 0x100 EXP SWAP1 DIV PUSH20 0xFFFFFFFFFFFFFFFFFFFFFFFFFFFFFFFFFFFFFFFF AND PUSH20 0xFFFFFFFFFFFFFFFFFFFFFFFFFFFFFFFFFFFFFFFF AND CALLER PUSH20 0xFFFFFFFFFFFFFFFFFFFFFFFFFFFFFFFFFFFFFFFF AND EQ PUSH2 0x9F2 JUMPI PUSH1 0x40 MLOAD PUSH32 0x8C379A000000000000000000000000000000000000000000000000000000000 DUP2 MSTORE PUSH1 0x4 ADD PUSH2 0x9E9 SWAP1 PUSH2 0x12CF JUMP JUMPDEST PUSH1 0x40 MLOAD DUP1 SWAP2 SUB SWAP1 REVERT JUMPDEST PUSH1 0x5 PUSH0 DUP3 PUSH20 0xFFFFFFFFFFFFFFFFFFFFFFFFFFFFFFFFFFFFFFFF AND PUSH20 0xFFFFFFFFFFFFFFFFFFFFFFFFFFFFFFFFFFFFFFFF AND DUP2 MSTORE PUSH1 0x20 ADD SWAP1 DUP2 MSTORE PUSH1 0x20 ADD PUSH0 KECCAK256 PUSH0 SWAP1 SLOAD SWAP1 PUSH2 0x100 EXP SWAP1 DIV PUSH1 0xFF AND ISZERO PUSH2 0xA7C JUMPI PUSH1 0x40 MLOAD PUSH32 0x8C379A000000000000000000000000000000000000000000000000000000000 DUP2 MSTORE PUSH1 0x4 ADD PUSH2 0xA73 SWAP1 PUSH2 0xD71 JUMP JUMPDEST PUSH1 0x40 MLOAD DUP1 SWAP2 SUB SWAP1 REVERT JUMPDEST PUSH1 0x1 PUSH1 0x5 PUSH0 DUP4 PUSH20 0xFFFFFFFFFFFFFFFFFFFFFFFFFFFFFFFFFFFFFFFF AND PUSH20 0xFFFFFFFFFFFFFFFFFFFFFFFFFFFFFFFFFFFFFFFF AND DUP2 MSTORE PUSH1 0x20 ADD SWAP1 DUP2 MSTORE PUSH1 0x20 ADD PUSH0 KECCAK256 PUSH0 PUSH2 0x100 EXP DUP2 SLOAD DUP2 PUSH1 0xFF MUL NOT AND SWAP1 DUP4 ISZERO ISZERO MUL OR SWAP1 SSTORE POP PUSH1 0x1 DUP2 SWAP1 DUP1 PUSH1 0x1 DUP2 SLOAD ADD DUP1 DUP3 SSTORE DUP1 SWAP2 POP POP PUSH1 0x1 SWAP1 SUB SWAP1 PUSH0 MSTORE PUSH1 0x20 PUSH0 KECCAK256 ADD PUSH0 SWAP1 SWAP2 SWAP1 SWAP2 SWAP1 SWAP2 PUSH2 0x100 EXP DUP2 SLOAD DUP2 PUSH20 0xFFFFFFFFFFFFFFFFFFFFFFFFFFFFFFFFFFFFFFFF MUL NOT AND SWAP1 DUP4 PUSH20 0xFFFFFFFFFFFFFFFFFFFFFFFFFFFFFFFFFFFFFFFF AND MUL OR SWAP1 SSTORE POP POP JUMP JUMPDEST PUSH0 ISZERO ISZERO PUSH1 0x9 PUSH0 SWAP1 SLOAD SWAP1 PUSH2 0x100 EXP SWAP1 DIV PUSH1 0xFF AND ISZERO ISZERO EQ PUSH2 0xB88 JUMPI PUSH1 0x40 MLOAD PUSH32 0x8C379A000000000000000000000000000000000000000000000000000000000 DUP2 MSTORE PUSH1 0x4 ADD PUSH2 0xB7F SWAP1 PUSH2 0x1337 JUMP JUMPDEST PUSH1 0x40 MLOAD DUP1 SWAP2 SUB SWAP1 REVERT JUMPDEST PUSH0 PUSH1 0x9 PUSH0 PUSH2 0x100 EXP DUP2 SLOAD DUP2 PUSH1 0xFF MUL NOT AND SWAP1 DUP4 ISZERO ISZERO MUL OR SWAP1 SSTORE POP PUSH32 0x2E56E5FBC5E99F3162EE2F3688BF28B937B43E7AD57F557DAAAC0688BC6C7D28 PUSH1 0x9 PUSH0 SWAP1 SLOAD SWAP1 PUSH2 0x100 EXP SWAP1 DIV PUSH1 0xFF AND PUSH1 0x40 MLOAD PUSH2 0xBDE SWAP2 SWAP1 PUSH2 0x136F JUMP JUMPDEST PUSH1 0x40 MLOAD DUP1 SWAP2 SUB SWAP1 LOG1 JUMP JUMPDEST PUSH0 PUSH0 REVERT JUMPDEST PUSH0 PUSH20 0xFFFFFFFFFFFFFFFFFFFFFFFFFFFFFFFFFFFFFFFF DUP3 AND SWAP1 POP SWAP2 SWAP1 POP JUMP JUMPDEST PUSH0 PUSH2 0xC15 DUP3 PUSH2 0xBEC JUMP JUMPDEST SWAP1 POP SWAP2 SWAP1 POP JUMP JUMPDEST PUSH2 0xC25 DUP2 PUSH2 0xC0B JUMP JUMPDEST DUP2 EQ PUSH2 0xC2F JUMPI PUSH0 PUSH0 REVERT JUMPDEST POP JUMP JUMPDEST PUSH0 DUP2 CALLDATALOAD SWAP1 POP PUSH2 0xC40 DUP2 PUSH2 0xC1C JUMP JUMPDEST SWAP3 SWAP2 POP POP JUMP JUMPDEST PUSH0 PUSH1 0x20 DUP3 DUP5 SUB SLT ISZERO PUSH2 0xC5B JUMPI PUSH2 0xC5A PUSH2 0xBE8 JUMP JUMPDEST JUMPDEST PUSH0 PUSH2 0xC68 DUP5 DUP3 DUP6 ADD PUSH2 0xC32 JUMP JUMPDEST SWAP2 POP POP SWAP3 SWAP2 POP POP JUMP JUMPDEST PUSH0 PUSH0 PUSH1 0x40 DUP4 DUP6 SUB SLT ISZERO PUSH2 0xC87 JUMPI PUSH2 0xC86 PUSH2 0xBE8 JUMP JUMPDEST JUMPDEST PUSH0 PUSH2 0xC94 DUP6 DUP3 DUP7 ADD PUSH2 0xC32 JUMP JUMPDEST SWAP3 POP POP PUSH1 0x20 PUSH2 0xCA5 DUP6 DUP3 DUP7 ADD PUSH2 0xC32 JUMP JUMPDEST SWAP2 POP POP SWAP3 POP SWAP3 SWAP1 POP JUMP JUMPDEST PUSH0 DUP3 DUP3 MSTORE PUSH1 0x20 DUP3 ADD SWAP1 POP SWAP3 SWAP2 POP POP JUMP JUMPDEST PUSH32 0x4E6F2065737461206175746F72697A61646F0000000000000000000000000000 PUSH0 DUP3 ADD MSTORE POP JUMP JUMPDEST PUSH0 PUSH2 0xCF3 PUSH1 0x12 DUP4 PUSH2 0xCAF JUMP JUMPDEST SWAP2 POP PUSH2 0xCFE DUP3 PUSH2 0xCBF JUMP JUMPDEST PUSH1 0x20 DUP3 ADD SWAP1 POP SWAP2 SWAP1 POP JUMP JUMPDEST PUSH0 PUSH1 0x20 DUP3 ADD SWAP1 POP DUP2 DUP2 SUB PUSH0 DUP4 ADD MSTORE PUSH2 0xD20 DUP2 PUSH2 0xCE7 JUMP JUMPDEST SWAP1 POP SWAP2 SWAP1 POP JUMP JUMPDEST PUSH32 0x5573756172696F2079612065737461207265676973747261646F000000000000 PUSH0 DUP3 ADD MSTORE POP JUMP JUMPDEST PUSH0 PUSH2 0xD5B PUSH1 0x1A DUP4 PUSH2 0xCAF JUMP JUMPDEST SWAP2 POP PUSH2 0xD66 DUP3 PUSH2 0xD27 JUMP JUMPDEST PUSH1 0x20 DUP3 ADD SWAP1 POP SWAP2 SWAP1 POP JUMP JUMPDEST PUSH0 PUSH1 0x20 DUP3 ADD SWAP1 POP DUP2 DUP2 SUB PUSH0 DUP4 ADD MSTORE PUSH2 0xD88 DUP2 PUSH2 0xD4F JUMP JUMPDEST SWAP1 POP SWAP2 SWAP1 POP JUMP JUMPDEST PUSH2 0xD98 DUP2 PUSH2 0xC0B JUMP JUMPDEST DUP3 MSTORE POP POP JUMP JUMPDEST PUSH0 PUSH1 0x20 DUP3 ADD SWAP1 POP PUSH2 0xDB1 PUSH0 DUP4 ADD DUP5 PUSH2 0xD8F JUMP JUMPDEST SWAP3 SWAP2 POP POP JUMP JUMPDEST PUSH32 0x456C656363696F6E2079612066696E616C697A6F000000000000000000000000 PUSH0 DUP3 ADD MSTORE POP JUMP JUMPDEST PUSH0 PUSH2 0xDEB PUSH1 0x14 DUP4 PUSH2 0xCAF JUMP JUMPDEST SWAP2 POP PUSH2 0xDF6 DUP3 PUSH2 0xDB7 JUMP JUMPDEST PUSH1 0x20 DUP3 ADD SWAP1 POP SWAP2 SWAP1 POP JUMP JUMPDEST PUSH0 PUSH1 0x20 DUP3 ADD SWAP1 POP DUP2 DUP2 SUB PUSH0 DUP4 ADD MSTORE PUSH2 0xE18 DUP2 PUSH2 0xDDF JUMP JUMPDEST SWAP1 POP SWAP2 SWAP1 POP JUMP JUMPDEST PUSH32 0x43616E64696461746F206E6F2076616C69646F00000000000000000000000000 PUSH0 DUP3 ADD MSTORE POP JUMP JUMPDEST PUSH0 PUSH2 0xE53 PUSH1 0x13 DUP4 PUSH2 0xCAF JUMP JUMPDEST SWAP2 POP PUSH2 0xE5E DUP3 PUSH2 0xE1F JUMP JUMPDEST PUSH1 0x20 DUP3 ADD SWAP1 POP SWAP2 SWAP1 POP JUMP JUMPDEST PUSH0 PUSH1 0x20 DUP3 ADD SWAP1 POP DUP2 DUP2 SUB PUSH0 DUP4 ADD MSTORE PUSH2 0xE80 DUP2 PUSH2 0xE47 JUMP JUMPDEST SWAP1 POP SWAP2 SWAP1 POP JUMP JUMPDEST PUSH32 0x4E487B7100000000000000000000000000000000000000000000000000000000 PUSH0 MSTORE PUSH1 0x11 PUSH1 0x4 MSTORE PUSH1 0x24 PUSH0 REVERT JUMPDEST PUSH0 DUP2 SWAP1 POP SWAP2 SWAP1 POP JUMP JUMPDEST PUSH0 PUSH2 0xEC7 DUP3 PUSH2 0xEB4 JUMP JUMPDEST SWAP2 POP PUSH32 0xFFFFFFFFFFFFFFFFFFFFFFFFFFFFFFFFFFFFFFFFFFFFFFFFFFFFFFFFFFFFFFFF DUP3 SUB PUSH2 0xEF9 JUMPI PUSH2 0xEF8 PUSH2 0xE87 JUMP JUMPDEST JUMPDEST PUSH1 0x1 DUP3 ADD SWAP1 POP SWAP2 SWAP1 POP JUMP JUMPDEST PUSH0 DUP2 PUSH1 0x60 SHL SWAP1 POP SWAP2 SWAP1 POP JUMP JUMPDEST PUSH0 PUSH2 0xF1A DUP3 PUSH2 0xF04 JUMP JUMPDEST SWAP1 POP SWAP2 SWAP1 POP JUMP JUMPDEST PUSH0 PUSH2 0xF2B DUP3 PUSH2 0xF10 JUMP JUMPDEST SWAP1 POP SWAP2 SWAP1 POP JUMP JUMPDEST PUSH2 0xF43 PUSH2 0xF3E DUP3 PUSH2 0xC0B JUMP JUMPDEST PUSH2 0xF21 JUMP JUMPDEST DUP3 MSTORE POP POP JUMP JUMPDEST PUSH0 PUSH2 0xF54 DUP3 DUP6 PUSH2 0xF32 JUMP JUMPDEST PUSH1 0x14 DUP3 ADD SWAP2 POP PUSH2 0xF64 DUP3 DUP5 PUSH2 0xF32 JUMP JUMPDEST PUSH1 0x14 DUP3 ADD SWAP2 POP DUP2 SWAP1 POP SWAP4 SWAP3 POP POP POP JUMP JUMPDEST PUSH0 DUP2 SWAP1 POP SWAP2 SWAP1 POP JUMP JUMPDEST PUSH2 0xF86 DUP2 PUSH2 0xF74 JUMP JUMPDEST DUP3 MSTORE POP POP JUMP JUMPDEST PUSH0 PUSH1 0x40 DUP3 ADD SWAP1 POP PUSH2 0xF9F PUSH0 DUP4 ADD DUP6 PUSH2 0xD8F JUMP JUMPDEST PUSH2 0xFAC PUSH1 0x20 DUP4 ADD DUP5 PUSH2 0xF7D JUMP JUMPDEST SWAP4 SWAP3 POP POP POP JUMP JUMPDEST PUSH32 0x4C6120656C656363696F6E207961206573746120636572726164610000000000 PUSH0 DUP3 ADD MSTORE POP JUMP JUMPDEST PUSH0 PUSH2 0xFE7 PUSH1 0x1B DUP4 PUSH2 0xCAF JUMP JUMPDEST SWAP2 POP PUSH2 0xFF2 DUP3 PUSH2 0xFB3 JUMP JUMPDEST PUSH1 0x20 DUP3 ADD SWAP1 POP SWAP2 SWAP1 POP JUMP JUMPDEST PUSH0 PUSH1 0x20 DUP3 ADD SWAP1 POP DUP2 DUP2 SUB PUSH0 DUP4 ADD MSTORE PUSH2 0x1014 DUP2 PUSH2 0xFDB JUMP JUMPDEST SWAP1 POP SWAP2 SWAP1 POP JUMP JUMPDEST PUSH32 0x4E487B7100000000000000000000000000000000000000000000000000000000 PUSH0 MSTORE PUSH1 0x41 PUSH1 0x4 MSTORE PUSH1 0x24 PUSH0 REVERT JUMPDEST PUSH32 0x4E487B7100000000000000000000000000000000000000000000000000000000 PUSH0 MSTORE PUSH1 0x32 PUSH1 0x4 MSTORE PUSH1 0x24 PUSH0 REVERT JUMPDEST PUSH0 DUP2 SLOAD SWAP1 POP SWAP2 SWAP1 POP JUMP JUMPDEST PUSH0 DUP3 DUP3 MSTORE PUSH1 0x20 DUP3 ADD SWAP1 POP SWAP3 SWAP2 POP POP JUMP JUMPDEST PUSH0 DUP2 SWAP1 POP DUP2 PUSH0 MSTORE PUSH1 0x20 PUSH0 KECCAK256 SWAP1 POP SWAP2 SWAP1 POP JUMP JUMPDEST PUSH2 0x10AA DUP2 PUSH2 0xC0B JUMP JUMPDEST DUP3 MSTORE POP POP JUMP JUMPDEST PUSH0 PUSH2 0x10BB DUP4 DUP4 PUSH2 0x10A1 JUMP JUMPDEST PUSH1 0x20 DUP4 ADD SWAP1 POP SWAP3 SWAP2 POP POP JUMP JUMPDEST PUSH0 DUP2 PUSH0 SHR SWAP1 POP SWAP2 SWAP1 POP JUMP JUMPDEST PUSH0 PUSH20 0xFFFFFFFFFFFFFFFFFFFFFFFFFFFFFFFFFFFFFFFF DUP3 AND SWAP1 POP SWAP2 SWAP1 POP JUMP JUMPDEST PUSH0 PUSH2 0x1103 PUSH2 0x10FE DUP4 PUSH2 0x10C7 JUMP JUMPDEST PUSH2 0x10D2 JUMP JUMPDEST SWAP1 POP SWAP2 SWAP1 POP JUMP JUMPDEST PUSH0 PUSH2 0x1115 DUP3 SLOAD PUSH2 0x10F1 JUMP JUMPDEST SWAP1 POP SWAP2 SWAP1 POP JUMP JUMPDEST PUSH0 PUSH1 0x1 DUP3 ADD SWAP1 POP SWAP2 SWAP1 POP JUMP JUMPDEST PUSH0 PUSH2 0x1132 DUP3 PUSH2 0x1075 JUMP JUMPDEST PUSH2 0x113C DUP2 DUP6 PUSH2 0x107F JUMP JUMPDEST SWAP4 POP PUSH2 0x1147 DUP4 PUSH2 0x108F JUMP JUMPDEST DUP1 PUSH0 JUMPDEST DUP4 DUP2 LT ISZERO PUSH2 0x117E JUMPI PUSH2 0x115B DUP3 PUSH2 0x110A JUMP JUMPDEST PUSH2 0x1165 DUP9 DUP3 PUSH2 0x10B0 JUMP JUMPDEST SWAP8 POP PUSH2 0x1170 DUP4 PUSH2 0x111C JUMP JUMPDEST SWAP3 POP POP PUSH1 0x1 DUP2 ADD SWAP1 POP PUSH2 0x114A JUMP JUMPDEST POP DUP6 SWAP4 POP POP POP POP SWAP3 SWAP2 POP POP JUMP JUMPDEST PUSH0 DUP2 MLOAD SWAP1 POP SWAP2 SWAP1 POP JUMP JUMPDEST PUSH0 DUP3 DUP3 MSTORE PUSH1 0x20 DUP3 ADD SWAP1 POP SWAP3 SWAP2 POP POP JUMP JUMPDEST PUSH0 DUP2 SWAP1 POP PUSH1 0x20 DUP3 ADD SWAP1 POP SWAP2 SWAP1 POP JUMP JUMPDEST PUSH2 0x11BD DUP2 PUSH2 0xEB4 JUMP JUMPDEST DUP3 MSTORE POP POP JUMP JUMPDEST PUSH0 PUSH2 0x11CE DUP4 DUP4 PUSH2 0x11B4 JUMP JUMPDEST PUSH1 0x20 DUP4 ADD SWAP1 POP SWAP3 SWAP2 POP POP JUMP JUMPDEST PUSH0 PUSH1 0x20 DUP3 ADD SWAP1 POP SWAP2 SWAP1 POP JUMP JUMPDEST PUSH0 PUSH2 0x11F0 DUP3 PUSH2 0x118B JUMP JUMPDEST PUSH2 0x11FA DUP2 DUP6 PUSH2 0x1195 JUMP JUMPDEST SWAP4 POP PUSH2 0x1205 DUP4 PUSH2 0x11A5 JUMP JUMPDEST DUP1 PUSH0 JUMPDEST DUP4 DUP2 LT ISZERO PUSH2 0x1235 JUMPI DUP2 MLOAD PUSH2 0x121C DUP9 DUP3 PUSH2 0x11C3 JUMP JUMPDEST SWAP8 POP PUSH2 0x1227 DUP4 PUSH2 0x11DA JUMP JUMPDEST SWAP3 POP POP PUSH1 0x1 DUP2 ADD SWAP1 POP PUSH2 0x1208 JUMP JUMPDEST POP DUP6 SWAP4 POP POP POP POP SWAP3 SWAP2 POP POP JUMP JUMPDEST PUSH0 PUSH1 0x60 DUP3 ADD SWAP1 POP DUP2 DUP2 SUB PUSH0 DUP4 ADD MSTORE PUSH2 0x125A DUP2 DUP7 PUSH2 0x1128 JUMP JUMPDEST SWAP1 POP DUP2 DUP2 SUB PUSH1 0x20 DUP4 ADD MSTORE PUSH2 0x126E DUP2 DUP6 PUSH2 0x11E6 JUMP JUMPDEST SWAP1 POP PUSH2 0x127D PUSH1 0x40 DUP4 ADD DUP5 PUSH2 0xD8F JUMP JUMPDEST SWAP5 SWAP4 POP POP POP POP JUMP JUMPDEST PUSH32 0x536F6C6F20656C206475656E6F20707565646520616772656761720000000000 PUSH0 DUP3 ADD MSTORE POP JUMP JUMPDEST PUSH0 PUSH2 0x12B9 PUSH1 0x1B DUP4 PUSH2 0xCAF JUMP JUMPDEST SWAP2 POP PUSH2 0x12C4 DUP3 PUSH2 0x1285 JUMP JUMPDEST PUSH1 0x20 DUP3 ADD SWAP1 POP SWAP2 SWAP1 POP JUMP JUMPDEST PUSH0 PUSH1 0x20 DUP3 ADD SWAP1 POP DUP2 DUP2 SUB PUSH0 DUP4 ADD MSTORE PUSH2 0x12E6 DUP2 PUSH2 0x12AD JUMP JUMPDEST SWAP1 POP SWAP2 SWAP1 POP JUMP JUMPDEST PUSH32 0x4C6120656C656363696F6E207961206573746120616269657274610000000000 PUSH0 DUP3 ADD MSTORE POP JUMP JUMPDEST PUSH0 PUSH2 0x1321 PUSH1 0x1B DUP4 PUSH2 0xCAF JUMP JUMPDEST SWAP2 POP PUSH2 0x132C DUP3 PUSH2 0x12ED JUMP JUMPDEST PUSH1 0x20 DUP3 ADD SWAP1 POP SWAP2 SWAP1 POP JUMP JUMPDEST PUSH0 PUSH1 0x20 DUP3 ADD SWAP1 POP DUP2 DUP2 SUB PUSH0 DUP4 ADD MSTORE PUSH2 0x134E DUP2 PUSH2 0x1315 JUMP JUMPDEST SWAP1 POP SWAP2 SWAP1 POP JUMP JUMPDEST PUSH0 DUP2 ISZERO ISZERO SWAP1 POP SWAP2 SWAP1 POP JUMP JUMPDEST PUSH2 0x1369 DUP2 PUSH2 0x1355 JUMP JUMPDEST DUP3 MSTORE POP POP JUMP JUMPDEST PUSH0 PUSH1 0x20 DUP3 ADD SWAP1 POP PUSH2 0x1382 PUSH0 DUP4 ADD DUP5 PUSH2 0x1360 JUMP JUMPDEST SWAP3 SWAP2 POP POP JUMP INVALID LOG2 PUSH5 0x6970667358 0x22 SLT KECCAK256 0xCE 0x2F PUSH9 0x403A109A19EF69B6F5 DUP16 0x28 DATALOADN 0xF1AC SWAP13 PUSH21 0x233BB02ADD404E0FEEF910479A64736F6C63430008 0x1E STOP CALLER "
				},
				"gasEstimates": {
					"creation": {
						"codeDepositCost": "1010800",
						"executionCost": "30374",
						"totalCost": "1041174"
					},
					"external": {
						"UserRegister(address)": "infinite",
						"addAuthorized(address)": "77908",
						"addCandidate(address)": "78501",
						"closeElections()": "infinite",
						"openElections()": "29994",
						"vote(address,address)": "infinite"
					}
				},
				"methodIdentifiers": {
					"UserRegister(address)": "0361d74f",
					"addAuthorized(address)": "cf1c316a",
					"addCandidate(address)": "3acd75f8",
					"closeElections()": "49900c0f",
					"openElections()": "d409b823",
					"vote(address,address)": "1afa74e5"
				}
			},
			"storageLayout": {
				"storage": [
					{
						"astId": 4,
						"contract": "contracts/eleccion.sol:Election",
						"label": "candidates",
						"offset": 0,
						"slot": "0",
						"type": "t_array(t_address)dyn_storage"
					},
					{
						"astId": 7,
						"contract": "contracts/eleccion.sol:Election",
						"label": "authorizedVoters",
						"offset": 0,
						"slot": "1",
						"type": "t_array(t_address)dyn_storage"
					},
					{
						"astId": 10,
						"contract": "contracts/eleccion.sol:Election",
						"label": "registeredVoters",
						"offset": 0,
						"slot": "2",
						"type": "t_array(t_address)dyn_storage"
					},
					{
						"astId": 14,
						"contract": "contracts/eleccion.sol:Election",
						"label": "voteEmited",
						"offset": 0,
						"slot": "3",
						"type": "t_mapping(t_address,t_uint256)"
					},
					{
						"astId": 18,
						"contract": "contracts/eleccion.sol:Election",
						"label": "voted",
						"offset": 0,
						"slot": "4",
						"type": "t_mapping(t_address,t_bool)"
					},
					{
						"astId": 22,
						"contract": "contracts/eleccion.sol:Election",
						"label": "authorized",
						"offset": 0,
						"slot": "5",
						"type": "t_mapping(t_address,t_bool)"
					},
					{
						"astId": 26,
						"contract": "contracts/eleccion.sol:Election",
						"label": "registered",
						"offset": 0,
						"slot": "6",
						"type": "t_mapping(t_address,t_bool)"
					},
					{
						"astId": 30,
						"contract": "contracts/eleccion.sol:Election",
						"label": "_candidates",
						"offset": 0,
						"slot": "7",
						"type": "t_mapping(t_address,t_bool)"
					},
					{
						"astId": 32,
						"contract": "contracts/eleccion.sol:Election",
						"label": "totalVotes",
						"offset": 0,
						"slot": "8",
						"type": "t_uint256"
					},
					{
						"astId": 34,
						"contract": "contracts/eleccion.sol:Election",
						"label": "electionEnded",
						"offset": 0,
						"slot": "9",
						"type": "t_bool"
					},
					{
						"astId": 36,
						"contract": "contracts/eleccion.sol:Election",
						"label": "owner",
						"offset": 1,
						"slot": "9",
						"type": "t_address"
					}
				],
				"types": {
					"t_address": {
						"encoding": "inplace",
						"label": "address",
						"numberOfBytes": "20"
					},
					"t_array(t_address)dyn_storage": {
						"base": "t_address",
						"encoding": "dynamic_array",
						"label": "address[]",
						"numberOfBytes": "32"
					},
					"t_bool": {
						"encoding": "inplace",
						"label": "bool",
						"numberOfBytes": "1"
					},
					"t_mapping(t_address,t_bool)": {
						"encoding": "mapping",
						"key": "t_address",
						"label": "mapping(address => bool)",
						"numberOfBytes": "32",
						"value": "t_bool"
					},
					"t_mapping(t_address,t_uint256)": {
						"encoding": "mapping",
						"key": "t_address",
						"label": "mapping(address => uint256)",
						"numberOfBytes": "32",
						"value": "t_uint256"
					},
					"t_uint256": {
						"encoding": "inplace",
						"label": "uint256",
						"numberOfBytes": "32"
					}
				}
			},
			"userdoc": {
				"kind": "user",
				"methods": {},
				"version": 1
			}
		}
	}
}