{
	"contracts/HelloWorld.sol": {
		"HelloWorld": {
			"abi": [
				{
					"inputs": [],
					"stateMutability": "nonpayable",
					"type": "constructor"
				},
				{
					"anonymous": false,
					"inputs": [
						{
							"indexed": false,
							"internalType": "string",
							"name": "newMessage",
							"type": "string"
						},
						{
							"indexed": false,
							"internalType": "address",
							"name": "updateBy",
							"type": "address"
						}
					],
					"name": "MessageUpdate",
					"type": "event"
				},
				{
					"anonymous": false,
					"inputs": [
						{
							"indexed": false,
							"internalType": "address",
							"name": "user",
							"type": "address"
						},
						{
							"indexed": false,
							"internalType": "string",
							"name": "message",
							"type": "string"
						}
					],
					"name": "UserMessageStored",
					"type": "event"
				},
				{
					"inputs": [],
					"name": "combineMessages",
					"outputs": [
						{
							"internalType": "string",
							"name": "",
							"type": "string"
						}
					],
					"stateMutability": "nonpayable",
					"type": "function"
				},
				{
					"inputs": [],
					"name": "getMessage",
					"outputs": [
						{
							"internalType": "string",
							"name": "",
							"type": "string"
						}
					],
					"stateMutability": "view",
					"type": "function"
				},
				{
					"inputs": [],
					"name": "getMessageCounter",
					"outputs": [
						{
							"internalType": "uint256",
							"name": "",
							"type": "uint256"
						}
					],
					"stateMutability": "view",
					"type": "function"
				},
				{
					"inputs": [
						{
							"internalType": "address",
							"name": "user",
							"type": "address"
						}
					],
					"name": "getUserMessages",
					"outputs": [
						{
							"internalType": "string",
							"name": "",
							"type": "string"
						}
					],
					"stateMutability": "view",
					"type": "function"
				},
				{
					"inputs": [
						{
							"internalType": "string",
							"name": "newMessage",
							"type": "string"
						}
					],
					"name": "setMessage",
					"outputs": [],
					"stateMutability": "nonpayable",
					"type": "function"
				},
				{
					"inputs": [
						{
							"internalType": "string",
							"name": "userMessage",
							"type": "string"
						}
					],
					"name": "storeUserMessage",
					"outputs": [],
					"stateMutability": "nonpayable",
					"type": "function"
				}
			],
			"devdoc": {
				"kind": "dev",
				"methods": {},
				"version": 1
			},
			"evm": {
				"assembly": "    /* \"contracts/HelloWorld.sol\":60:1568  contract HelloWorld {... */\n  mstore(0x40, 0x80)\n    /* \"contracts/HelloWorld.sol\":332:414  constructor(){... */\n  callvalue\n  dup1\n  iszero\n  tag_1\n  jumpi\n  revert(0x00, 0x00)\ntag_1:\n  pop\n    /* \"contracts/HelloWorld.sol\":356:379  message = \"Hello World\" */\n  mload(0x40)\n  dup1\n  0x40\n  add\n  0x40\n  mstore\n  dup1\n  0x0b\n  dup2\n  mstore\n  0x20\n  add\n  0x48656c6c6f20576f726c64000000000000000000000000000000000000000000\n  dup2\n  mstore\n  pop\n    /* \"contracts/HelloWorld.sol\":356:363  message */\n  0x00\n    /* \"contracts/HelloWorld.sol\":356:379  message = \"Hello World\" */\n  swap1\n  dup2\n  tag_4\n  swap2\n  swap1\n  tag_5\n  jump\t// in\ntag_4:\n  pop\n    /* \"contracts/HelloWorld.sol\":405:406  0 */\n  0x00\n    /* \"contracts/HelloWorld.sol\":390:404  messageCounter */\n  0x01\n    /* \"contracts/HelloWorld.sol\":390:406  messageCounter=0 */\n  dup2\n  swap1\n  sstore\n  pop\n    /* \"contracts/HelloWorld.sol\":60:1568  contract HelloWorld {... */\n  jump(tag_6)\n    /* \"#utility.yul\":7:106   */\ntag_7:\n    /* \"#utility.yul\":59:65   */\n  0x00\n    /* \"#utility.yul\":93:98   */\n  dup2\n    /* \"#utility.yul\":87:99   */\n  mload\n    /* \"#utility.yul\":77:99   */\n  swap1\n  pop\n    /* \"#utility.yul\":7:106   */\n  swap2\n  swap1\n  pop\n  jump\t// out\n    /* \"#utility.yul\":112:292   */\ntag_8:\n    /* \"#utility.yul\":160:237   */\n  0x4e487b7100000000000000000000000000000000000000000000000000000000\n    /* \"#utility.yul\":157:158   */\n  0x00\n    /* \"#utility.yul\":150:238   */\n  mstore\n    /* \"#utility.yul\":257:261   */\n  0x41\n    /* \"#utility.yul\":254:255   */\n  0x04\n    /* \"#utility.yul\":247:262   */\n  mstore\n    /* \"#utility.yul\":281:285   */\n  0x24\n    /* \"#utility.yul\":278:279   */\n  0x00\n    /* \"#utility.yul\":271:286   */\n  revert\n    /* \"#utility.yul\":298:478   */\ntag_9:\n    /* \"#utility.yul\":346:423   */\n  0x4e487b7100000000000000000000000000000000000000000000000000000000\n    /* \"#utility.yul\":343:344   */\n  0x00\n    /* \"#utility.yul\":336:424   */\n  mstore\n    /* \"#utility.yul\":443:447   */\n  0x22\n    /* \"#utility.yul\":440:441   */\n  0x04\n    /* \"#utility.yul\":433:448   */\n  mstore\n    /* \"#utility.yul\":467:471   */\n  0x24\n    /* \"#utility.yul\":464:465   */\n  0x00\n    /* \"#utility.yul\":457:472   */\n  revert\n    /* \"#utility.yul\":484:804   */\ntag_10:\n    /* \"#utility.yul\":528:534   */\n  0x00\n    /* \"#utility.yul\":565:566   */\n  0x02\n    /* \"#utility.yul\":559:563   */\n  dup3\n    /* \"#utility.yul\":555:567   */\n  div\n    /* \"#utility.yul\":545:567   */\n  swap1\n  pop\n    /* \"#utility.yul\":612:613   */\n  0x01\n    /* \"#utility.yul\":606:610   */\n  dup3\n    /* \"#utility.yul\":602:614   */\n  and\n    /* \"#utility.yul\":633:651   */\n  dup1\n    /* \"#utility.yul\":623:704   */\n  tag_32\n  jumpi\n    /* \"#utility.yul\":689:693   */\n  0x7f\n    /* \"#utility.yul\":681:687   */\n  dup3\n    /* \"#utility.yul\":677:694   */\n  and\n    /* \"#utility.yul\":667:694   */\n  swap2\n  pop\n    /* \"#utility.yul\":623:704   */\ntag_32:\n    /* \"#utility.yul\":751:753   */\n  0x20\n    /* \"#utility.yul\":743:749   */\n  dup3\n    /* \"#utility.yul\":740:754   */\n  lt\n    /* \"#utility.yul\":720:738   */\n  dup2\n    /* \"#utility.yul\":717:755   */\n  sub\n    /* \"#utility.yul\":714:798   */\n  tag_33\n  jumpi\n    /* \"#utility.yul\":770:788   */\n  tag_34\n  tag_9\n  jump\t// in\ntag_34:\n    /* \"#utility.yul\":714:798   */\ntag_33:\n    /* \"#utility.yul\":535:804   */\n  pop\n    /* \"#utility.yul\":484:804   */\n  swap2\n  swap1\n  pop\n  jump\t// out\n    /* \"#utility.yul\":810:951   */\ntag_11:\n    /* \"#utility.yul\":859:863   */\n  0x00\n    /* \"#utility.yul\":882:885   */\n  dup2\n    /* \"#utility.yul\":874:885   */\n  swap1\n  pop\n    /* \"#utility.yul\":905:908   */\n  dup2\n    /* \"#utility.yul\":902:903   */\n  0x00\n    /* \"#utility.yul\":895:909   */\n  mstore\n    /* \"#utility.yul\":939:943   */\n  0x20\n    /* \"#utility.yul\":936:937   */\n  0x00\n    /* \"#utility.yul\":926:944   */\n  keccak256\n    /* \"#utility.yul\":918:944   */\n  swap1\n  pop\n    /* \"#utility.yul\":810:951   */\n  swap2\n  swap1\n  pop\n  jump\t// out\n    /* \"#utility.yul\":957:1050   */\ntag_12:\n    /* \"#utility.yul\":994:1000   */\n  0x00\n    /* \"#utility.yul\":1041:1043   */\n  0x20\n    /* \"#utility.yul\":1036:1038   */\n  0x1f\n    /* \"#utility.yul\":1029:1034   */\n  dup4\n    /* \"#utility.yul\":1025:1039   */\n  add\n    /* \"#utility.yul\":1021:1044   */\n  div\n    /* \"#utility.yul\":1011:1044   */\n  swap1\n  pop\n    /* \"#utility.yul\":957:1050   */\n  swap2\n  swap1\n  pop\n  jump\t// out\n    /* \"#utility.yul\":1056:1163   */\ntag_13:\n    /* \"#utility.yul\":1100:1108   */\n  0x00\n    /* \"#utility.yul\":1150:1155   */\n  dup3\n    /* \"#utility.yul\":1144:1148   */\n  dup3\n    /* \"#utility.yul\":1140:1156   */\n  shl\n    /* \"#utility.yul\":1119:1156   */\n  swap1\n  pop\n    /* \"#utility.yul\":1056:1163   */\n  swap3\n  swap2\n  pop\n  pop\n  jump\t// out\n    /* \"#utility.yul\":1169:1562   */\ntag_14:\n    /* \"#utility.yul\":1238:1244   */\n  0x00\n    /* \"#utility.yul\":1288:1289   */\n  0x08\n    /* \"#utility.yul\":1276:1286   */\n  dup4\n    /* \"#utility.yul\":1272:1290   */\n  mul\n    /* \"#utility.yul\":1311:1408   */\n  tag_39\n    /* \"#utility.yul\":1341:1407   */\n  0xffffffffffffffffffffffffffffffffffffffffffffffffffffffffffffffff\n    /* \"#utility.yul\":1330:1339   */\n  dup3\n    /* \"#utility.yul\":1311:1408   */\n  tag_13\n  jump\t// in\ntag_39:\n    /* \"#utility.yul\":1429:1468   */\n  tag_40\n    /* \"#utility.yul\":1459:1467   */\n  dup7\n    /* \"#utility.yul\":1448:1457   */\n  dup4\n    /* \"#utility.yul\":1429:1468   */\n  tag_13\n  jump\t// in\ntag_40:\n    /* \"#utility.yul\":1417:1468   */\n  swap6\n  pop\n    /* \"#utility.yul\":1501:1505   */\n  dup1\n    /* \"#utility.yul\":1497:1506   */\n  not\n    /* \"#utility.yul\":1490:1495   */\n  dup5\n    /* \"#utility.yul\":1486:1507   */\n  and\n    /* \"#utility.yul\":1477:1507   */\n  swap4\n  pop\n    /* \"#utility.yul\":1550:1554   */\n  dup1\n    /* \"#utility.yul\":1540:1548   */\n  dup7\n    /* \"#utility.yul\":1536:1555   */\n  and\n    /* \"#utility.yul\":1529:1534   */\n  dup5\n    /* \"#utility.yul\":1526:1556   */\n  or\n    /* \"#utility.yul\":1516:1556   */\n  swap3\n  pop\n    /* \"#utility.yul\":1245:1562   */\n  pop\n  pop\n    /* \"#utility.yul\":1169:1562   */\n  swap4\n  swap3\n  pop\n  pop\n  pop\n  jump\t// out\n    /* \"#utility.yul\":1568:1645   */\ntag_15:\n    /* \"#utility.yul\":1605:1612   */\n  0x00\n    /* \"#utility.yul\":1634:1639   */\n  dup2\n    /* \"#utility.yul\":1623:1639   */\n  swap1\n  pop\n    /* \"#utility.yul\":1568:1645   */\n  swap2\n  swap1\n  pop\n  jump\t// out\n    /* \"#utility.yul\":1651:1711   */\ntag_16:\n    /* \"#utility.yul\":1679:1682   */\n  0x00\n    /* \"#utility.yul\":1700:1705   */\n  dup2\n    /* \"#utility.yul\":1693:1705   */\n  swap1\n  pop\n    /* \"#utility.yul\":1651:1711   */\n  swap2\n  swap1\n  pop\n  jump\t// out\n    /* \"#utility.yul\":1717:1859   */\ntag_17:\n    /* \"#utility.yul\":1767:1776   */\n  0x00\n    /* \"#utility.yul\":1800:1853   */\n  tag_44\n    /* \"#utility.yul\":1818:1852   */\n  tag_45\n    /* \"#utility.yul\":1827:1851   */\n  tag_46\n    /* \"#utility.yul\":1845:1850   */\n  dup5\n    /* \"#utility.yul\":1827:1851   */\n  tag_15\n  jump\t// in\ntag_46:\n    /* \"#utility.yul\":1818:1852   */\n  tag_16\n  jump\t// in\ntag_45:\n    /* \"#utility.yul\":1800:1853   */\n  tag_15\n  jump\t// in\ntag_44:\n    /* \"#utility.yul\":1787:1853   */\n  swap1\n  pop\n    /* \"#utility.yul\":1717:1859   */\n  swap2\n  swap1\n  pop\n  jump\t// out\n    /* \"#utility.yul\":1865:1940   */\ntag_18:\n    /* \"#utility.yul\":1908:1911   */\n  0x00\n    /* \"#utility.yul\":1929:1934   */\n  dup2\n    /* \"#utility.yul\":1922:1934   */\n  swap1\n  pop\n    /* \"#utility.yul\":1865:1940   */\n  swap2\n  swap1\n  pop\n  jump\t// out\n    /* \"#utility.yul\":1946:2215   */\ntag_19:\n    /* \"#utility.yul\":2056:2095   */\n  tag_49\n    /* \"#utility.yul\":2087:2094   */\n  dup4\n    /* \"#utility.yul\":2056:2095   */\n  tag_17\n  jump\t// in\ntag_49:\n    /* \"#utility.yul\":2117:2208   */\n  tag_50\n    /* \"#utility.yul\":2166:2207   */\n  tag_51\n    /* \"#utility.yul\":2190:2206   */\n  dup3\n    /* \"#utility.yul\":2166:2207   */\n  tag_18\n  jump\t// in\ntag_51:\n    /* \"#utility.yul\":2158:2164   */\n  dup5\n    /* \"#utility.yul\":2151:2155   */\n  dup5\n    /* \"#utility.yul\":2145:2156   */\n  sload\n    /* \"#utility.yul\":2117:2208   */\n  tag_14\n  jump\t// in\ntag_50:\n    /* \"#utility.yul\":2111:2115   */\n  dup3\n    /* \"#utility.yul\":2104:2209   */\n  sstore\n    /* \"#utility.yul\":2022:2215   */\n  pop\n    /* \"#utility.yul\":1946:2215   */\n  pop\n  pop\n  pop\n  jump\t// out\n    /* \"#utility.yul\":2221:2294   */\ntag_20:\n    /* \"#utility.yul\":2266:2269   */\n  0x00\n    /* \"#utility.yul\":2287:2288   */\n  0x00\n    /* \"#utility.yul\":2280:2288   */\n  swap1\n  pop\n    /* \"#utility.yul\":2221:2294   */\n  swap1\n  jump\t// out\n    /* \"#utility.yul\":2300:2489   */\ntag_21:\n    /* \"#utility.yul\":2377:2409   */\n  tag_54\n  tag_20\n  jump\t// in\ntag_54:\n    /* \"#utility.yul\":2418:2483   */\n  tag_55\n    /* \"#utility.yul\":2476:2482   */\n  dup2\n    /* \"#utility.yul\":2468:2474   */\n  dup5\n    /* \"#utility.yul\":2462:2466   */\n  dup5\n    /* \"#utility.yul\":2418:2483   */\n  tag_19\n  jump\t// in\ntag_55:\n    /* \"#utility.yul\":2353:2489   */\n  pop\n    /* \"#utility.yul\":2300:2489   */\n  pop\n  pop\n  jump\t// out\n    /* \"#utility.yul\":2495:2681   */\ntag_22:\n    /* \"#utility.yul\":2555:2675   */\ntag_57:\n    /* \"#utility.yul\":2572:2575   */\n  dup2\n    /* \"#utility.yul\":2565:2570   */\n  dup2\n    /* \"#utility.yul\":2562:2576   */\n  lt\n    /* \"#utility.yul\":2555:2675   */\n  iszero\n  tag_59\n  jumpi\n    /* \"#utility.yul\":2626:2665   */\n  tag_60\n    /* \"#utility.yul\":2663:2664   */\n  0x00\n    /* \"#utility.yul\":2656:2661   */\n  dup3\n    /* \"#utility.yul\":2626:2665   */\n  tag_21\n  jump\t// in\ntag_60:\n    /* \"#utility.yul\":2599:2600   */\n  0x01\n    /* \"#utility.yul\":2592:2597   */\n  dup2\n    /* \"#utility.yul\":2588:2601   */\n  add\n    /* \"#utility.yul\":2579:2601   */\n  swap1\n  pop\n    /* \"#utility.yul\":2555:2675   */\n  jump(tag_57)\ntag_59:\n    /* \"#utility.yul\":2495:2681   */\n  pop\n  pop\n  jump\t// out\n    /* \"#utility.yul\":2687:3230   */\ntag_23:\n    /* \"#utility.yul\":2788:2790   */\n  0x1f\n    /* \"#utility.yul\":2783:2786   */\n  dup3\n    /* \"#utility.yul\":2780:2791   */\n  gt\n    /* \"#utility.yul\":2777:3223   */\n  iszero\n  tag_62\n  jumpi\n    /* \"#utility.yul\":2822:2860   */\n  tag_63\n    /* \"#utility.yul\":2854:2859   */\n  dup2\n    /* \"#utility.yul\":2822:2860   */\n  tag_11\n  jump\t// in\ntag_63:\n    /* \"#utility.yul\":2906:2935   */\n  tag_64\n    /* \"#utility.yul\":2924:2934   */\n  dup5\n    /* \"#utility.yul\":2906:2935   */\n  tag_12\n  jump\t// in\ntag_64:\n    /* \"#utility.yul\":2896:2904   */\n  dup2\n    /* \"#utility.yul\":2892:2936   */\n  add\n    /* \"#utility.yul\":3089:3091   */\n  0x20\n    /* \"#utility.yul\":3077:3087   */\n  dup6\n    /* \"#utility.yul\":3074:3092   */\n  lt\n    /* \"#utility.yul\":3071:3120   */\n  iszero\n  tag_65\n  jumpi\n    /* \"#utility.yul\":3110:3118   */\n  dup2\n    /* \"#utility.yul\":3095:3118   */\n  swap1\n  pop\n    /* \"#utility.yul\":3071:3120   */\ntag_65:\n    /* \"#utility.yul\":3133:3213   */\n  tag_66\n    /* \"#utility.yul\":3189:3211   */\n  tag_67\n    /* \"#utility.yul\":3207:3210   */\n  dup6\n    /* \"#utility.yul\":3189:3211   */\n  tag_12\n  jump\t// in\ntag_67:\n    /* \"#utility.yul\":3179:3187   */\n  dup4\n    /* \"#utility.yul\":3175:3212   */\n  add\n    /* \"#utility.yul\":3162:3173   */\n  dup3\n    /* \"#utility.yul\":3133:3213   */\n  tag_22\n  jump\t// in\ntag_66:\n    /* \"#utility.yul\":2792:3223   */\n  pop\n  pop\n    /* \"#utility.yul\":2777:3223   */\ntag_62:\n    /* \"#utility.yul\":2687:3230   */\n  pop\n  pop\n  pop\n  jump\t// out\n    /* \"#utility.yul\":3236:3353   */\ntag_24:\n    /* \"#utility.yul\":3290:3298   */\n  0x00\n    /* \"#utility.yul\":3340:3345   */\n  dup3\n    /* \"#utility.yul\":3334:3338   */\n  dup3\n    /* \"#utility.yul\":3330:3346   */\n  shr\n    /* \"#utility.yul\":3309:3346   */\n  swap1\n  pop\n    /* \"#utility.yul\":3236:3353   */\n  swap3\n  swap2\n  pop\n  pop\n  jump\t// out\n    /* \"#utility.yul\":3359:3528   */\ntag_25:\n    /* \"#utility.yul\":3403:3409   */\n  0x00\n    /* \"#utility.yul\":3436:3487   */\n  tag_70\n    /* \"#utility.yul\":3484:3485   */\n  0x00\n    /* \"#utility.yul\":3480:3486   */\n  not\n    /* \"#utility.yul\":3472:3477   */\n  dup5\n    /* \"#utility.yul\":3469:3470   */\n  0x08\n    /* \"#utility.yul\":3465:3478   */\n  mul\n    /* \"#utility.yul\":3436:3487   */\n  tag_24\n  jump\t// in\ntag_70:\n    /* \"#utility.yul\":3432:3488   */\n  not\n    /* \"#utility.yul\":3517:3521   */\n  dup1\n    /* \"#utility.yul\":3511:3515   */\n  dup4\n    /* \"#utility.yul\":3507:3522   */\n  and\n    /* \"#utility.yul\":3497:3522   */\n  swap2\n  pop\n    /* \"#utility.yul\":3410:3528   */\n  pop\n    /* \"#utility.yul\":3359:3528   */\n  swap3\n  swap2\n  pop\n  pop\n  jump\t// out\n    /* \"#utility.yul\":3533:3828   */\ntag_26:\n    /* \"#utility.yul\":3609:3613   */\n  0x00\n    /* \"#utility.yul\":3755:3784   */\n  tag_72\n    /* \"#utility.yul\":3780:3783   */\n  dup4\n    /* \"#utility.yul\":3774:3778   */\n  dup4\n    /* \"#utility.yul\":3755:3784   */\n  tag_25\n  jump\t// in\ntag_72:\n    /* \"#utility.yul\":3747:3784   */\n  swap2\n  pop\n    /* \"#utility.yul\":3817:3820   */\n  dup3\n    /* \"#utility.yul\":3814:3815   */\n  0x02\n    /* \"#utility.yul\":3810:3821   */\n  mul\n    /* \"#utility.yul\":3804:3808   */\n  dup3\n    /* \"#utility.yul\":3801:3822   */\n  or\n    /* \"#utility.yul\":3793:3822   */\n  swap1\n  pop\n    /* \"#utility.yul\":3533:3828   */\n  swap3\n  swap2\n  pop\n  pop\n  jump\t// out\n    /* \"#utility.yul\":3833:5228   */\ntag_5:\n    /* \"#utility.yul\":3950:3987   */\n  tag_74\n    /* \"#utility.yul\":3983:3986   */\n  dup3\n    /* \"#utility.yul\":3950:3987   */\n  tag_7\n  jump\t// in\ntag_74:\n    /* \"#utility.yul\":4052:4070   */\n  0xffffffffffffffff\n    /* \"#utility.yul\":4044:4050   */\n  dup2\n    /* \"#utility.yul\":4041:4071   */\n  gt\n    /* \"#utility.yul\":4038:4094   */\n  iszero\n  tag_75\n  jumpi\n    /* \"#utility.yul\":4074:4092   */\n  tag_76\n  tag_8\n  jump\t// in\ntag_76:\n    /* \"#utility.yul\":4038:4094   */\ntag_75:\n    /* \"#utility.yul\":4118:4156   */\n  tag_77\n    /* \"#utility.yul\":4150:4154   */\n  dup3\n    /* \"#utility.yul\":4144:4155   */\n  sload\n    /* \"#utility.yul\":4118:4156   */\n  tag_10\n  jump\t// in\ntag_77:\n    /* \"#utility.yul\":4203:4270   */\n  tag_78\n    /* \"#utility.yul\":4263:4269   */\n  dup3\n    /* \"#utility.yul\":4255:4261   */\n  dup3\n    /* \"#utility.yul\":4249:4253   */\n  dup6\n    /* \"#utility.yul\":4203:4270   */\n  tag_23\n  jump\t// in\ntag_78:\n    /* \"#utility.yul\":4297:4298   */\n  0x00\n    /* \"#utility.yul\":4321:4325   */\n  0x20\n    /* \"#utility.yul\":4308:4325   */\n  swap1\n  pop\n    /* \"#utility.yul\":4353:4355   */\n  0x1f\n    /* \"#utility.yul\":4345:4351   */\n  dup4\n    /* \"#utility.yul\":4342:4356   */\n  gt\n    /* \"#utility.yul\":4370:4371   */\n  0x01\n    /* \"#utility.yul\":4365:4983   */\n  dup2\n  eq\n  tag_80\n  jumpi\n    /* \"#utility.yul\":5027:5028   */\n  0x00\n    /* \"#utility.yul\":5044:5050   */\n  dup5\n    /* \"#utility.yul\":5041:5118   */\n  iszero\n  tag_81\n  jumpi\n    /* \"#utility.yul\":5093:5102   */\n  dup3\n    /* \"#utility.yul\":5088:5091   */\n  dup8\n    /* \"#utility.yul\":5084:5103   */\n  add\n    /* \"#utility.yul\":5078:5104   */\n  mload\n    /* \"#utility.yul\":5069:5104   */\n  swap1\n  pop\n    /* \"#utility.yul\":5041:5118   */\ntag_81:\n    /* \"#utility.yul\":5144:5211   */\n  tag_82\n    /* \"#utility.yul\":5204:5210   */\n  dup6\n    /* \"#utility.yul\":5197:5202   */\n  dup3\n    /* \"#utility.yul\":5144:5211   */\n  tag_26\n  jump\t// in\ntag_82:\n    /* \"#utility.yul\":5138:5142   */\n  dup7\n    /* \"#utility.yul\":5131:5212   */\n  sstore\n    /* \"#utility.yul\":5000:5222   */\n  pop\n    /* \"#utility.yul\":4335:5222   */\n  jump(tag_79)\n    /* \"#utility.yul\":4365:4983   */\ntag_80:\n    /* \"#utility.yul\":4417:4421   */\n  0x1f\n    /* \"#utility.yul\":4413:4422   */\n  not\n    /* \"#utility.yul\":4405:4411   */\n  dup5\n    /* \"#utility.yul\":4401:4423   */\n  and\n    /* \"#utility.yul\":4451:4488   */\n  tag_83\n    /* \"#utility.yul\":4483:4487   */\n  dup7\n    /* \"#utility.yul\":4451:4488   */\n  tag_11\n  jump\t// in\ntag_83:\n    /* \"#utility.yul\":4510:4511   */\n  0x00\n    /* \"#utility.yul\":4524:4732   */\ntag_84:\n    /* \"#utility.yul\":4538:4545   */\n  dup3\n    /* \"#utility.yul\":4535:4536   */\n  dup2\n    /* \"#utility.yul\":4532:4546   */\n  lt\n    /* \"#utility.yul\":4524:4732   */\n  iszero\n  tag_86\n  jumpi\n    /* \"#utility.yul\":4617:4626   */\n  dup5\n    /* \"#utility.yul\":4612:4615   */\n  dup10\n    /* \"#utility.yul\":4608:4627   */\n  add\n    /* \"#utility.yul\":4602:4628   */\n  mload\n    /* \"#utility.yul\":4594:4600   */\n  dup3\n    /* \"#utility.yul\":4587:4629   */\n  sstore\n    /* \"#utility.yul\":4668:4669   */\n  0x01\n    /* \"#utility.yul\":4660:4666   */\n  dup3\n    /* \"#utility.yul\":4656:4670   */\n  add\n    /* \"#utility.yul\":4646:4670   */\n  swap2\n  pop\n    /* \"#utility.yul\":4715:4717   */\n  0x20\n    /* \"#utility.yul\":4704:4713   */\n  dup6\n    /* \"#utility.yul\":4700:4718   */\n  add\n    /* \"#utility.yul\":4687:4718   */\n  swap5\n  pop\n    /* \"#utility.yul\":4561:4565   */\n  0x20\n    /* \"#utility.yul\":4558:4559   */\n  dup2\n    /* \"#utility.yul\":4554:4566   */\n  add\n    /* \"#utility.yul\":4549:4566   */\n  swap1\n  pop\n    /* \"#utility.yul\":4524:4732   */\n  jump(tag_84)\ntag_86:\n    /* \"#utility.yul\":4760:4766   */\n  dup7\n    /* \"#utility.yul\":4751:4758   */\n  dup4\n    /* \"#utility.yul\":4748:4767   */\n  lt\n    /* \"#utility.yul\":4745:4924   */\n  iszero\n  tag_87\n  jumpi\n    /* \"#utility.yul\":4818:4827   */\n  dup5\n    /* \"#utility.yul\":4813:4816   */\n  dup10\n    /* \"#utility.yul\":4809:4828   */\n  add\n    /* \"#utility.yul\":4803:4829   */\n  mload\n    /* \"#utility.yul\":4861:4909   */\n  tag_88\n    /* \"#utility.yul\":4903:4907   */\n  0x1f\n    /* \"#utility.yul\":4895:4901   */\n  dup10\n    /* \"#utility.yul\":4891:4908   */\n  and\n    /* \"#utility.yul\":4880:4889   */\n  dup3\n    /* \"#utility.yul\":4861:4909   */\n  tag_25\n  jump\t// in\ntag_88:\n    /* \"#utility.yul\":4853:4859   */\n  dup4\n    /* \"#utility.yul\":4846:4910   */\n  sstore\n    /* \"#utility.yul\":4768:4924   */\n  pop\n    /* \"#utility.yul\":4745:4924   */\ntag_87:\n    /* \"#utility.yul\":4970:4971   */\n  0x01\n    /* \"#utility.yul\":4966:4967   */\n  0x02\n    /* \"#utility.yul\":4958:4964   */\n  dup9\n    /* \"#utility.yul\":4954:4968   */\n  mul\n    /* \"#utility.yul\":4950:4972   */\n  add\n    /* \"#utility.yul\":4944:4948   */\n  dup9\n    /* \"#utility.yul\":4937:4973   */\n  sstore\n    /* \"#utility.yul\":4372:4983   */\n  pop\n  pop\n  pop\n    /* \"#utility.yul\":4335:5222   */\ntag_79:\n  pop\n    /* \"#utility.yul\":3925:5228   */\n  pop\n  pop\n  pop\n    /* \"#utility.yul\":3833:5228   */\n  pop\n  pop\n  jump\t// out\n    /* \"contracts/HelloWorld.sol\":60:1568  contract HelloWorld {... */\ntag_6:\n  dataSize(sub_0)\n  dup1\n  dataOffset(sub_0)\n  0x00\n  codecopy\n  0x00\n  return\nstop\n\nsub_0: assembly {\n        /* \"contracts/HelloWorld.sol\":60:1568  contract HelloWorld {... */\n      mstore(0x40, 0x80)\n      callvalue\n      dup1\n      iszero\n      tag_1\n      jumpi\n      revert(0x00, 0x00)\n    tag_1:\n      pop\n      jumpi(tag_2, lt(calldatasize, 0x04))\n      shr(0xe0, calldataload(0x00))\n      dup1\n      0x0fb56b8b\n      eq\n      tag_3\n      jumpi\n      dup1\n      0x368b8772\n      eq\n      tag_4\n      jumpi\n      dup1\n      0x51647b89\n      eq\n      tag_5\n      jumpi\n      dup1\n      0x98d63d3d\n      eq\n      tag_6\n      jumpi\n      dup1\n      0xce6d41de\n      eq\n      tag_7\n      jumpi\n      dup1\n      0xfaa7d6c7\n      eq\n      tag_8\n      jumpi\n    tag_2:\n      revert(0x00, 0x00)\n        /* \"contracts/HelloWorld.sol\":702:800  function getMessageCounter() public view returns (uint256){... */\n    tag_3:\n      tag_9\n      tag_10\n      jump\t// in\n    tag_9:\n      mload(0x40)\n      tag_11\n      swap2\n      swap1\n      tag_12\n      jump\t// in\n    tag_11:\n      mload(0x40)\n      dup1\n      swap2\n      sub\n      swap1\n      return\n        /* \"contracts/HelloWorld.sol\":520:689  function setMessage(string memory newMessage) public{... */\n    tag_4:\n      tag_13\n      0x04\n      dup1\n      calldatasize\n      sub\n      dup2\n      add\n      swap1\n      tag_14\n      swap2\n      swap1\n      tag_15\n      jump\t// in\n    tag_14:\n      tag_16\n      jump\t// in\n    tag_13:\n      stop\n        /* \"contracts/HelloWorld.sol\":934:1076  function storeUserMessage(string memory userMessage) public {... */\n    tag_5:\n      tag_17\n      0x04\n      dup1\n      calldatasize\n      sub\n      dup2\n      add\n      swap1\n      tag_18\n      swap2\n      swap1\n      tag_15\n      jump\t// in\n    tag_18:\n      tag_19\n      jump\t// in\n    tag_17:\n      stop\n        /* \"contracts/HelloWorld.sol\":808:926  function getUserMessages(address user) public view returns (string memory){... */\n    tag_6:\n      tag_20\n      0x04\n      dup1\n      calldatasize\n      sub\n      dup2\n      add\n      swap1\n      tag_21\n      swap2\n      swap1\n      tag_22\n      jump\t// in\n    tag_21:\n      tag_23\n      jump\t// in\n    tag_20:\n      mload(0x40)\n      tag_24\n      swap2\n      swap1\n      tag_25\n      jump\t// in\n    tag_24:\n      mload(0x40)\n      dup1\n      swap2\n      sub\n      swap1\n      return\n        /* \"contracts/HelloWorld.sol\":422:512  function getMessage() public view returns (string memory){... */\n    tag_7:\n      tag_26\n      tag_27\n      jump\t// in\n    tag_26:\n      mload(0x40)\n      tag_28\n      swap2\n      swap1\n      tag_25\n      jump\t// in\n    tag_28:\n      mload(0x40)\n      dup1\n      swap2\n      sub\n      swap1\n      return\n        /* \"contracts/HelloWorld.sol\":1084:1565  function combineMessages() public returns (string memory){... */\n    tag_8:\n      tag_29\n      tag_30\n      jump\t// in\n    tag_29:\n      mload(0x40)\n      tag_31\n      swap2\n      swap1\n      tag_25\n      jump\t// in\n    tag_31:\n      mload(0x40)\n      dup1\n      swap2\n      sub\n      swap1\n      return\n        /* \"contracts/HelloWorld.sol\":702:800  function getMessageCounter() public view returns (uint256){... */\n    tag_10:\n        /* \"contracts/HelloWorld.sol\":752:759  uint256 */\n      0x00\n        /* \"contracts/HelloWorld.sol\":778:792  messageCounter */\n      sload(0x01)\n        /* \"contracts/HelloWorld.sol\":771:792  return messageCounter */\n      swap1\n      pop\n        /* \"contracts/HelloWorld.sol\":702:800  function getMessageCounter() public view returns (uint256){... */\n      swap1\n      jump\t// out\n        /* \"contracts/HelloWorld.sol\":520:689  function setMessage(string memory newMessage) public{... */\n    tag_16:\n        /* \"contracts/HelloWorld.sol\":591:601  newMessage */\n      dup1\n        /* \"contracts/HelloWorld.sol\":583:590  message */\n      0x00\n        /* \"contracts/HelloWorld.sol\":583:601  message=newMessage */\n      swap1\n      dup2\n      tag_34\n      swap2\n      swap1\n      tag_35\n      jump\t// in\n    tag_34:\n      pop\n        /* \"contracts/HelloWorld.sol\":612:626  messageCounter */\n      0x01\n      0x00\n        /* \"contracts/HelloWorld.sol\":612:628  messageCounter++ */\n      dup2\n      sload\n      dup1\n      swap3\n      swap2\n      swap1\n      tag_36\n      swap1\n      tag_37\n      jump\t// in\n    tag_36:\n      swap2\n      swap1\n      pop\n      sstore\n      pop\n        /* \"contracts/HelloWorld.sol\":644:681  MessageUpdate(newMessage, msg.sender) */\n      0xd44ea1cbddae5ccfe1e125c815193649e5834fa36c7257630c005d519f4bd3e4\n        /* \"contracts/HelloWorld.sol\":658:668  newMessage */\n      dup2\n        /* \"contracts/HelloWorld.sol\":670:680  msg.sender */\n      caller\n        /* \"contracts/HelloWorld.sol\":644:681  MessageUpdate(newMessage, msg.sender) */\n      mload(0x40)\n      tag_38\n      swap3\n      swap2\n      swap1\n      tag_39\n      jump\t// in\n    tag_38:\n      mload(0x40)\n      dup1\n      swap2\n      sub\n      swap1\n      log1\n        /* \"contracts/HelloWorld.sol\":520:689  function setMessage(string memory newMessage) public{... */\n      pop\n      jump\t// out\n        /* \"contracts/HelloWorld.sol\":934:1076  function storeUserMessage(string memory userMessage) public {... */\n    tag_19:\n        /* \"contracts/HelloWorld.sol\":1030:1041  userMessage */\n      dup1\n        /* \"contracts/HelloWorld.sol\":1005:1017  userMessages */\n      0x02\n        /* \"contracts/HelloWorld.sol\":1005:1029  userMessages[msg.sender] */\n      0x00\n        /* \"contracts/HelloWorld.sol\":1018:1028  msg.sender */\n      caller\n        /* \"contracts/HelloWorld.sol\":1005:1029  userMessages[msg.sender] */\n      0xffffffffffffffffffffffffffffffffffffffff\n      and\n      0xffffffffffffffffffffffffffffffffffffffff\n      and\n      dup2\n      mstore\n      0x20\n      add\n      swap1\n      dup2\n      mstore\n      0x20\n      add\n      0x00\n      keccak256\n        /* \"contracts/HelloWorld.sol\":1005:1041  userMessages[msg.sender]=userMessage */\n      swap1\n      dup2\n      tag_41\n      swap2\n      swap1\n      tag_35\n      jump\t// in\n    tag_41:\n      pop\n        /* \"contracts/HelloWorld.sol\":1052:1066  messageCounter */\n      0x01\n      0x00\n        /* \"contracts/HelloWorld.sol\":1052:1068  messageCounter++ */\n      dup2\n      sload\n      dup1\n      swap3\n      swap2\n      swap1\n      tag_42\n      swap1\n      tag_37\n      jump\t// in\n    tag_42:\n      swap2\n      swap1\n      pop\n      sstore\n      pop\n        /* \"contracts/HelloWorld.sol\":934:1076  function storeUserMessage(string memory userMessage) public {... */\n      pop\n      jump\t// out\n        /* \"contracts/HelloWorld.sol\":808:926  function getUserMessages(address user) public view returns (string memory){... */\n    tag_23:\n        /* \"contracts/HelloWorld.sol\":868:881  string memory */\n      0x60\n        /* \"contracts/HelloWorld.sol\":900:912  userMessages */\n      0x02\n        /* \"contracts/HelloWorld.sol\":900:918  userMessages[user] */\n      0x00\n        /* \"contracts/HelloWorld.sol\":913:917  user */\n      dup4\n        /* \"contracts/HelloWorld.sol\":900:918  userMessages[user] */\n      0xffffffffffffffffffffffffffffffffffffffff\n      and\n      0xffffffffffffffffffffffffffffffffffffffff\n      and\n      dup2\n      mstore\n      0x20\n      add\n      swap1\n      dup2\n      mstore\n      0x20\n      add\n      0x00\n      keccak256\n        /* \"contracts/HelloWorld.sol\":893:918  return userMessages[user] */\n      dup1\n      sload\n      tag_44\n      swap1\n      tag_45\n      jump\t// in\n    tag_44:\n      dup1\n      0x1f\n      add\n      0x20\n      dup1\n      swap2\n      div\n      mul\n      0x20\n      add\n      mload(0x40)\n      swap1\n      dup2\n      add\n      0x40\n      mstore\n      dup1\n      swap3\n      swap2\n      swap1\n      dup2\n      dup2\n      mstore\n      0x20\n      add\n      dup3\n      dup1\n      sload\n      tag_46\n      swap1\n      tag_45\n      jump\t// in\n    tag_46:\n      dup1\n      iszero\n      tag_47\n      jumpi\n      dup1\n      0x1f\n      lt\n      tag_48\n      jumpi\n      0x0100\n      dup1\n      dup4\n      sload\n      div\n      mul\n      dup4\n      mstore\n      swap2\n      0x20\n      add\n      swap2\n      jump(tag_47)\n    tag_48:\n      dup3\n      add\n      swap2\n      swap1\n      0x00\n      mstore\n      keccak256(0x00, 0x20)\n      swap1\n    tag_49:\n      dup2\n      sload\n      dup2\n      mstore\n      swap1\n      0x01\n      add\n      swap1\n      0x20\n      add\n      dup1\n      dup4\n      gt\n      tag_49\n      jumpi\n      dup3\n      swap1\n      sub\n      0x1f\n      and\n      dup3\n      add\n      swap2\n    tag_47:\n      pop\n      pop\n      pop\n      pop\n      pop\n      swap1\n      pop\n        /* \"contracts/HelloWorld.sol\":808:926  function getUserMessages(address user) public view returns (string memory){... */\n      swap2\n      swap1\n      pop\n      jump\t// out\n        /* \"contracts/HelloWorld.sol\":422:512  function getMessage() public view returns (string memory){... */\n    tag_27:\n        /* \"contracts/HelloWorld.sol\":465:478  string memory */\n      0x60\n        /* \"contracts/HelloWorld.sol\":497:504  message */\n      0x00\n        /* \"contracts/HelloWorld.sol\":490:504  return message */\n      dup1\n      sload\n      tag_51\n      swap1\n      tag_45\n      jump\t// in\n    tag_51:\n      dup1\n      0x1f\n      add\n      0x20\n      dup1\n      swap2\n      div\n      mul\n      0x20\n      add\n      mload(0x40)\n      swap1\n      dup2\n      add\n      0x40\n      mstore\n      dup1\n      swap3\n      swap2\n      swap1\n      dup2\n      dup2\n      mstore\n      0x20\n      add\n      dup3\n      dup1\n      sload\n      tag_52\n      swap1\n      tag_45\n      jump\t// in\n    tag_52:\n      dup1\n      iszero\n      tag_53\n      jumpi\n      dup1\n      0x1f\n      lt\n      tag_54\n      jumpi\n      0x0100\n      dup1\n      dup4\n      sload\n      div\n      mul\n      dup4\n      mstore\n      swap2\n      0x20\n      add\n      swap2\n      jump(tag_53)\n    tag_54:\n      dup3\n      add\n      swap2\n      swap1\n      0x00\n      mstore\n      keccak256(0x00, 0x20)\n      swap1\n    tag_55:\n      dup2\n      sload\n      dup2\n      mstore\n      swap1\n      0x01\n      add\n      swap1\n      0x20\n      add\n      dup1\n      dup4\n      gt\n      tag_55\n      jumpi\n      dup3\n      swap1\n      sub\n      0x1f\n      and\n      dup3\n      add\n      swap2\n    tag_53:\n      pop\n      pop\n      pop\n      pop\n      pop\n      swap1\n      pop\n        /* \"contracts/HelloWorld.sol\":422:512  function getMessage() public view returns (string memory){... */\n      swap1\n      jump\t// out\n        /* \"contracts/HelloWorld.sol\":1084:1565  function combineMessages() public returns (string memory){... */\n    tag_30:\n        /* \"contracts/HelloWorld.sol\":1127:1140  string memory */\n      0x60\n        /* \"contracts/HelloWorld.sol\":1211:1212  0 */\n      0x00\n        /* \"contracts/HelloWorld.sol\":1176:1188  userMessages */\n      0x02\n        /* \"contracts/HelloWorld.sol\":1176:1200  userMessages[msg.sender] */\n      0x00\n        /* \"contracts/HelloWorld.sol\":1189:1199  msg.sender */\n      caller\n        /* \"contracts/HelloWorld.sol\":1176:1200  userMessages[msg.sender] */\n      0xffffffffffffffffffffffffffffffffffffffff\n      and\n      0xffffffffffffffffffffffffffffffffffffffff\n      and\n      dup2\n      mstore\n      0x20\n      add\n      swap1\n      dup2\n      mstore\n      0x20\n      add\n      0x00\n      keccak256\n        /* \"contracts/HelloWorld.sol\":1170:1208  bytes(userMessages[msg.sender]).length */\n      dup1\n      sload\n      tag_57\n      swap1\n      tag_45\n      jump\t// in\n    tag_57:\n      swap1\n      pop\n        /* \"contracts/HelloWorld.sol\":1170:1212  bytes(userMessages[msg.sender]).length > 0 */\n      gt\n        /* \"contracts/HelloWorld.sol\":1162:1232  require(bytes(userMessages[msg.sender]).length > 0, \"No user Message\") */\n      tag_58\n      jumpi\n      mload(0x40)\n      0x08c379a000000000000000000000000000000000000000000000000000000000\n      dup2\n      mstore\n      0x04\n      add\n      tag_59\n      swap1\n      tag_60\n      jump\t// in\n    tag_59:\n      mload(0x40)\n      dup1\n      swap2\n      sub\n      swap1\n      revert\n    tag_58:\n        /* \"contracts/HelloWorld.sol\":1245:1267  string memory combined */\n      0x00\n        /* \"contracts/HelloWorld.sol\":1324:1331  message */\n      0x00\n        /* \"contracts/HelloWorld.sol\":1374:1386  userMessages */\n      0x02\n        /* \"contracts/HelloWorld.sol\":1374:1398  userMessages[msg.sender] */\n      0x00\n        /* \"contracts/HelloWorld.sol\":1387:1397  msg.sender */\n      caller\n        /* \"contracts/HelloWorld.sol\":1374:1398  userMessages[msg.sender] */\n      0xffffffffffffffffffffffffffffffffffffffff\n      and\n      0xffffffffffffffffffffffffffffffffffffffff\n      and\n      dup2\n      mstore\n      0x20\n      add\n      swap1\n      dup2\n      mstore\n      0x20\n      add\n      0x00\n      keccak256\n        /* \"contracts/HelloWorld.sol\":1289:1413  abi.encodePacked(... */\n      add(0x20, mload(0x40))\n      tag_61\n      swap3\n      swap2\n      swap1\n      tag_62\n      jump\t// in\n    tag_61:\n      mload(0x40)\n      0x20\n      dup2\n      dup4\n      sub\n      sub\n      dup2\n      mstore\n      swap1\n      0x40\n      mstore\n        /* \"contracts/HelloWorld.sol\":1245:1424  string memory combined=string(... */\n      swap1\n      pop\n        /* \"contracts/HelloWorld.sol\":1445:1453  combined */\n      dup1\n        /* \"contracts/HelloWorld.sol\":1435:1442  message */\n      0x00\n        /* \"contracts/HelloWorld.sol\":1435:1453  message = combined */\n      swap1\n      dup2\n      tag_63\n      swap2\n      swap1\n      tag_35\n      jump\t// in\n    tag_63:\n      pop\n        /* \"contracts/HelloWorld.sol\":1464:1478  messageCounter */\n      0x01\n      0x00\n        /* \"contracts/HelloWorld.sol\":1464:1480  messageCounter++ */\n      dup2\n      sload\n      dup1\n      swap3\n      swap2\n      swap1\n      tag_64\n      swap1\n      tag_37\n      jump\t// in\n    tag_64:\n      swap2\n      swap1\n      pop\n      sstore\n      pop\n        /* \"contracts/HelloWorld.sol\":1496:1531  MessageUpdate(combined, msg.sender) */\n      0xd44ea1cbddae5ccfe1e125c815193649e5834fa36c7257630c005d519f4bd3e4\n        /* \"contracts/HelloWorld.sol\":1510:1518  combined */\n      dup2\n        /* \"contracts/HelloWorld.sol\":1520:1530  msg.sender */\n      caller\n        /* \"contracts/HelloWorld.sol\":1496:1531  MessageUpdate(combined, msg.sender) */\n      mload(0x40)\n      tag_65\n      swap3\n      swap2\n      swap1\n      tag_39\n      jump\t// in\n    tag_65:\n      mload(0x40)\n      dup1\n      swap2\n      sub\n      swap1\n      log1\n        /* \"contracts/HelloWorld.sol\":1549:1557  combined */\n      dup1\n        /* \"contracts/HelloWorld.sol\":1542:1557  return combined */\n      swap2\n      pop\n      pop\n        /* \"contracts/HelloWorld.sol\":1084:1565  function combineMessages() public returns (string memory){... */\n      swap1\n      jump\t// out\n        /* \"#utility.yul\":7:84   */\n    tag_66:\n        /* \"#utility.yul\":44:51   */\n      0x00\n        /* \"#utility.yul\":73:78   */\n      dup2\n        /* \"#utility.yul\":62:78   */\n      swap1\n      pop\n        /* \"#utility.yul\":7:84   */\n      swap2\n      swap1\n      pop\n      jump\t// out\n        /* \"#utility.yul\":90:208   */\n    tag_67:\n        /* \"#utility.yul\":177:201   */\n      tag_116\n        /* \"#utility.yul\":195:200   */\n      dup2\n        /* \"#utility.yul\":177:201   */\n      tag_66\n      jump\t// in\n    tag_116:\n        /* \"#utility.yul\":172:175   */\n      dup3\n        /* \"#utility.yul\":165:202   */\n      mstore\n        /* \"#utility.yul\":90:208   */\n      pop\n      pop\n      jump\t// out\n        /* \"#utility.yul\":214:436   */\n    tag_12:\n        /* \"#utility.yul\":307:311   */\n      0x00\n        /* \"#utility.yul\":345:347   */\n      0x20\n        /* \"#utility.yul\":334:343   */\n      dup3\n        /* \"#utility.yul\":330:348   */\n      add\n        /* \"#utility.yul\":322:348   */\n      swap1\n      pop\n        /* \"#utility.yul\":358:429   */\n      tag_118\n        /* \"#utility.yul\":426:427   */\n      0x00\n        /* \"#utility.yul\":415:424   */\n      dup4\n        /* \"#utility.yul\":411:428   */\n      add\n        /* \"#utility.yul\":402:408   */\n      dup5\n        /* \"#utility.yul\":358:429   */\n      tag_67\n      jump\t// in\n    tag_118:\n        /* \"#utility.yul\":214:436   */\n      swap3\n      swap2\n      pop\n      pop\n      jump\t// out\n        /* \"#utility.yul\":442:517   */\n    tag_68:\n        /* \"#utility.yul\":475:481   */\n      0x00\n        /* \"#utility.yul\":508:510   */\n      0x40\n        /* \"#utility.yul\":502:511   */\n      mload\n        /* \"#utility.yul\":492:511   */\n      swap1\n      pop\n        /* \"#utility.yul\":442:517   */\n      swap1\n      jump\t// out\n        /* \"#utility.yul\":523:640   */\n    tag_69:\n        /* \"#utility.yul\":632:633   */\n      0x00\n        /* \"#utility.yul\":629:630   */\n      0x00\n        /* \"#utility.yul\":622:634   */\n      revert\n        /* \"#utility.yul\":646:763   */\n    tag_70:\n        /* \"#utility.yul\":755:756   */\n      0x00\n        /* \"#utility.yul\":752:753   */\n      0x00\n        /* \"#utility.yul\":745:757   */\n      revert\n        /* \"#utility.yul\":769:886   */\n    tag_71:\n        /* \"#utility.yul\":878:879   */\n      0x00\n        /* \"#utility.yul\":875:876   */\n      0x00\n        /* \"#utility.yul\":868:880   */\n      revert\n        /* \"#utility.yul\":892:1009   */\n    tag_72:\n        /* \"#utility.yul\":1001:1002   */\n      0x00\n        /* \"#utility.yul\":998:999   */\n      0x00\n        /* \"#utility.yul\":991:1003   */\n      revert\n        /* \"#utility.yul\":1015:1117   */\n    tag_73:\n        /* \"#utility.yul\":1056:1062   */\n      0x00\n        /* \"#utility.yul\":1107:1109   */\n      0x1f\n        /* \"#utility.yul\":1103:1110   */\n      not\n        /* \"#utility.yul\":1098:1100   */\n      0x1f\n        /* \"#utility.yul\":1091:1096   */\n      dup4\n        /* \"#utility.yul\":1087:1101   */\n      add\n        /* \"#utility.yul\":1083:1111   */\n      and\n        /* \"#utility.yul\":1073:1111   */\n      swap1\n      pop\n        /* \"#utility.yul\":1015:1117   */\n      swap2\n      swap1\n      pop\n      jump\t// out\n        /* \"#utility.yul\":1123:1303   */\n    tag_74:\n        /* \"#utility.yul\":1171:1248   */\n      0x4e487b7100000000000000000000000000000000000000000000000000000000\n        /* \"#utility.yul\":1168:1169   */\n      0x00\n        /* \"#utility.yul\":1161:1249   */\n      mstore\n        /* \"#utility.yul\":1268:1272   */\n      0x41\n        /* \"#utility.yul\":1265:1266   */\n      0x04\n        /* \"#utility.yul\":1258:1273   */\n      mstore\n        /* \"#utility.yul\":1292:1296   */\n      0x24\n        /* \"#utility.yul\":1289:1290   */\n      0x00\n        /* \"#utility.yul\":1282:1297   */\n      revert\n        /* \"#utility.yul\":1309:1590   */\n    tag_75:\n        /* \"#utility.yul\":1392:1419   */\n      tag_127\n        /* \"#utility.yul\":1414:1418   */\n      dup3\n        /* \"#utility.yul\":1392:1419   */\n      tag_73\n      jump\t// in\n    tag_127:\n        /* \"#utility.yul\":1384:1390   */\n      dup2\n        /* \"#utility.yul\":1380:1420   */\n      add\n        /* \"#utility.yul\":1522:1528   */\n      dup2\n        /* \"#utility.yul\":1510:1520   */\n      dup2\n        /* \"#utility.yul\":1507:1529   */\n      lt\n        /* \"#utility.yul\":1486:1504   */\n      0xffffffffffffffff\n        /* \"#utility.yul\":1474:1484   */\n      dup3\n        /* \"#utility.yul\":1471:1505   */\n      gt\n        /* \"#utility.yul\":1468:1530   */\n      or\n        /* \"#utility.yul\":1465:1553   */\n      iszero\n      tag_128\n      jumpi\n        /* \"#utility.yul\":1533:1551   */\n      tag_129\n      tag_74\n      jump\t// in\n    tag_129:\n        /* \"#utility.yul\":1465:1553   */\n    tag_128:\n        /* \"#utility.yul\":1573:1583   */\n      dup1\n        /* \"#utility.yul\":1569:1571   */\n      0x40\n        /* \"#utility.yul\":1562:1584   */\n      mstore\n        /* \"#utility.yul\":1352:1590   */\n      pop\n        /* \"#utility.yul\":1309:1590   */\n      pop\n      pop\n      jump\t// out\n        /* \"#utility.yul\":1596:1725   */\n    tag_76:\n        /* \"#utility.yul\":1630:1636   */\n      0x00\n        /* \"#utility.yul\":1657:1677   */\n      tag_131\n      tag_68\n      jump\t// in\n    tag_131:\n        /* \"#utility.yul\":1647:1677   */\n      swap1\n      pop\n        /* \"#utility.yul\":1686:1719   */\n      tag_132\n        /* \"#utility.yul\":1714:1718   */\n      dup3\n        /* \"#utility.yul\":1706:1712   */\n      dup3\n        /* \"#utility.yul\":1686:1719   */\n      tag_75\n      jump\t// in\n    tag_132:\n        /* \"#utility.yul\":1596:1725   */\n      swap2\n      swap1\n      pop\n      jump\t// out\n        /* \"#utility.yul\":1731:2039   */\n    tag_77:\n        /* \"#utility.yul\":1793:1797   */\n      0x00\n        /* \"#utility.yul\":1883:1901   */\n      0xffffffffffffffff\n        /* \"#utility.yul\":1875:1881   */\n      dup3\n        /* \"#utility.yul\":1872:1902   */\n      gt\n        /* \"#utility.yul\":1869:1925   */\n      iszero\n      tag_134\n      jumpi\n        /* \"#utility.yul\":1905:1923   */\n      tag_135\n      tag_74\n      jump\t// in\n    tag_135:\n        /* \"#utility.yul\":1869:1925   */\n    tag_134:\n        /* \"#utility.yul\":1943:1972   */\n      tag_136\n        /* \"#utility.yul\":1965:1971   */\n      dup3\n        /* \"#utility.yul\":1943:1972   */\n      tag_73\n      jump\t// in\n    tag_136:\n        /* \"#utility.yul\":1935:1972   */\n      swap1\n      pop\n        /* \"#utility.yul\":2027:2031   */\n      0x20\n        /* \"#utility.yul\":2021:2025   */\n      dup2\n        /* \"#utility.yul\":2017:2032   */\n      add\n        /* \"#utility.yul\":2009:2032   */\n      swap1\n      pop\n        /* \"#utility.yul\":1731:2039   */\n      swap2\n      swap1\n      pop\n      jump\t// out\n        /* \"#utility.yul\":2045:2193   */\n    tag_78:\n        /* \"#utility.yul\":2143:2149   */\n      dup3\n        /* \"#utility.yul\":2138:2141   */\n      dup2\n        /* \"#utility.yul\":2133:2136   */\n      dup4\n        /* \"#utility.yul\":2120:2150   */\n      calldatacopy\n        /* \"#utility.yul\":2184:2185   */\n      0x00\n        /* \"#utility.yul\":2175:2181   */\n      dup4\n        /* \"#utility.yul\":2170:2173   */\n      dup4\n        /* \"#utility.yul\":2166:2182   */\n      add\n        /* \"#utility.yul\":2159:2186   */\n      mstore\n        /* \"#utility.yul\":2045:2193   */\n      pop\n      pop\n      pop\n      jump\t// out\n        /* \"#utility.yul\":2199:2624   */\n    tag_79:\n        /* \"#utility.yul\":2277:2282   */\n      0x00\n        /* \"#utility.yul\":2302:2368   */\n      tag_139\n        /* \"#utility.yul\":2318:2367   */\n      tag_140\n        /* \"#utility.yul\":2360:2366   */\n      dup5\n        /* \"#utility.yul\":2318:2367   */\n      tag_77\n      jump\t// in\n    tag_140:\n        /* \"#utility.yul\":2302:2368   */\n      tag_76\n      jump\t// in\n    tag_139:\n        /* \"#utility.yul\":2293:2368   */\n      swap1\n      pop\n        /* \"#utility.yul\":2391:2397   */\n      dup3\n        /* \"#utility.yul\":2384:2389   */\n      dup2\n        /* \"#utility.yul\":2377:2398   */\n      mstore\n        /* \"#utility.yul\":2429:2433   */\n      0x20\n        /* \"#utility.yul\":2422:2427   */\n      dup2\n        /* \"#utility.yul\":2418:2434   */\n      add\n        /* \"#utility.yul\":2467:2470   */\n      dup5\n        /* \"#utility.yul\":2458:2464   */\n      dup5\n        /* \"#utility.yul\":2453:2456   */\n      dup5\n        /* \"#utility.yul\":2449:2465   */\n      add\n        /* \"#utility.yul\":2446:2471   */\n      gt\n        /* \"#utility.yul\":2443:2555   */\n      iszero\n      tag_141\n      jumpi\n        /* \"#utility.yul\":2474:2553   */\n      tag_142\n      tag_72\n      jump\t// in\n    tag_142:\n        /* \"#utility.yul\":2443:2555   */\n    tag_141:\n        /* \"#utility.yul\":2564:2618   */\n      tag_143\n        /* \"#utility.yul\":2611:2617   */\n      dup5\n        /* \"#utility.yul\":2606:2609   */\n      dup3\n        /* \"#utility.yul\":2601:2604   */\n      dup6\n        /* \"#utility.yul\":2564:2618   */\n      tag_78\n      jump\t// in\n    tag_143:\n        /* \"#utility.yul\":2283:2624   */\n      pop\n        /* \"#utility.yul\":2199:2624   */\n      swap4\n      swap3\n      pop\n      pop\n      pop\n      jump\t// out\n        /* \"#utility.yul\":2644:2984   */\n    tag_80:\n        /* \"#utility.yul\":2700:2705   */\n      0x00\n        /* \"#utility.yul\":2749:2752   */\n      dup3\n        /* \"#utility.yul\":2742:2746   */\n      0x1f\n        /* \"#utility.yul\":2734:2740   */\n      dup4\n        /* \"#utility.yul\":2730:2747   */\n      add\n        /* \"#utility.yul\":2726:2753   */\n      slt\n        /* \"#utility.yul\":2716:2838   */\n      tag_145\n      jumpi\n        /* \"#utility.yul\":2757:2836   */\n      tag_146\n      tag_71\n      jump\t// in\n    tag_146:\n        /* \"#utility.yul\":2716:2838   */\n    tag_145:\n        /* \"#utility.yul\":2874:2880   */\n      dup2\n        /* \"#utility.yul\":2861:2881   */\n      calldataload\n        /* \"#utility.yul\":2899:2978   */\n      tag_147\n        /* \"#utility.yul\":2974:2977   */\n      dup5\n        /* \"#utility.yul\":2966:2972   */\n      dup3\n        /* \"#utility.yul\":2959:2963   */\n      0x20\n        /* \"#utility.yul\":2951:2957   */\n      dup7\n        /* \"#utility.yul\":2947:2964   */\n      add\n        /* \"#utility.yul\":2899:2978   */\n      tag_79\n      jump\t// in\n    tag_147:\n        /* \"#utility.yul\":2890:2978   */\n      swap2\n      pop\n        /* \"#utility.yul\":2706:2984   */\n      pop\n        /* \"#utility.yul\":2644:2984   */\n      swap3\n      swap2\n      pop\n      pop\n      jump\t// out\n        /* \"#utility.yul\":2990:3499   */\n    tag_15:\n        /* \"#utility.yul\":3059:3065   */\n      0x00\n        /* \"#utility.yul\":3108:3110   */\n      0x20\n        /* \"#utility.yul\":3096:3105   */\n      dup3\n        /* \"#utility.yul\":3087:3094   */\n      dup5\n        /* \"#utility.yul\":3083:3106   */\n      sub\n        /* \"#utility.yul\":3079:3111   */\n      slt\n        /* \"#utility.yul\":3076:3195   */\n      iszero\n      tag_149\n      jumpi\n        /* \"#utility.yul\":3114:3193   */\n      tag_150\n      tag_69\n      jump\t// in\n    tag_150:\n        /* \"#utility.yul\":3076:3195   */\n    tag_149:\n        /* \"#utility.yul\":3262:3263   */\n      0x00\n        /* \"#utility.yul\":3251:3260   */\n      dup3\n        /* \"#utility.yul\":3247:3264   */\n      add\n        /* \"#utility.yul\":3234:3265   */\n      calldataload\n        /* \"#utility.yul\":3292:3310   */\n      0xffffffffffffffff\n        /* \"#utility.yul\":3284:3290   */\n      dup2\n        /* \"#utility.yul\":3281:3311   */\n      gt\n        /* \"#utility.yul\":3278:3395   */\n      iszero\n      tag_151\n      jumpi\n        /* \"#utility.yul\":3314:3393   */\n      tag_152\n      tag_70\n      jump\t// in\n    tag_152:\n        /* \"#utility.yul\":3278:3395   */\n    tag_151:\n        /* \"#utility.yul\":3419:3482   */\n      tag_153\n        /* \"#utility.yul\":3474:3481   */\n      dup5\n        /* \"#utility.yul\":3465:3471   */\n      dup3\n        /* \"#utility.yul\":3454:3463   */\n      dup6\n        /* \"#utility.yul\":3450:3472   */\n      add\n        /* \"#utility.yul\":3419:3482   */\n      tag_80\n      jump\t// in\n    tag_153:\n        /* \"#utility.yul\":3409:3482   */\n      swap2\n      pop\n        /* \"#utility.yul\":3205:3492   */\n      pop\n        /* \"#utility.yul\":2990:3499   */\n      swap3\n      swap2\n      pop\n      pop\n      jump\t// out\n        /* \"#utility.yul\":3505:3631   */\n    tag_81:\n        /* \"#utility.yul\":3542:3549   */\n      0x00\n        /* \"#utility.yul\":3582:3624   */\n      0xffffffffffffffffffffffffffffffffffffffff\n        /* \"#utility.yul\":3575:3580   */\n      dup3\n        /* \"#utility.yul\":3571:3625   */\n      and\n        /* \"#utility.yul\":3560:3625   */\n      swap1\n      pop\n        /* \"#utility.yul\":3505:3631   */\n      swap2\n      swap1\n      pop\n      jump\t// out\n        /* \"#utility.yul\":3637:3733   */\n    tag_82:\n        /* \"#utility.yul\":3674:3681   */\n      0x00\n        /* \"#utility.yul\":3703:3727   */\n      tag_156\n        /* \"#utility.yul\":3721:3726   */\n      dup3\n        /* \"#utility.yul\":3703:3727   */\n      tag_81\n      jump\t// in\n    tag_156:\n        /* \"#utility.yul\":3692:3727   */\n      swap1\n      pop\n        /* \"#utility.yul\":3637:3733   */\n      swap2\n      swap1\n      pop\n      jump\t// out\n        /* \"#utility.yul\":3739:3861   */\n    tag_83:\n        /* \"#utility.yul\":3812:3836   */\n      tag_158\n        /* \"#utility.yul\":3830:3835   */\n      dup2\n        /* \"#utility.yul\":3812:3836   */\n      tag_82\n      jump\t// in\n    tag_158:\n        /* \"#utility.yul\":3805:3810   */\n      dup2\n        /* \"#utility.yul\":3802:3837   */\n      eq\n        /* \"#utility.yul\":3792:3855   */\n      tag_159\n      jumpi\n        /* \"#utility.yul\":3851:3852   */\n      0x00\n        /* \"#utility.yul\":3848:3849   */\n      0x00\n        /* \"#utility.yul\":3841:3853   */\n      revert\n        /* \"#utility.yul\":3792:3855   */\n    tag_159:\n        /* \"#utility.yul\":3739:3861   */\n      pop\n      jump\t// out\n        /* \"#utility.yul\":3867:4006   */\n    tag_84:\n        /* \"#utility.yul\":3913:3918   */\n      0x00\n        /* \"#utility.yul\":3951:3957   */\n      dup2\n        /* \"#utility.yul\":3938:3958   */\n      calldataload\n        /* \"#utility.yul\":3929:3958   */\n      swap1\n      pop\n        /* \"#utility.yul\":3967:4000   */\n      tag_161\n        /* \"#utility.yul\":3994:3999   */\n      dup2\n        /* \"#utility.yul\":3967:4000   */\n      tag_83\n      jump\t// in\n    tag_161:\n        /* \"#utility.yul\":3867:4006   */\n      swap3\n      swap2\n      pop\n      pop\n      jump\t// out\n        /* \"#utility.yul\":4012:4341   */\n    tag_22:\n        /* \"#utility.yul\":4071:4077   */\n      0x00\n        /* \"#utility.yul\":4120:4122   */\n      0x20\n        /* \"#utility.yul\":4108:4117   */\n      dup3\n        /* \"#utility.yul\":4099:4106   */\n      dup5\n        /* \"#utility.yul\":4095:4118   */\n      sub\n        /* \"#utility.yul\":4091:4123   */\n      slt\n        /* \"#utility.yul\":4088:4207   */\n      iszero\n      tag_163\n      jumpi\n        /* \"#utility.yul\":4126:4205   */\n      tag_164\n      tag_69\n      jump\t// in\n    tag_164:\n        /* \"#utility.yul\":4088:4207   */\n    tag_163:\n        /* \"#utility.yul\":4246:4247   */\n      0x00\n        /* \"#utility.yul\":4271:4324   */\n      tag_165\n        /* \"#utility.yul\":4316:4323   */\n      dup5\n        /* \"#utility.yul\":4307:4313   */\n      dup3\n        /* \"#utility.yul\":4296:4305   */\n      dup6\n        /* \"#utility.yul\":4292:4314   */\n      add\n        /* \"#utility.yul\":4271:4324   */\n      tag_84\n      jump\t// in\n    tag_165:\n        /* \"#utility.yul\":4261:4324   */\n      swap2\n      pop\n        /* \"#utility.yul\":4217:4334   */\n      pop\n        /* \"#utility.yul\":4012:4341   */\n      swap3\n      swap2\n      pop\n      pop\n      jump\t// out\n        /* \"#utility.yul\":4347:4446   */\n    tag_85:\n        /* \"#utility.yul\":4399:4405   */\n      0x00\n        /* \"#utility.yul\":4433:4438   */\n      dup2\n        /* \"#utility.yul\":4427:4439   */\n      mload\n        /* \"#utility.yul\":4417:4439   */\n      swap1\n      pop\n        /* \"#utility.yul\":4347:4446   */\n      swap2\n      swap1\n      pop\n      jump\t// out\n        /* \"#utility.yul\":4452:4621   */\n    tag_86:\n        /* \"#utility.yul\":4536:4547   */\n      0x00\n        /* \"#utility.yul\":4570:4576   */\n      dup3\n        /* \"#utility.yul\":4565:4568   */\n      dup3\n        /* \"#utility.yul\":4558:4577   */\n      mstore\n        /* \"#utility.yul\":4610:4614   */\n      0x20\n        /* \"#utility.yul\":4605:4608   */\n      dup3\n        /* \"#utility.yul\":4601:4615   */\n      add\n        /* \"#utility.yul\":4586:4615   */\n      swap1\n      pop\n        /* \"#utility.yul\":4452:4621   */\n      swap3\n      swap2\n      pop\n      pop\n      jump\t// out\n        /* \"#utility.yul\":4627:4766   */\n    tag_87:\n        /* \"#utility.yul\":4716:4722   */\n      dup3\n        /* \"#utility.yul\":4711:4714   */\n      dup2\n        /* \"#utility.yul\":4706:4709   */\n      dup4\n        /* \"#utility.yul\":4700:4723   */\n      mcopy\n        /* \"#utility.yul\":4757:4758   */\n      0x00\n        /* \"#utility.yul\":4748:4754   */\n      dup4\n        /* \"#utility.yul\":4743:4746   */\n      dup4\n        /* \"#utility.yul\":4739:4755   */\n      add\n        /* \"#utility.yul\":4732:4759   */\n      mstore\n        /* \"#utility.yul\":4627:4766   */\n      pop\n      pop\n      pop\n      jump\t// out\n        /* \"#utility.yul\":4772:5149   */\n    tag_88:\n        /* \"#utility.yul\":4860:4863   */\n      0x00\n        /* \"#utility.yul\":4888:4927   */\n      tag_170\n        /* \"#utility.yul\":4921:4926   */\n      dup3\n        /* \"#utility.yul\":4888:4927   */\n      tag_85\n      jump\t// in\n    tag_170:\n        /* \"#utility.yul\":4943:5014   */\n      tag_171\n        /* \"#utility.yul\":5007:5013   */\n      dup2\n        /* \"#utility.yul\":5002:5005   */\n      dup6\n        /* \"#utility.yul\":4943:5014   */\n      tag_86\n      jump\t// in\n    tag_171:\n        /* \"#utility.yul\":4936:5014   */\n      swap4\n      pop\n        /* \"#utility.yul\":5023:5088   */\n      tag_172\n        /* \"#utility.yul\":5081:5087   */\n      dup2\n        /* \"#utility.yul\":5076:5079   */\n      dup6\n        /* \"#utility.yul\":5069:5073   */\n      0x20\n        /* \"#utility.yul\":5062:5067   */\n      dup7\n        /* \"#utility.yul\":5058:5074   */\n      add\n        /* \"#utility.yul\":5023:5088   */\n      tag_87\n      jump\t// in\n    tag_172:\n        /* \"#utility.yul\":5113:5142   */\n      tag_173\n        /* \"#utility.yul\":5135:5141   */\n      dup2\n        /* \"#utility.yul\":5113:5142   */\n      tag_73\n      jump\t// in\n    tag_173:\n        /* \"#utility.yul\":5108:5111   */\n      dup5\n        /* \"#utility.yul\":5104:5143   */\n      add\n        /* \"#utility.yul\":5097:5143   */\n      swap2\n      pop\n        /* \"#utility.yul\":4864:5149   */\n      pop\n        /* \"#utility.yul\":4772:5149   */\n      swap3\n      swap2\n      pop\n      pop\n      jump\t// out\n        /* \"#utility.yul\":5155:5468   */\n    tag_25:\n        /* \"#utility.yul\":5268:5272   */\n      0x00\n        /* \"#utility.yul\":5306:5308   */\n      0x20\n        /* \"#utility.yul\":5295:5304   */\n      dup3\n        /* \"#utility.yul\":5291:5309   */\n      add\n        /* \"#utility.yul\":5283:5309   */\n      swap1\n      pop\n        /* \"#utility.yul\":5355:5364   */\n      dup2\n        /* \"#utility.yul\":5349:5353   */\n      dup2\n        /* \"#utility.yul\":5345:5365   */\n      sub\n        /* \"#utility.yul\":5341:5342   */\n      0x00\n        /* \"#utility.yul\":5330:5339   */\n      dup4\n        /* \"#utility.yul\":5326:5343   */\n      add\n        /* \"#utility.yul\":5319:5366   */\n      mstore\n        /* \"#utility.yul\":5383:5461   */\n      tag_175\n        /* \"#utility.yul\":5456:5460   */\n      dup2\n        /* \"#utility.yul\":5447:5453   */\n      dup5\n        /* \"#utility.yul\":5383:5461   */\n      tag_88\n      jump\t// in\n    tag_175:\n        /* \"#utility.yul\":5375:5461   */\n      swap1\n      pop\n        /* \"#utility.yul\":5155:5468   */\n      swap3\n      swap2\n      pop\n      pop\n      jump\t// out\n        /* \"#utility.yul\":5474:5654   */\n    tag_89:\n        /* \"#utility.yul\":5522:5599   */\n      0x4e487b7100000000000000000000000000000000000000000000000000000000\n        /* \"#utility.yul\":5519:5520   */\n      0x00\n        /* \"#utility.yul\":5512:5600   */\n      mstore\n        /* \"#utility.yul\":5619:5623   */\n      0x22\n        /* \"#utility.yul\":5616:5617   */\n      0x04\n        /* \"#utility.yul\":5609:5624   */\n      mstore\n        /* \"#utility.yul\":5643:5647   */\n      0x24\n        /* \"#utility.yul\":5640:5641   */\n      0x00\n        /* \"#utility.yul\":5633:5648   */\n      revert\n        /* \"#utility.yul\":5660:5980   */\n    tag_45:\n        /* \"#utility.yul\":5704:5710   */\n      0x00\n        /* \"#utility.yul\":5741:5742   */\n      0x02\n        /* \"#utility.yul\":5735:5739   */\n      dup3\n        /* \"#utility.yul\":5731:5743   */\n      div\n        /* \"#utility.yul\":5721:5743   */\n      swap1\n      pop\n        /* \"#utility.yul\":5788:5789   */\n      0x01\n        /* \"#utility.yul\":5782:5786   */\n      dup3\n        /* \"#utility.yul\":5778:5790   */\n      and\n        /* \"#utility.yul\":5809:5827   */\n      dup1\n        /* \"#utility.yul\":5799:5880   */\n      tag_178\n      jumpi\n        /* \"#utility.yul\":5865:5869   */\n      0x7f\n        /* \"#utility.yul\":5857:5863   */\n      dup3\n        /* \"#utility.yul\":5853:5870   */\n      and\n        /* \"#utility.yul\":5843:5870   */\n      swap2\n      pop\n        /* \"#utility.yul\":5799:5880   */\n    tag_178:\n        /* \"#utility.yul\":5927:5929   */\n      0x20\n        /* \"#utility.yul\":5919:5925   */\n      dup3\n        /* \"#utility.yul\":5916:5930   */\n      lt\n        /* \"#utility.yul\":5896:5914   */\n      dup2\n        /* \"#utility.yul\":5893:5931   */\n      sub\n        /* \"#utility.yul\":5890:5974   */\n      tag_179\n      jumpi\n        /* \"#utility.yul\":5946:5964   */\n      tag_180\n      tag_89\n      jump\t// in\n    tag_180:\n        /* \"#utility.yul\":5890:5974   */\n    tag_179:\n        /* \"#utility.yul\":5711:5980   */\n      pop\n        /* \"#utility.yul\":5660:5980   */\n      swap2\n      swap1\n      pop\n      jump\t// out\n        /* \"#utility.yul\":5986:6127   */\n    tag_90:\n        /* \"#utility.yul\":6035:6039   */\n      0x00\n        /* \"#utility.yul\":6058:6061   */\n      dup2\n        /* \"#utility.yul\":6050:6061   */\n      swap1\n      pop\n        /* \"#utility.yul\":6081:6084   */\n      dup2\n        /* \"#utility.yul\":6078:6079   */\n      0x00\n        /* \"#utility.yul\":6071:6085   */\n      mstore\n        /* \"#utility.yul\":6115:6119   */\n      0x20\n        /* \"#utility.yul\":6112:6113   */\n      0x00\n        /* \"#utility.yul\":6102:6120   */\n      keccak256\n        /* \"#utility.yul\":6094:6120   */\n      swap1\n      pop\n        /* \"#utility.yul\":5986:6127   */\n      swap2\n      swap1\n      pop\n      jump\t// out\n        /* \"#utility.yul\":6133:6226   */\n    tag_91:\n        /* \"#utility.yul\":6170:6176   */\n      0x00\n        /* \"#utility.yul\":6217:6219   */\n      0x20\n        /* \"#utility.yul\":6212:6214   */\n      0x1f\n        /* \"#utility.yul\":6205:6210   */\n      dup4\n        /* \"#utility.yul\":6201:6215   */\n      add\n        /* \"#utility.yul\":6197:6220   */\n      div\n        /* \"#utility.yul\":6187:6220   */\n      swap1\n      pop\n        /* \"#utility.yul\":6133:6226   */\n      swap2\n      swap1\n      pop\n      jump\t// out\n        /* \"#utility.yul\":6232:6339   */\n    tag_92:\n        /* \"#utility.yul\":6276:6284   */\n      0x00\n        /* \"#utility.yul\":6326:6331   */\n      dup3\n        /* \"#utility.yul\":6320:6324   */\n      dup3\n        /* \"#utility.yul\":6316:6332   */\n      shl\n        /* \"#utility.yul\":6295:6332   */\n      swap1\n      pop\n        /* \"#utility.yul\":6232:6339   */\n      swap3\n      swap2\n      pop\n      pop\n      jump\t// out\n        /* \"#utility.yul\":6345:6738   */\n    tag_93:\n        /* \"#utility.yul\":6414:6420   */\n      0x00\n        /* \"#utility.yul\":6464:6465   */\n      0x08\n        /* \"#utility.yul\":6452:6462   */\n      dup4\n        /* \"#utility.yul\":6448:6466   */\n      mul\n        /* \"#utility.yul\":6487:6584   */\n      tag_185\n        /* \"#utility.yul\":6517:6583   */\n      0xffffffffffffffffffffffffffffffffffffffffffffffffffffffffffffffff\n        /* \"#utility.yul\":6506:6515   */\n      dup3\n        /* \"#utility.yul\":6487:6584   */\n      tag_92\n      jump\t// in\n    tag_185:\n        /* \"#utility.yul\":6605:6644   */\n      tag_186\n        /* \"#utility.yul\":6635:6643   */\n      dup7\n        /* \"#utility.yul\":6624:6633   */\n      dup4\n        /* \"#utility.yul\":6605:6644   */\n      tag_92\n      jump\t// in\n    tag_186:\n        /* \"#utility.yul\":6593:6644   */\n      swap6\n      pop\n        /* \"#utility.yul\":6677:6681   */\n      dup1\n        /* \"#utility.yul\":6673:6682   */\n      not\n        /* \"#utility.yul\":6666:6671   */\n      dup5\n        /* \"#utility.yul\":6662:6683   */\n      and\n        /* \"#utility.yul\":6653:6683   */\n      swap4\n      pop\n        /* \"#utility.yul\":6726:6730   */\n      dup1\n        /* \"#utility.yul\":6716:6724   */\n      dup7\n        /* \"#utility.yul\":6712:6731   */\n      and\n        /* \"#utility.yul\":6705:6710   */\n      dup5\n        /* \"#utility.yul\":6702:6732   */\n      or\n        /* \"#utility.yul\":6692:6732   */\n      swap3\n      pop\n        /* \"#utility.yul\":6421:6738   */\n      pop\n      pop\n        /* \"#utility.yul\":6345:6738   */\n      swap4\n      swap3\n      pop\n      pop\n      pop\n      jump\t// out\n        /* \"#utility.yul\":6744:6804   */\n    tag_94:\n        /* \"#utility.yul\":6772:6775   */\n      0x00\n        /* \"#utility.yul\":6793:6798   */\n      dup2\n        /* \"#utility.yul\":6786:6798   */\n      swap1\n      pop\n        /* \"#utility.yul\":6744:6804   */\n      swap2\n      swap1\n      pop\n      jump\t// out\n        /* \"#utility.yul\":6810:6952   */\n    tag_95:\n        /* \"#utility.yul\":6860:6869   */\n      0x00\n        /* \"#utility.yul\":6893:6946   */\n      tag_189\n        /* \"#utility.yul\":6911:6945   */\n      tag_190\n        /* \"#utility.yul\":6920:6944   */\n      tag_191\n        /* \"#utility.yul\":6938:6943   */\n      dup5\n        /* \"#utility.yul\":6920:6944   */\n      tag_66\n      jump\t// in\n    tag_191:\n        /* \"#utility.yul\":6911:6945   */\n      tag_94\n      jump\t// in\n    tag_190:\n        /* \"#utility.yul\":6893:6946   */\n      tag_66\n      jump\t// in\n    tag_189:\n        /* \"#utility.yul\":6880:6946   */\n      swap1\n      pop\n        /* \"#utility.yul\":6810:6952   */\n      swap2\n      swap1\n      pop\n      jump\t// out\n        /* \"#utility.yul\":6958:7033   */\n    tag_96:\n        /* \"#utility.yul\":7001:7004   */\n      0x00\n        /* \"#utility.yul\":7022:7027   */\n      dup2\n        /* \"#utility.yul\":7015:7027   */\n      swap1\n      pop\n        /* \"#utility.yul\":6958:7033   */\n      swap2\n      swap1\n      pop\n      jump\t// out\n        /* \"#utility.yul\":7039:7308   */\n    tag_97:\n        /* \"#utility.yul\":7149:7188   */\n      tag_194\n        /* \"#utility.yul\":7180:7187   */\n      dup4\n        /* \"#utility.yul\":7149:7188   */\n      tag_95\n      jump\t// in\n    tag_194:\n        /* \"#utility.yul\":7210:7301   */\n      tag_195\n        /* \"#utility.yul\":7259:7300   */\n      tag_196\n        /* \"#utility.yul\":7283:7299   */\n      dup3\n        /* \"#utility.yul\":7259:7300   */\n      tag_96\n      jump\t// in\n    tag_196:\n        /* \"#utility.yul\":7251:7257   */\n      dup5\n        /* \"#utility.yul\":7244:7248   */\n      dup5\n        /* \"#utility.yul\":7238:7249   */\n      sload\n        /* \"#utility.yul\":7210:7301   */\n      tag_93\n      jump\t// in\n    tag_195:\n        /* \"#utility.yul\":7204:7208   */\n      dup3\n        /* \"#utility.yul\":7197:7302   */\n      sstore\n        /* \"#utility.yul\":7115:7308   */\n      pop\n        /* \"#utility.yul\":7039:7308   */\n      pop\n      pop\n      pop\n      jump\t// out\n        /* \"#utility.yul\":7314:7387   */\n    tag_98:\n        /* \"#utility.yul\":7359:7362   */\n      0x00\n        /* \"#utility.yul\":7380:7381   */\n      0x00\n        /* \"#utility.yul\":7373:7381   */\n      swap1\n      pop\n        /* \"#utility.yul\":7314:7387   */\n      swap1\n      jump\t// out\n        /* \"#utility.yul\":7393:7582   */\n    tag_99:\n        /* \"#utility.yul\":7470:7502   */\n      tag_199\n      tag_98\n      jump\t// in\n    tag_199:\n        /* \"#utility.yul\":7511:7576   */\n      tag_200\n        /* \"#utility.yul\":7569:7575   */\n      dup2\n        /* \"#utility.yul\":7561:7567   */\n      dup5\n        /* \"#utility.yul\":7555:7559   */\n      dup5\n        /* \"#utility.yul\":7511:7576   */\n      tag_97\n      jump\t// in\n    tag_200:\n        /* \"#utility.yul\":7446:7582   */\n      pop\n        /* \"#utility.yul\":7393:7582   */\n      pop\n      pop\n      jump\t// out\n        /* \"#utility.yul\":7588:7774   */\n    tag_100:\n        /* \"#utility.yul\":7648:7768   */\n    tag_202:\n        /* \"#utility.yul\":7665:7668   */\n      dup2\n        /* \"#utility.yul\":7658:7663   */\n      dup2\n        /* \"#utility.yul\":7655:7669   */\n      lt\n        /* \"#utility.yul\":7648:7768   */\n      iszero\n      tag_204\n      jumpi\n        /* \"#utility.yul\":7719:7758   */\n      tag_205\n        /* \"#utility.yul\":7756:7757   */\n      0x00\n        /* \"#utility.yul\":7749:7754   */\n      dup3\n        /* \"#utility.yul\":7719:7758   */\n      tag_99\n      jump\t// in\n    tag_205:\n        /* \"#utility.yul\":7692:7693   */\n      0x01\n        /* \"#utility.yul\":7685:7690   */\n      dup2\n        /* \"#utility.yul\":7681:7694   */\n      add\n        /* \"#utility.yul\":7672:7694   */\n      swap1\n      pop\n        /* \"#utility.yul\":7648:7768   */\n      jump(tag_202)\n    tag_204:\n        /* \"#utility.yul\":7588:7774   */\n      pop\n      pop\n      jump\t// out\n        /* \"#utility.yul\":7780:8323   */\n    tag_101:\n        /* \"#utility.yul\":7881:7883   */\n      0x1f\n        /* \"#utility.yul\":7876:7879   */\n      dup3\n        /* \"#utility.yul\":7873:7884   */\n      gt\n        /* \"#utility.yul\":7870:8316   */\n      iszero\n      tag_207\n      jumpi\n        /* \"#utility.yul\":7915:7953   */\n      tag_208\n        /* \"#utility.yul\":7947:7952   */\n      dup2\n        /* \"#utility.yul\":7915:7953   */\n      tag_90\n      jump\t// in\n    tag_208:\n        /* \"#utility.yul\":7999:8028   */\n      tag_209\n        /* \"#utility.yul\":8017:8027   */\n      dup5\n        /* \"#utility.yul\":7999:8028   */\n      tag_91\n      jump\t// in\n    tag_209:\n        /* \"#utility.yul\":7989:7997   */\n      dup2\n        /* \"#utility.yul\":7985:8029   */\n      add\n        /* \"#utility.yul\":8182:8184   */\n      0x20\n        /* \"#utility.yul\":8170:8180   */\n      dup6\n        /* \"#utility.yul\":8167:8185   */\n      lt\n        /* \"#utility.yul\":8164:8213   */\n      iszero\n      tag_210\n      jumpi\n        /* \"#utility.yul\":8203:8211   */\n      dup2\n        /* \"#utility.yul\":8188:8211   */\n      swap1\n      pop\n        /* \"#utility.yul\":8164:8213   */\n    tag_210:\n        /* \"#utility.yul\":8226:8306   */\n      tag_211\n        /* \"#utility.yul\":8282:8304   */\n      tag_212\n        /* \"#utility.yul\":8300:8303   */\n      dup6\n        /* \"#utility.yul\":8282:8304   */\n      tag_91\n      jump\t// in\n    tag_212:\n        /* \"#utility.yul\":8272:8280   */\n      dup4\n        /* \"#utility.yul\":8268:8305   */\n      add\n        /* \"#utility.yul\":8255:8266   */\n      dup3\n        /* \"#utility.yul\":8226:8306   */\n      tag_100\n      jump\t// in\n    tag_211:\n        /* \"#utility.yul\":7885:8316   */\n      pop\n      pop\n        /* \"#utility.yul\":7870:8316   */\n    tag_207:\n        /* \"#utility.yul\":7780:8323   */\n      pop\n      pop\n      pop\n      jump\t// out\n        /* \"#utility.yul\":8329:8446   */\n    tag_102:\n        /* \"#utility.yul\":8383:8391   */\n      0x00\n        /* \"#utility.yul\":8433:8438   */\n      dup3\n        /* \"#utility.yul\":8427:8431   */\n      dup3\n        /* \"#utility.yul\":8423:8439   */\n      shr\n        /* \"#utility.yul\":8402:8439   */\n      swap1\n      pop\n        /* \"#utility.yul\":8329:8446   */\n      swap3\n      swap2\n      pop\n      pop\n      jump\t// out\n        /* \"#utility.yul\":8452:8621   */\n    tag_103:\n        /* \"#utility.yul\":8496:8502   */\n      0x00\n        /* \"#utility.yul\":8529:8580   */\n      tag_215\n        /* \"#utility.yul\":8577:8578   */\n      0x00\n        /* \"#utility.yul\":8573:8579   */\n      not\n        /* \"#utility.yul\":8565:8570   */\n      dup5\n        /* \"#utility.yul\":8562:8563   */\n      0x08\n        /* \"#utility.yul\":8558:8571   */\n      mul\n        /* \"#utility.yul\":8529:8580   */\n      tag_102\n      jump\t// in\n    tag_215:\n        /* \"#utility.yul\":8525:8581   */\n      not\n        /* \"#utility.yul\":8610:8614   */\n      dup1\n        /* \"#utility.yul\":8604:8608   */\n      dup4\n        /* \"#utility.yul\":8600:8615   */\n      and\n        /* \"#utility.yul\":8590:8615   */\n      swap2\n      pop\n        /* \"#utility.yul\":8503:8621   */\n      pop\n        /* \"#utility.yul\":8452:8621   */\n      swap3\n      swap2\n      pop\n      pop\n      jump\t// out\n        /* \"#utility.yul\":8626:8921   */\n    tag_104:\n        /* \"#utility.yul\":8702:8706   */\n      0x00\n        /* \"#utility.yul\":8848:8877   */\n      tag_217\n        /* \"#utility.yul\":8873:8876   */\n      dup4\n        /* \"#utility.yul\":8867:8871   */\n      dup4\n        /* \"#utility.yul\":8848:8877   */\n      tag_103\n      jump\t// in\n    tag_217:\n        /* \"#utility.yul\":8840:8877   */\n      swap2\n      pop\n        /* \"#utility.yul\":8910:8913   */\n      dup3\n        /* \"#utility.yul\":8907:8908   */\n      0x02\n        /* \"#utility.yul\":8903:8914   */\n      mul\n        /* \"#utility.yul\":8897:8901   */\n      dup3\n        /* \"#utility.yul\":8894:8915   */\n      or\n        /* \"#utility.yul\":8886:8915   */\n      swap1\n      pop\n        /* \"#utility.yul\":8626:8921   */\n      swap3\n      swap2\n      pop\n      pop\n      jump\t// out\n        /* \"#utility.yul\":8926:10321   */\n    tag_35:\n        /* \"#utility.yul\":9043:9080   */\n      tag_219\n        /* \"#utility.yul\":9076:9079   */\n      dup3\n        /* \"#utility.yul\":9043:9080   */\n      tag_85\n      jump\t// in\n    tag_219:\n        /* \"#utility.yul\":9145:9163   */\n      0xffffffffffffffff\n        /* \"#utility.yul\":9137:9143   */\n      dup2\n        /* \"#utility.yul\":9134:9164   */\n      gt\n        /* \"#utility.yul\":9131:9187   */\n      iszero\n      tag_220\n      jumpi\n        /* \"#utility.yul\":9167:9185   */\n      tag_221\n      tag_74\n      jump\t// in\n    tag_221:\n        /* \"#utility.yul\":9131:9187   */\n    tag_220:\n        /* \"#utility.yul\":9211:9249   */\n      tag_222\n        /* \"#utility.yul\":9243:9247   */\n      dup3\n        /* \"#utility.yul\":9237:9248   */\n      sload\n        /* \"#utility.yul\":9211:9249   */\n      tag_45\n      jump\t// in\n    tag_222:\n        /* \"#utility.yul\":9296:9363   */\n      tag_223\n        /* \"#utility.yul\":9356:9362   */\n      dup3\n        /* \"#utility.yul\":9348:9354   */\n      dup3\n        /* \"#utility.yul\":9342:9346   */\n      dup6\n        /* \"#utility.yul\":9296:9363   */\n      tag_101\n      jump\t// in\n    tag_223:\n        /* \"#utility.yul\":9390:9391   */\n      0x00\n        /* \"#utility.yul\":9414:9418   */\n      0x20\n        /* \"#utility.yul\":9401:9418   */\n      swap1\n      pop\n        /* \"#utility.yul\":9446:9448   */\n      0x1f\n        /* \"#utility.yul\":9438:9444   */\n      dup4\n        /* \"#utility.yul\":9435:9449   */\n      gt\n        /* \"#utility.yul\":9463:9464   */\n      0x01\n        /* \"#utility.yul\":9458:10076   */\n      dup2\n      eq\n      tag_225\n      jumpi\n        /* \"#utility.yul\":10120:10121   */\n      0x00\n        /* \"#utility.yul\":10137:10143   */\n      dup5\n        /* \"#utility.yul\":10134:10211   */\n      iszero\n      tag_226\n      jumpi\n        /* \"#utility.yul\":10186:10195   */\n      dup3\n        /* \"#utility.yul\":10181:10184   */\n      dup8\n        /* \"#utility.yul\":10177:10196   */\n      add\n        /* \"#utility.yul\":10171:10197   */\n      mload\n        /* \"#utility.yul\":10162:10197   */\n      swap1\n      pop\n        /* \"#utility.yul\":10134:10211   */\n    tag_226:\n        /* \"#utility.yul\":10237:10304   */\n      tag_227\n        /* \"#utility.yul\":10297:10303   */\n      dup6\n        /* \"#utility.yul\":10290:10295   */\n      dup3\n        /* \"#utility.yul\":10237:10304   */\n      tag_104\n      jump\t// in\n    tag_227:\n        /* \"#utility.yul\":10231:10235   */\n      dup7\n        /* \"#utility.yul\":10224:10305   */\n      sstore\n        /* \"#utility.yul\":10093:10315   */\n      pop\n        /* \"#utility.yul\":9428:10315   */\n      jump(tag_224)\n        /* \"#utility.yul\":9458:10076   */\n    tag_225:\n        /* \"#utility.yul\":9510:9514   */\n      0x1f\n        /* \"#utility.yul\":9506:9515   */\n      not\n        /* \"#utility.yul\":9498:9504   */\n      dup5\n        /* \"#utility.yul\":9494:9516   */\n      and\n        /* \"#utility.yul\":9544:9581   */\n      tag_228\n        /* \"#utility.yul\":9576:9580   */\n      dup7\n        /* \"#utility.yul\":9544:9581   */\n      tag_90\n      jump\t// in\n    tag_228:\n        /* \"#utility.yul\":9603:9604   */\n      0x00\n        /* \"#utility.yul\":9617:9825   */\n    tag_229:\n        /* \"#utility.yul\":9631:9638   */\n      dup3\n        /* \"#utility.yul\":9628:9629   */\n      dup2\n        /* \"#utility.yul\":9625:9639   */\n      lt\n        /* \"#utility.yul\":9617:9825   */\n      iszero\n      tag_231\n      jumpi\n        /* \"#utility.yul\":9710:9719   */\n      dup5\n        /* \"#utility.yul\":9705:9708   */\n      dup10\n        /* \"#utility.yul\":9701:9720   */\n      add\n        /* \"#utility.yul\":9695:9721   */\n      mload\n        /* \"#utility.yul\":9687:9693   */\n      dup3\n        /* \"#utility.yul\":9680:9722   */\n      sstore\n        /* \"#utility.yul\":9761:9762   */\n      0x01\n        /* \"#utility.yul\":9753:9759   */\n      dup3\n        /* \"#utility.yul\":9749:9763   */\n      add\n        /* \"#utility.yul\":9739:9763   */\n      swap2\n      pop\n        /* \"#utility.yul\":9808:9810   */\n      0x20\n        /* \"#utility.yul\":9797:9806   */\n      dup6\n        /* \"#utility.yul\":9793:9811   */\n      add\n        /* \"#utility.yul\":9780:9811   */\n      swap5\n      pop\n        /* \"#utility.yul\":9654:9658   */\n      0x20\n        /* \"#utility.yul\":9651:9652   */\n      dup2\n        /* \"#utility.yul\":9647:9659   */\n      add\n        /* \"#utility.yul\":9642:9659   */\n      swap1\n      pop\n        /* \"#utility.yul\":9617:9825   */\n      jump(tag_229)\n    tag_231:\n        /* \"#utility.yul\":9853:9859   */\n      dup7\n        /* \"#utility.yul\":9844:9851   */\n      dup4\n        /* \"#utility.yul\":9841:9860   */\n      lt\n        /* \"#utility.yul\":9838:10017   */\n      iszero\n      tag_232\n      jumpi\n        /* \"#utility.yul\":9911:9920   */\n      dup5\n        /* \"#utility.yul\":9906:9909   */\n      dup10\n        /* \"#utility.yul\":9902:9921   */\n      add\n        /* \"#utility.yul\":9896:9922   */\n      mload\n        /* \"#utility.yul\":9954:10002   */\n      tag_233\n        /* \"#utility.yul\":9996:10000   */\n      0x1f\n        /* \"#utility.yul\":9988:9994   */\n      dup10\n        /* \"#utility.yul\":9984:10001   */\n      and\n        /* \"#utility.yul\":9973:9982   */\n      dup3\n        /* \"#utility.yul\":9954:10002   */\n      tag_103\n      jump\t// in\n    tag_233:\n        /* \"#utility.yul\":9946:9952   */\n      dup4\n        /* \"#utility.yul\":9939:10003   */\n      sstore\n        /* \"#utility.yul\":9861:10017   */\n      pop\n        /* \"#utility.yul\":9838:10017   */\n    tag_232:\n        /* \"#utility.yul\":10063:10064   */\n      0x01\n        /* \"#utility.yul\":10059:10060   */\n      0x02\n        /* \"#utility.yul\":10051:10057   */\n      dup9\n        /* \"#utility.yul\":10047:10061   */\n      mul\n        /* \"#utility.yul\":10043:10065   */\n      add\n        /* \"#utility.yul\":10037:10041   */\n      dup9\n        /* \"#utility.yul\":10030:10066   */\n      sstore\n        /* \"#utility.yul\":9465:10076   */\n      pop\n      pop\n      pop\n        /* \"#utility.yul\":9428:10315   */\n    tag_224:\n      pop\n        /* \"#utility.yul\":9018:10321   */\n      pop\n      pop\n      pop\n        /* \"#utility.yul\":8926:10321   */\n      pop\n      pop\n      jump\t// out\n        /* \"#utility.yul\":10327:10507   */\n    tag_105:\n        /* \"#utility.yul\":10375:10452   */\n      0x4e487b7100000000000000000000000000000000000000000000000000000000\n        /* \"#utility.yul\":10372:10373   */\n      0x00\n        /* \"#utility.yul\":10365:10453   */\n      mstore\n        /* \"#utility.yul\":10472:10476   */\n      0x11\n        /* \"#utility.yul\":10469:10470   */\n      0x04\n        /* \"#utility.yul\":10462:10477   */\n      mstore\n        /* \"#utility.yul\":10496:10500   */\n      0x24\n        /* \"#utility.yul\":10493:10494   */\n      0x00\n        /* \"#utility.yul\":10486:10501   */\n      revert\n        /* \"#utility.yul\":10513:10746   */\n    tag_37:\n        /* \"#utility.yul\":10552:10555   */\n      0x00\n        /* \"#utility.yul\":10575:10599   */\n      tag_236\n        /* \"#utility.yul\":10593:10598   */\n      dup3\n        /* \"#utility.yul\":10575:10599   */\n      tag_66\n      jump\t// in\n    tag_236:\n        /* \"#utility.yul\":10566:10599   */\n      swap2\n      pop\n        /* \"#utility.yul\":10621:10687   */\n      0xffffffffffffffffffffffffffffffffffffffffffffffffffffffffffffffff\n        /* \"#utility.yul\":10614:10619   */\n      dup3\n        /* \"#utility.yul\":10611:10688   */\n      sub\n        /* \"#utility.yul\":10608:10711   */\n      tag_237\n      jumpi\n        /* \"#utility.yul\":10691:10709   */\n      tag_238\n      tag_105\n      jump\t// in\n    tag_238:\n        /* \"#utility.yul\":10608:10711   */\n    tag_237:\n        /* \"#utility.yul\":10738:10739   */\n      0x01\n        /* \"#utility.yul\":10731:10736   */\n      dup3\n        /* \"#utility.yul\":10727:10740   */\n      add\n        /* \"#utility.yul\":10720:10740   */\n      swap1\n      pop\n        /* \"#utility.yul\":10513:10746   */\n      swap2\n      swap1\n      pop\n      jump\t// out\n        /* \"#utility.yul\":10752:10870   */\n    tag_106:\n        /* \"#utility.yul\":10839:10863   */\n      tag_240\n        /* \"#utility.yul\":10857:10862   */\n      dup2\n        /* \"#utility.yul\":10839:10863   */\n      tag_82\n      jump\t// in\n    tag_240:\n        /* \"#utility.yul\":10834:10837   */\n      dup3\n        /* \"#utility.yul\":10827:10864   */\n      mstore\n        /* \"#utility.yul\":10752:10870   */\n      pop\n      pop\n      jump\t// out\n        /* \"#utility.yul\":10876:11299   */\n    tag_39:\n        /* \"#utility.yul\":11017:11021   */\n      0x00\n        /* \"#utility.yul\":11055:11057   */\n      0x40\n        /* \"#utility.yul\":11044:11053   */\n      dup3\n        /* \"#utility.yul\":11040:11058   */\n      add\n        /* \"#utility.yul\":11032:11058   */\n      swap1\n      pop\n        /* \"#utility.yul\":11104:11113   */\n      dup2\n        /* \"#utility.yul\":11098:11102   */\n      dup2\n        /* \"#utility.yul\":11094:11114   */\n      sub\n        /* \"#utility.yul\":11090:11091   */\n      0x00\n        /* \"#utility.yul\":11079:11088   */\n      dup4\n        /* \"#utility.yul\":11075:11092   */\n      add\n        /* \"#utility.yul\":11068:11115   */\n      mstore\n        /* \"#utility.yul\":11132:11210   */\n      tag_242\n        /* \"#utility.yul\":11205:11209   */\n      dup2\n        /* \"#utility.yul\":11196:11202   */\n      dup6\n        /* \"#utility.yul\":11132:11210   */\n      tag_88\n      jump\t// in\n    tag_242:\n        /* \"#utility.yul\":11124:11210   */\n      swap1\n      pop\n        /* \"#utility.yul\":11220:11292   */\n      tag_243\n        /* \"#utility.yul\":11288:11290   */\n      0x20\n        /* \"#utility.yul\":11277:11286   */\n      dup4\n        /* \"#utility.yul\":11273:11291   */\n      add\n        /* \"#utility.yul\":11264:11270   */\n      dup5\n        /* \"#utility.yul\":11220:11292   */\n      tag_106\n      jump\t// in\n    tag_243:\n        /* \"#utility.yul\":10876:11299   */\n      swap4\n      swap3\n      pop\n      pop\n      pop\n      jump\t// out\n        /* \"#utility.yul\":11305:11470   */\n    tag_107:\n        /* \"#utility.yul\":11445:11462   */\n      0x4e6f2075736572204d6573736167650000000000000000000000000000000000\n        /* \"#utility.yul\":11441:11442   */\n      0x00\n        /* \"#utility.yul\":11433:11439   */\n      dup3\n        /* \"#utility.yul\":11429:11443   */\n      add\n        /* \"#utility.yul\":11422:11463   */\n      mstore\n        /* \"#utility.yul\":11305:11470   */\n      pop\n      jump\t// out\n        /* \"#utility.yul\":11476:11842   */\n    tag_108:\n        /* \"#utility.yul\":11618:11621   */\n      0x00\n        /* \"#utility.yul\":11639:11706   */\n      tag_246\n        /* \"#utility.yul\":11703:11705   */\n      0x0f\n        /* \"#utility.yul\":11698:11701   */\n      dup4\n        /* \"#utility.yul\":11639:11706   */\n      tag_86\n      jump\t// in\n    tag_246:\n        /* \"#utility.yul\":11632:11706   */\n      swap2\n      pop\n        /* \"#utility.yul\":11715:11808   */\n      tag_247\n        /* \"#utility.yul\":11804:11807   */\n      dup3\n        /* \"#utility.yul\":11715:11808   */\n      tag_107\n      jump\t// in\n    tag_247:\n        /* \"#utility.yul\":11833:11835   */\n      0x20\n        /* \"#utility.yul\":11828:11831   */\n      dup3\n        /* \"#utility.yul\":11824:11836   */\n      add\n        /* \"#utility.yul\":11817:11836   */\n      swap1\n      pop\n        /* \"#utility.yul\":11476:11842   */\n      swap2\n      swap1\n      pop\n      jump\t// out\n        /* \"#utility.yul\":11848:12267   */\n    tag_60:\n        /* \"#utility.yul\":12014:12018   */\n      0x00\n        /* \"#utility.yul\":12052:12054   */\n      0x20\n        /* \"#utility.yul\":12041:12050   */\n      dup3\n        /* \"#utility.yul\":12037:12055   */\n      add\n        /* \"#utility.yul\":12029:12055   */\n      swap1\n      pop\n        /* \"#utility.yul\":12101:12110   */\n      dup2\n        /* \"#utility.yul\":12095:12099   */\n      dup2\n        /* \"#utility.yul\":12091:12111   */\n      sub\n        /* \"#utility.yul\":12087:12088   */\n      0x00\n        /* \"#utility.yul\":12076:12085   */\n      dup4\n        /* \"#utility.yul\":12072:12089   */\n      add\n        /* \"#utility.yul\":12065:12112   */\n      mstore\n        /* \"#utility.yul\":12129:12260   */\n      tag_249\n        /* \"#utility.yul\":12255:12259   */\n      dup2\n        /* \"#utility.yul\":12129:12260   */\n      tag_108\n      jump\t// in\n    tag_249:\n        /* \"#utility.yul\":12121:12260   */\n      swap1\n      pop\n        /* \"#utility.yul\":11848:12267   */\n      swap2\n      swap1\n      pop\n      jump\t// out\n        /* \"#utility.yul\":12273:12421   */\n    tag_109:\n        /* \"#utility.yul\":12375:12386   */\n      0x00\n        /* \"#utility.yul\":12412:12415   */\n      dup2\n        /* \"#utility.yul\":12397:12415   */\n      swap1\n      pop\n        /* \"#utility.yul\":12273:12421   */\n      swap3\n      swap2\n      pop\n      pop\n      jump\t// out\n        /* \"#utility.yul\":12451:13325   */\n    tag_110:\n        /* \"#utility.yul\":12554:12557   */\n      0x00\n        /* \"#utility.yul\":12591:12596   */\n      dup2\n        /* \"#utility.yul\":12585:12597   */\n      sload\n        /* \"#utility.yul\":12620:12656   */\n      tag_252\n        /* \"#utility.yul\":12646:12655   */\n      dup2\n        /* \"#utility.yul\":12620:12656   */\n      tag_45\n      jump\t// in\n    tag_252:\n        /* \"#utility.yul\":12672:12761   */\n      tag_253\n        /* \"#utility.yul\":12754:12760   */\n      dup2\n        /* \"#utility.yul\":12749:12752   */\n      dup7\n        /* \"#utility.yul\":12672:12761   */\n      tag_109\n      jump\t// in\n    tag_253:\n        /* \"#utility.yul\":12665:12761   */\n      swap5\n      pop\n        /* \"#utility.yul\":12792:12793   */\n      0x01\n        /* \"#utility.yul\":12781:12790   */\n      dup3\n        /* \"#utility.yul\":12777:12794   */\n      and\n        /* \"#utility.yul\":12808:12809   */\n      0x00\n        /* \"#utility.yul\":12803:12969   */\n      dup2\n      eq\n      tag_255\n      jumpi\n        /* \"#utility.yul\":12983:12984   */\n      0x01\n        /* \"#utility.yul\":12978:13319   */\n      dup2\n      eq\n      tag_256\n      jumpi\n        /* \"#utility.yul\":12770:13319   */\n      jump(tag_254)\n        /* \"#utility.yul\":12803:12969   */\n    tag_255:\n        /* \"#utility.yul\":12887:12891   */\n      0xff\n        /* \"#utility.yul\":12883:12892   */\n      not\n        /* \"#utility.yul\":12872:12881   */\n      dup4\n        /* \"#utility.yul\":12868:12893   */\n      and\n        /* \"#utility.yul\":12863:12866   */\n      dup7\n        /* \"#utility.yul\":12856:12894   */\n      mstore\n        /* \"#utility.yul\":12949:12955   */\n      dup2\n        /* \"#utility.yul\":12942:12956   */\n      iszero\n        /* \"#utility.yul\":12935:12957   */\n      iszero\n        /* \"#utility.yul\":12927:12933   */\n      dup3\n        /* \"#utility.yul\":12923:12958   */\n      mul\n        /* \"#utility.yul\":12918:12921   */\n      dup7\n        /* \"#utility.yul\":12914:12959   */\n      add\n        /* \"#utility.yul\":12907:12959   */\n      swap4\n      pop\n        /* \"#utility.yul\":12803:12969   */\n      jump(tag_254)\n        /* \"#utility.yul\":12978:13319   */\n    tag_256:\n        /* \"#utility.yul\":13045:13083   */\n      tag_257\n        /* \"#utility.yul\":13077:13082   */\n      dup6\n        /* \"#utility.yul\":13045:13083   */\n      tag_90\n      jump\t// in\n    tag_257:\n        /* \"#utility.yul\":13105:13106   */\n      0x00\n        /* \"#utility.yul\":13119:13273   */\n    tag_258:\n        /* \"#utility.yul\":13133:13139   */\n      dup4\n        /* \"#utility.yul\":13130:13131   */\n      dup2\n        /* \"#utility.yul\":13127:13140   */\n      lt\n        /* \"#utility.yul\":13119:13273   */\n      iszero\n      tag_260\n      jumpi\n        /* \"#utility.yul\":13207:13214   */\n      dup2\n        /* \"#utility.yul\":13201:13215   */\n      sload\n        /* \"#utility.yul\":13197:13198   */\n      dup2\n        /* \"#utility.yul\":13192:13195   */\n      dup10\n        /* \"#utility.yul\":13188:13199   */\n      add\n        /* \"#utility.yul\":13181:13216   */\n      mstore\n        /* \"#utility.yul\":13257:13258   */\n      0x01\n        /* \"#utility.yul\":13248:13255   */\n      dup3\n        /* \"#utility.yul\":13244:13259   */\n      add\n        /* \"#utility.yul\":13233:13259   */\n      swap2\n      pop\n        /* \"#utility.yul\":13155:13159   */\n      0x20\n        /* \"#utility.yul\":13152:13153   */\n      dup2\n        /* \"#utility.yul\":13148:13160   */\n      add\n        /* \"#utility.yul\":13143:13160   */\n      swap1\n      pop\n        /* \"#utility.yul\":13119:13273   */\n      jump(tag_258)\n    tag_260:\n        /* \"#utility.yul\":13302:13308   */\n      dup4\n        /* \"#utility.yul\":13297:13300   */\n      dup9\n        /* \"#utility.yul\":13293:13309   */\n      add\n        /* \"#utility.yul\":13286:13309   */\n      swap6\n      pop\n        /* \"#utility.yul\":12985:13319   */\n      pop\n      pop\n        /* \"#utility.yul\":12770:13319   */\n    tag_254:\n      pop\n        /* \"#utility.yul\":12558:13325   */\n      pop\n      pop\n        /* \"#utility.yul\":12451:13325   */\n      swap3\n      swap2\n      pop\n      pop\n      jump\t// out\n        /* \"#utility.yul\":13331:13484   */\n    tag_111:\n        /* \"#utility.yul\":13471:13476   */\n      0x2026200000000000000000000000000000000000000000000000000000000000\n        /* \"#utility.yul\":13467:13468   */\n      0x00\n        /* \"#utility.yul\":13459:13465   */\n      dup3\n        /* \"#utility.yul\":13455:13469   */\n      add\n        /* \"#utility.yul\":13448:13477   */\n      mstore\n        /* \"#utility.yul\":13331:13484   */\n      pop\n      jump\t// out\n        /* \"#utility.yul\":13490:13890   */\n    tag_112:\n        /* \"#utility.yul\":13650:13653   */\n      0x00\n        /* \"#utility.yul\":13671:13755   */\n      tag_263\n        /* \"#utility.yul\":13753:13754   */\n      0x03\n        /* \"#utility.yul\":13748:13751   */\n      dup4\n        /* \"#utility.yul\":13671:13755   */\n      tag_109\n      jump\t// in\n    tag_263:\n        /* \"#utility.yul\":13664:13755   */\n      swap2\n      pop\n        /* \"#utility.yul\":13764:13857   */\n      tag_264\n        /* \"#utility.yul\":13853:13856   */\n      dup3\n        /* \"#utility.yul\":13764:13857   */\n      tag_111\n      jump\t// in\n    tag_264:\n        /* \"#utility.yul\":13882:13883   */\n      0x03\n        /* \"#utility.yul\":13877:13880   */\n      dup3\n        /* \"#utility.yul\":13873:13884   */\n      add\n        /* \"#utility.yul\":13866:13884   */\n      swap1\n      pop\n        /* \"#utility.yul\":13490:13890   */\n      swap2\n      swap1\n      pop\n      jump\t// out\n        /* \"#utility.yul\":13896:14585   */\n    tag_62:\n        /* \"#utility.yul\":14171:14174   */\n      0x00\n        /* \"#utility.yul\":14193:14285   */\n      tag_266\n        /* \"#utility.yul\":14281:14284   */\n      dup3\n        /* \"#utility.yul\":14272:14278   */\n      dup6\n        /* \"#utility.yul\":14193:14285   */\n      tag_110\n      jump\t// in\n    tag_266:\n        /* \"#utility.yul\":14186:14285   */\n      swap2\n      pop\n        /* \"#utility.yul\":14302:14450   */\n      tag_267\n        /* \"#utility.yul\":14446:14449   */\n      dup3\n        /* \"#utility.yul\":14302:14450   */\n      tag_112\n      jump\t// in\n    tag_267:\n        /* \"#utility.yul\":14295:14450   */\n      swap2\n      pop\n        /* \"#utility.yul\":14467:14559   */\n      tag_268\n        /* \"#utility.yul\":14555:14558   */\n      dup3\n        /* \"#utility.yul\":14546:14552   */\n      dup5\n        /* \"#utility.yul\":14467:14559   */\n      tag_110\n      jump\t// in\n    tag_268:\n        /* \"#utility.yul\":14460:14559   */\n      swap2\n      pop\n        /* \"#utility.yul\":14576:14579   */\n      dup2\n        /* \"#utility.yul\":14569:14579   */\n      swap1\n      pop\n        /* \"#utility.yul\":13896:14585   */\n      swap4\n      swap3\n      pop\n      pop\n      pop\n      jump\t// out\n\n    auxdata: 0xa264697066735822122098c86f4be4c37b4550a37bbde7c46b81638d1c337a51815e19ed1877ca6be15964736f6c634300081e0033\n}\n",
				"bytecode": {
					"linkReferences": {},
					"object": "608060405234801561000f575f5ffd5b506040518060400160405280600b81526020017f48656c6c6f20576f726c640000000000000000000000000000000000000000008152505f9081610053919061029d565b505f60018190555061036c565b5f81519050919050565b7f4e487b71000000000000000000000000000000000000000000000000000000005f52604160045260245ffd5b7f4e487b71000000000000000000000000000000000000000000000000000000005f52602260045260245ffd5b5f60028204905060018216806100db57607f821691505b6020821081036100ee576100ed610097565b5b50919050565b5f819050815f5260205f209050919050565b5f6020601f8301049050919050565b5f82821b905092915050565b5f600883026101507fffffffffffffffffffffffffffffffffffffffffffffffffffffffffffffffff82610115565b61015a8683610115565b95508019841693508086168417925050509392505050565b5f819050919050565b5f819050919050565b5f61019e61019961019484610172565b61017b565b610172565b9050919050565b5f819050919050565b6101b783610184565b6101cb6101c3826101a5565b848454610121565b825550505050565b5f5f905090565b6101e26101d3565b6101ed8184846101ae565b505050565b5b81811015610210576102055f826101da565b6001810190506101f3565b5050565b601f82111561025557610226816100f4565b61022f84610106565b8101602085101561023e578190505b61025261024a85610106565b8301826101f2565b50505b505050565b5f82821c905092915050565b5f6102755f198460080261025a565b1980831691505092915050565b5f61028d8383610266565b9150826002028217905092915050565b6102a682610060565b67ffffffffffffffff8111156102bf576102be61006a565b5b6102c982546100c4565b6102d4828285610214565b5f60209050601f831160018114610305575f84156102f3578287015190505b6102fd8582610282565b865550610364565b601f198416610313866100f4565b5f5b8281101561033a57848901518255600182019150602085019450602081019050610315565b868310156103575784890151610353601f891682610266565b8355505b6001600288020188555050505b505050505050565b610c8d806103795f395ff3fe608060405234801561000f575f5ffd5b5060043610610060575f3560e01c80630fb56b8b14610064578063368b87721461008257806351647b891461009e57806398d63d3d146100ba578063ce6d41de146100ea578063faa7d6c714610108575b5f5ffd5b61006c610126565b60405161007991906104be565b60405180910390f35b61009c60048036038101906100979190610624565b61012f565b005b6100b860048036038101906100b39190610624565b610191565b005b6100d460048036038101906100cf91906106c5565b6101f6565b6040516100e19190610750565b60405180910390f35b6100f26102c3565b6040516100ff9190610750565b60405180910390f35b610110610352565b60405161011d9190610750565b60405180910390f35b5f600154905090565b805f908161013d919061096d565b5060015f81548092919061015090610a69565b91905055507fd44ea1cbddae5ccfe1e125c815193649e5834fa36c7257630c005d519f4bd3e48133604051610186929190610abf565b60405180910390a150565b8060025f3373ffffffffffffffffffffffffffffffffffffffff1673ffffffffffffffffffffffffffffffffffffffff1681526020019081526020015f2090816101db919061096d565b5060015f8154809291906101ee90610a69565b919050555050565b606060025f8373ffffffffffffffffffffffffffffffffffffffff1673ffffffffffffffffffffffffffffffffffffffff1681526020019081526020015f2080546102409061079d565b80601f016020809104026020016040519081016040528092919081815260200182805461026c9061079d565b80156102b75780601f1061028e576101008083540402835291602001916102b7565b820191905f5260205f20905b81548152906001019060200180831161029a57829003601f168201915b50505050509050919050565b60605f80546102d19061079d565b80601f01602080910402602001604051908101604052809291908181526020018280546102fd9061079d565b80156103485780601f1061031f57610100808354040283529160200191610348565b820191905f5260205f20905b81548152906001019060200180831161032b57829003601f168201915b5050505050905090565b60605f60025f3373ffffffffffffffffffffffffffffffffffffffff1673ffffffffffffffffffffffffffffffffffffffff1681526020019081526020015f20805461039d9061079d565b9050116103df576040517f08c379a00000000000000000000000000000000000000000000000000000000081526004016103d690610b37565b60405180910390fd5b5f5f60025f3373ffffffffffffffffffffffffffffffffffffffff1673ffffffffffffffffffffffffffffffffffffffff1681526020019081526020015f2060405160200161042f929190610c29565b6040516020818303038152906040529050805f908161044e919061096d565b5060015f81548092919061046190610a69565b91905055507fd44ea1cbddae5ccfe1e125c815193649e5834fa36c7257630c005d519f4bd3e48133604051610497929190610abf565b60405180910390a18091505090565b5f819050919050565b6104b8816104a6565b82525050565b5f6020820190506104d15f8301846104af565b92915050565b5f604051905090565b5f5ffd5b5f5ffd5b5f5ffd5b5f5ffd5b5f601f19601f8301169050919050565b7f4e487b71000000000000000000000000000000000000000000000000000000005f52604160045260245ffd5b610536826104f0565b810181811067ffffffffffffffff8211171561055557610554610500565b5b80604052505050565b5f6105676104d7565b9050610573828261052d565b919050565b5f67ffffffffffffffff82111561059257610591610500565b5b61059b826104f0565b9050602081019050919050565b828183375f83830152505050565b5f6105c86105c384610578565b61055e565b9050828152602081018484840111156105e4576105e36104ec565b5b6105ef8482856105a8565b509392505050565b5f82601f83011261060b5761060a6104e8565b5b813561061b8482602086016105b6565b91505092915050565b5f60208284031215610639576106386104e0565b5b5f82013567ffffffffffffffff811115610656576106556104e4565b5b610662848285016105f7565b91505092915050565b5f73ffffffffffffffffffffffffffffffffffffffff82169050919050565b5f6106948261066b565b9050919050565b6106a48161068a565b81146106ae575f5ffd5b50565b5f813590506106bf8161069b565b92915050565b5f602082840312156106da576106d96104e0565b5b5f6106e7848285016106b1565b91505092915050565b5f81519050919050565b5f82825260208201905092915050565b8281835e5f83830152505050565b5f610722826106f0565b61072c81856106fa565b935061073c81856020860161070a565b610745816104f0565b840191505092915050565b5f6020820190508181035f8301526107688184610718565b905092915050565b7f4e487b71000000000000000000000000000000000000000000000000000000005f52602260045260245ffd5b5f60028204905060018216806107b457607f821691505b6020821081036107c7576107c6610770565b5b50919050565b5f819050815f5260205f209050919050565b5f6020601f8301049050919050565b5f82821b905092915050565b5f600883026108297fffffffffffffffffffffffffffffffffffffffffffffffffffffffffffffffff826107ee565b61083386836107ee565b95508019841693508086168417925050509392505050565b5f819050919050565b5f61086e610869610864846104a6565b61084b565b6104a6565b9050919050565b5f819050919050565b61088783610854565b61089b61089382610875565b8484546107fa565b825550505050565b5f5f905090565b6108b26108a3565b6108bd81848461087e565b505050565b5b818110156108e0576108d55f826108aa565b6001810190506108c3565b5050565b601f821115610925576108f6816107cd565b6108ff846107df565b8101602085101561090e578190505b61092261091a856107df565b8301826108c2565b50505b505050565b5f82821c905092915050565b5f6109455f198460080261092a565b1980831691505092915050565b5f61095d8383610936565b9150826002028217905092915050565b610976826106f0565b67ffffffffffffffff81111561098f5761098e610500565b5b610999825461079d565b6109a48282856108e4565b5f60209050601f8311600181146109d5575f84156109c3578287015190505b6109cd8582610952565b865550610a34565b601f1984166109e3866107cd565b5f5b82811015610a0a578489015182556001820191506020850194506020810190506109e5565b86831015610a275784890151610a23601f891682610936565b8355505b6001600288020188555050505b505050505050565b7f4e487b71000000000000000000000000000000000000000000000000000000005f52601160045260245ffd5b5f610a73826104a6565b91507fffffffffffffffffffffffffffffffffffffffffffffffffffffffffffffffff8203610aa557610aa4610a3c565b5b600182019050919050565b610ab98161068a565b82525050565b5f6040820190508181035f830152610ad78185610718565b9050610ae66020830184610ab0565b9392505050565b7f4e6f2075736572204d65737361676500000000000000000000000000000000005f82015250565b5f610b21600f836106fa565b9150610b2c82610aed565b602082019050919050565b5f6020820190508181035f830152610b4e81610b15565b9050919050565b5f81905092915050565b5f8154610b6b8161079d565b610b758186610b55565b9450600182165f8114610b8f5760018114610ba457610bd6565b60ff1983168652811515820286019350610bd6565b610bad856107cd565b5f5b83811015610bce57815481890152600182019150602081019050610baf565b838801955050505b50505092915050565b7f20262000000000000000000000000000000000000000000000000000000000005f82015250565b5f610c13600383610b55565b9150610c1e82610bdf565b600382019050919050565b5f610c348285610b5f565b9150610c3f82610c07565b9150610c4b8284610b5f565b9150819050939250505056fea264697066735822122098c86f4be4c37b4550a37bbde7c46b81638d1c337a51815e19ed1877ca6be15964736f6c634300081e0033",
					"opcodes": "PUSH1 0x80 PUSH1 0x40 MSTORE CALLVALUE DUP1 ISZERO PUSH2 0xF JUMPI PUSH0 PUSH0 REVERT JUMPDEST POP PUSH1 0x40 MLOAD DUP1 PUSH1 0x40 ADD PUSH1 0x40 MSTORE DUP1 PUSH1 0xB DUP2 MSTORE PUSH1 0x20 ADD PUSH32 0x48656C6C6F20576F726C64000000000000000000000000000000000000000000 DUP2 MSTORE POP PUSH0 SWAP1 DUP2 PUSH2 0x53 SWAP2 SWAP1 PUSH2 0x29D JUMP JUMPDEST POP PUSH0 PUSH1 0x1 DUP2 SWAP1 SSTORE POP PUSH2 0x36C JUMP JUMPDEST PUSH0 DUP2 MLOAD SWAP1 POP SWAP2 SWAP1 POP JUMP JUMPDEST PUSH32 0x4E487B7100000000000000000000000000000000000000000000000000000000 PUSH0 MSTORE PUSH1 0x41 PUSH1 0x4 MSTORE PUSH1 0x24 PUSH0 REVERT JUMPDEST PUSH32 0x4E487B7100000000000000000000000000000000000000000000000000000000 PUSH0 MSTORE PUSH1 0x22 PUSH1 0x4 MSTORE PUSH1 0x24 PUSH0 REVERT JUMPDEST PUSH0 PUSH1 0x2 DUP3 DIV SWAP1 POP PUSH1 0x1 DUP3 AND DUP1 PUSH2 0xDB JUMPI PUSH1 0x7F DUP3 AND SWAP2 POP JUMPDEST PUSH1 0x20 DUP3 LT DUP2 SUB PUSH2 0xEE JUMPI PUSH2 0xED PUSH2 0x97 JUMP JUMPDEST JUMPDEST POP SWAP2 SWAP1 POP JUMP JUMPDEST PUSH0 DUP2 SWAP1 POP DUP2 PUSH0 MSTORE PUSH1 0x20 PUSH0 KECCAK256 SWAP1 POP SWAP2 SWAP1 POP JUMP JUMPDEST PUSH0 PUSH1 0x20 PUSH1 0x1F DUP4 ADD DIV SWAP1 POP SWAP2 SWAP1 POP JUMP JUMPDEST PUSH0 DUP3 DUP3 SHL SWAP1 POP SWAP3 SWAP2 POP POP JUMP JUMPDEST PUSH0 PUSH1 0x8 DUP4 MUL PUSH2 0x150 PUSH32 0xFFFFFFFFFFFFFFFFFFFFFFFFFFFFFFFFFFFFFFFFFFFFFFFFFFFFFFFFFFFFFFFF DUP3 PUSH2 0x115 JUMP JUMPDEST PUSH2 0x15A DUP7 DUP4 PUSH2 0x115 JUMP JUMPDEST SWAP6 POP DUP1 NOT DUP5 AND SWAP4 POP DUP1 DUP7 AND DUP5 OR SWAP3 POP POP POP SWAP4 SWAP3 POP POP POP JUMP JUMPDEST PUSH0 DUP2 SWAP1 POP SWAP2 SWAP1 POP JUMP JUMPDEST PUSH0 DUP2 SWAP1 POP SWAP2 SWAP1 POP JUMP JUMPDEST PUSH0 PUSH2 0x19E PUSH2 0x199 PUSH2 0x194 DUP5 PUSH2 0x172 JUMP JUMPDEST PUSH2 0x17B JUMP JUMPDEST PUSH2 0x172 JUMP JUMPDEST SWAP1 POP SWAP2 SWAP1 POP JUMP JUMPDEST PUSH0 DUP2 SWAP1 POP SWAP2 SWAP1 POP JUMP JUMPDEST PUSH2 0x1B7 DUP4 PUSH2 0x184 JUMP JUMPDEST PUSH2 0x1CB PUSH2 0x1C3 DUP3 PUSH2 0x1A5 JUMP JUMPDEST DUP5 DUP5 SLOAD PUSH2 0x121 JUMP JUMPDEST DUP3 SSTORE POP POP POP POP JUMP JUMPDEST PUSH0 PUSH0 SWAP1 POP SWAP1 JUMP JUMPDEST PUSH2 0x1E2 PUSH2 0x1D3 JUMP JUMPDEST PUSH2 0x1ED DUP2 DUP5 DUP5 PUSH2 0x1AE JUMP JUMPDEST POP POP POP JUMP JUMPDEST JUMPDEST DUP2 DUP2 LT ISZERO PUSH2 0x210 JUMPI PUSH2 0x205 PUSH0 DUP3 PUSH2 0x1DA JUMP JUMPDEST PUSH1 0x1 DUP2 ADD SWAP1 POP PUSH2 0x1F3 JUMP JUMPDEST POP POP JUMP JUMPDEST PUSH1 0x1F DUP3 GT ISZERO PUSH2 0x255 JUMPI PUSH2 0x226 DUP2 PUSH2 0xF4 JUMP JUMPDEST PUSH2 0x22F DUP5 PUSH2 0x106 JUMP JUMPDEST DUP2 ADD PUSH1 0x20 DUP6 LT ISZERO PUSH2 0x23E JUMPI DUP2 SWAP1 POP JUMPDEST PUSH2 0x252 PUSH2 0x24A DUP6 PUSH2 0x106 JUMP JUMPDEST DUP4 ADD DUP3 PUSH2 0x1F2 JUMP JUMPDEST POP POP JUMPDEST POP POP POP JUMP JUMPDEST PUSH0 DUP3 DUP3 SHR SWAP1 POP SWAP3 SWAP2 POP POP JUMP JUMPDEST PUSH0 PUSH2 0x275 PUSH0 NOT DUP5 PUSH1 0x8 MUL PUSH2 0x25A JUMP JUMPDEST NOT DUP1 DUP4 AND SWAP2 POP POP SWAP3 SWAP2 POP POP JUMP JUMPDEST PUSH0 PUSH2 0x28D DUP4 DUP4 PUSH2 0x266 JUMP JUMPDEST SWAP2 POP DUP3 PUSH1 0x2 MUL DUP3 OR SWAP1 POP SWAP3 SWAP2 POP POP JUMP JUMPDEST PUSH2 0x2A6 DUP3 PUSH2 0x60 JUMP JUMPDEST PUSH8 0xFFFFFFFFFFFFFFFF DUP2 GT ISZERO PUSH2 0x2BF JUMPI PUSH2 0x2BE PUSH2 0x6A JUMP JUMPDEST JUMPDEST PUSH2 0x2C9 DUP3 SLOAD PUSH2 0xC4 JUMP JUMPDEST PUSH2 0x2D4 DUP3 DUP3 DUP6 PUSH2 0x214 JUMP JUMPDEST PUSH0 PUSH1 0x20 SWAP1 POP PUSH1 0x1F DUP4 GT PUSH1 0x1 DUP2 EQ PUSH2 0x305 JUMPI PUSH0 DUP5 ISZERO PUSH2 0x2F3 JUMPI DUP3 DUP8 ADD MLOAD SWAP1 POP JUMPDEST PUSH2 0x2FD DUP6 DUP3 PUSH2 0x282 JUMP JUMPDEST DUP7 SSTORE POP PUSH2 0x364 JUMP JUMPDEST PUSH1 0x1F NOT DUP5 AND PUSH2 0x313 DUP7 PUSH2 0xF4 JUMP JUMPDEST PUSH0 JUMPDEST DUP3 DUP2 LT ISZERO PUSH2 0x33A JUMPI DUP5 DUP10 ADD MLOAD DUP3 SSTORE PUSH1 0x1 DUP3 ADD SWAP2 POP PUSH1 0x20 DUP6 ADD SWAP5 POP PUSH1 0x20 DUP2 ADD SWAP1 POP PUSH2 0x315 JUMP JUMPDEST DUP7 DUP4 LT ISZERO PUSH2 0x357 JUMPI DUP5 DUP10 ADD MLOAD PUSH2 0x353 PUSH1 0x1F DUP10 AND DUP3 PUSH2 0x266 JUMP JUMPDEST DUP4 SSTORE POP JUMPDEST PUSH1 0x1 PUSH1 0x2 DUP9 MUL ADD DUP9 SSTORE POP POP POP JUMPDEST POP POP POP POP POP POP JUMP JUMPDEST PUSH2 0xC8D DUP1 PUSH2 0x379 PUSH0 CODECOPY PUSH0 RETURN INVALID PUSH1 0x80 PUSH1 0x40 MSTORE CALLVALUE DUP1 ISZERO PUSH2 0xF JUMPI PUSH0 PUSH0 REVERT JUMPDEST POP PUSH1 0x4 CALLDATASIZE LT PUSH2 0x60 JUMPI PUSH0 CALLDATALOAD PUSH1 0xE0 SHR DUP1 PUSH4 0xFB56B8B EQ PUSH2 0x64 JUMPI DUP1 PUSH4 0x368B8772 EQ PUSH2 0x82 JUMPI DUP1 PUSH4 0x51647B89 EQ PUSH2 0x9E JUMPI DUP1 PUSH4 0x98D63D3D EQ PUSH2 0xBA JUMPI DUP1 PUSH4 0xCE6D41DE EQ PUSH2 0xEA JUMPI DUP1 PUSH4 0xFAA7D6C7 EQ PUSH2 0x108 JUMPI JUMPDEST PUSH0 PUSH0 REVERT JUMPDEST PUSH2 0x6C PUSH2 0x126 JUMP JUMPDEST PUSH1 0x40 MLOAD PUSH2 0x79 SWAP2 SWAP1 PUSH2 0x4BE JUMP JUMPDEST PUSH1 0x40 MLOAD DUP1 SWAP2 SUB SWAP1 RETURN JUMPDEST PUSH2 0x9C PUSH1 0x4 DUP1 CALLDATASIZE SUB DUP2 ADD SWAP1 PUSH2 0x97 SWAP2 SWAP1 PUSH2 0x624 JUMP JUMPDEST PUSH2 0x12F JUMP JUMPDEST STOP JUMPDEST PUSH2 0xB8 PUSH1 0x4 DUP1 CALLDATASIZE SUB DUP2 ADD SWAP1 PUSH2 0xB3 SWAP2 SWAP1 PUSH2 0x624 JUMP JUMPDEST PUSH2 0x191 JUMP JUMPDEST STOP JUMPDEST PUSH2 0xD4 PUSH1 0x4 DUP1 CALLDATASIZE SUB DUP2 ADD SWAP1 PUSH2 0xCF SWAP2 SWAP1 PUSH2 0x6C5 JUMP JUMPDEST PUSH2 0x1F6 JUMP JUMPDEST PUSH1 0x40 MLOAD PUSH2 0xE1 SWAP2 SWAP1 PUSH2 0x750 JUMP JUMPDEST PUSH1 0x40 MLOAD DUP1 SWAP2 SUB SWAP1 RETURN JUMPDEST PUSH2 0xF2 PUSH2 0x2C3 JUMP JUMPDEST PUSH1 0x40 MLOAD PUSH2 0xFF SWAP2 SWAP1 PUSH2 0x750 JUMP JUMPDEST PUSH1 0x40 MLOAD DUP1 SWAP2 SUB SWAP1 RETURN JUMPDEST PUSH2 0x110 PUSH2 0x352 JUMP JUMPDEST PUSH1 0x40 MLOAD PUSH2 0x11D SWAP2 SWAP1 PUSH2 0x750 JUMP JUMPDEST PUSH1 0x40 MLOAD DUP1 SWAP2 SUB SWAP1 RETURN JUMPDEST PUSH0 PUSH1 0x1 SLOAD SWAP1 POP SWAP1 JUMP JUMPDEST DUP1 PUSH0 SWAP1 DUP2 PUSH2 0x13D SWAP2 SWAP1 PUSH2 0x96D JUMP JUMPDEST POP PUSH1 0x1 PUSH0 DUP2 SLOAD DUP1 SWAP3 SWAP2 SWAP1 PUSH2 0x150 SWAP1 PUSH2 0xA69 JUMP JUMPDEST SWAP2 SWAP1 POP SSTORE POP PUSH32 0xD44EA1CBDDAE5CCFE1E125C815193649E5834FA36C7257630C005D519F4BD3E4 DUP2 CALLER PUSH1 0x40 MLOAD PUSH2 0x186 SWAP3 SWAP2 SWAP1 PUSH2 0xABF JUMP JUMPDEST PUSH1 0x40 MLOAD DUP1 SWAP2 SUB SWAP1 LOG1 POP JUMP JUMPDEST DUP1 PUSH1 0x2 PUSH0 CALLER PUSH20 0xFFFFFFFFFFFFFFFFFFFFFFFFFFFFFFFFFFFFFFFF AND PUSH20 0xFFFFFFFFFFFFFFFFFFFFFFFFFFFFFFFFFFFFFFFF AND DUP2 MSTORE PUSH1 0x20 ADD SWAP1 DUP2 MSTORE PUSH1 0x20 ADD PUSH0 KECCAK256 SWAP1 DUP2 PUSH2 0x1DB SWAP2 SWAP1 PUSH2 0x96D JUMP JUMPDEST POP PUSH1 0x1 PUSH0 DUP2 SLOAD DUP1 SWAP3 SWAP2 SWAP1 PUSH2 0x1EE SWAP1 PUSH2 0xA69 JUMP JUMPDEST SWAP2 SWAP1 POP SSTORE POP POP JUMP JUMPDEST PUSH1 0x60 PUSH1 0x2 PUSH0 DUP4 PUSH20 0xFFFFFFFFFFFFFFFFFFFFFFFFFFFFFFFFFFFFFFFF AND PUSH20 0xFFFFFFFFFFFFFFFFFFFFFFFFFFFFFFFFFFFFFFFF AND DUP2 MSTORE PUSH1 0x20 ADD SWAP1 DUP2 MSTORE PUSH1 0x20 ADD PUSH0 KECCAK256 DUP1 SLOAD PUSH2 0x240 SWAP1 PUSH2 0x79D JUMP JUMPDEST DUP1 PUSH1 0x1F ADD PUSH1 0x20 DUP1 SWAP2 DIV MUL PUSH1 0x20 ADD PUSH1 0x40 MLOAD SWAP1 DUP2 ADD PUSH1 0x40 MSTORE DUP1 SWAP3 SWAP2 SWAP1 DUP2 DUP2 MSTORE PUSH1 0x20 ADD DUP3 DUP1 SLOAD PUSH2 0x26C SWAP1 PUSH2 0x79D JUMP JUMPDEST DUP1 ISZERO PUSH2 0x2B7 JUMPI DUP1 PUSH1 0x1F LT PUSH2 0x28E JUMPI PUSH2 0x100 DUP1 DUP4 SLOAD DIV MUL DUP4 MSTORE SWAP2 PUSH1 0x20 ADD SWAP2 PUSH2 0x2B7 JUMP JUMPDEST DUP3 ADD SWAP2 SWAP1 PUSH0 MSTORE PUSH1 0x20 PUSH0 KECCAK256 SWAP1 JUMPDEST DUP2 SLOAD DUP2 MSTORE SWAP1 PUSH1 0x1 ADD SWAP1 PUSH1 0x20 ADD DUP1 DUP4 GT PUSH2 0x29A JUMPI DUP3 SWAP1 SUB PUSH1 0x1F AND DUP3 ADD SWAP2 JUMPDEST POP POP POP POP POP SWAP1 POP SWAP2 SWAP1 POP JUMP JUMPDEST PUSH1 0x60 PUSH0 DUP1 SLOAD PUSH2 0x2D1 SWAP1 PUSH2 0x79D JUMP JUMPDEST DUP1 PUSH1 0x1F ADD PUSH1 0x20 DUP1 SWAP2 DIV MUL PUSH1 0x20 ADD PUSH1 0x40 MLOAD SWAP1 DUP2 ADD PUSH1 0x40 MSTORE DUP1 SWAP3 SWAP2 SWAP1 DUP2 DUP2 MSTORE PUSH1 0x20 ADD DUP3 DUP1 SLOAD PUSH2 0x2FD SWAP1 PUSH2 0x79D JUMP JUMPDEST DUP1 ISZERO PUSH2 0x348 JUMPI DUP1 PUSH1 0x1F LT PUSH2 0x31F JUMPI PUSH2 0x100 DUP1 DUP4 SLOAD DIV MUL DUP4 MSTORE SWAP2 PUSH1 0x20 ADD SWAP2 PUSH2 0x348 JUMP JUMPDEST DUP3 ADD SWAP2 SWAP1 PUSH0 MSTORE PUSH1 0x20 PUSH0 KECCAK256 SWAP1 JUMPDEST DUP2 SLOAD DUP2 MSTORE SWAP1 PUSH1 0x1 ADD SWAP1 PUSH1 0x20 ADD DUP1 DUP4 GT PUSH2 0x32B JUMPI DUP3 SWAP1 SUB PUSH1 0x1F AND DUP3 ADD SWAP2 JUMPDEST POP POP POP POP POP SWAP1 POP SWAP1 JUMP JUMPDEST PUSH1 0x60 PUSH0 PUSH1 0x2 PUSH0 CALLER PUSH20 0xFFFFFFFFFFFFFFFFFFFFFFFFFFFFFFFFFFFFFFFF AND PUSH20 0xFFFFFFFFFFFFFFFFFFFFFFFFFFFFFFFFFFFFFFFF AND DUP2 MSTORE PUSH1 0x20 ADD SWAP1 DUP2 MSTORE PUSH1 0x20 ADD PUSH0 KECCAK256 DUP1 SLOAD PUSH2 0x39D SWAP1 PUSH2 0x79D JUMP JUMPDEST SWAP1 POP GT PUSH2 0x3DF JUMPI PUSH1 0x40 MLOAD PUSH32 0x8C379A000000000000000000000000000000000000000000000000000000000 DUP2 MSTORE PUSH1 0x4 ADD PUSH2 0x3D6 SWAP1 PUSH2 0xB37 JUMP JUMPDEST PUSH1 0x40 MLOAD DUP1 SWAP2 SUB SWAP1 REVERT JUMPDEST PUSH0 PUSH0 PUSH1 0x2 PUSH0 CALLER PUSH20 0xFFFFFFFFFFFFFFFFFFFFFFFFFFFFFFFFFFFFFFFF AND PUSH20 0xFFFFFFFFFFFFFFFFFFFFFFFFFFFFFFFFFFFFFFFF AND DUP2 MSTORE PUSH1 0x20 ADD SWAP1 DUP2 MSTORE PUSH1 0x20 ADD PUSH0 KECCAK256 PUSH1 0x40 MLOAD PUSH1 0x20 ADD PUSH2 0x42F SWAP3 SWAP2 SWAP1 PUSH2 0xC29 JUMP JUMPDEST PUSH1 0x40 MLOAD PUSH1 0x20 DUP2 DUP4 SUB SUB DUP2 MSTORE SWAP1 PUSH1 0x40 MSTORE SWAP1 POP DUP1 PUSH0 SWAP1 DUP2 PUSH2 0x44E SWAP2 SWAP1 PUSH2 0x96D JUMP JUMPDEST POP PUSH1 0x1 PUSH0 DUP2 SLOAD DUP1 SWAP3 SWAP2 SWAP1 PUSH2 0x461 SWAP1 PUSH2 0xA69 JUMP JUMPDEST SWAP2 SWAP1 POP SSTORE POP PUSH32 0xD44EA1CBDDAE5CCFE1E125C815193649E5834FA36C7257630C005D519F4BD3E4 DUP2 CALLER PUSH1 0x40 MLOAD PUSH2 0x497 SWAP3 SWAP2 SWAP1 PUSH2 0xABF JUMP JUMPDEST PUSH1 0x40 MLOAD DUP1 SWAP2 SUB SWAP1 LOG1 DUP1 SWAP2 POP POP SWAP1 JUMP JUMPDEST PUSH0 DUP2 SWAP1 POP SWAP2 SWAP1 POP JUMP JUMPDEST PUSH2 0x4B8 DUP2 PUSH2 0x4A6 JUMP JUMPDEST DUP3 MSTORE POP POP JUMP JUMPDEST PUSH0 PUSH1 0x20 DUP3 ADD SWAP1 POP PUSH2 0x4D1 PUSH0 DUP4 ADD DUP5 PUSH2 0x4AF JUMP JUMPDEST SWAP3 SWAP2 POP POP JUMP JUMPDEST PUSH0 PUSH1 0x40 MLOAD SWAP1 POP SWAP1 JUMP JUMPDEST PUSH0 PUSH0 REVERT JUMPDEST PUSH0 PUSH0 REVERT JUMPDEST PUSH0 PUSH0 REVERT JUMPDEST PUSH0 PUSH0 REVERT JUMPDEST PUSH0 PUSH1 0x1F NOT PUSH1 0x1F DUP4 ADD AND SWAP1 POP SWAP2 SWAP1 POP JUMP JUMPDEST PUSH32 0x4E487B7100000000000000000000000000000000000000000000000000000000 PUSH0 MSTORE PUSH1 0x41 PUSH1 0x4 MSTORE PUSH1 0x24 PUSH0 REVERT JUMPDEST PUSH2 0x536 DUP3 PUSH2 0x4F0 JUMP JUMPDEST DUP2 ADD DUP2 DUP2 LT PUSH8 0xFFFFFFFFFFFFFFFF DUP3 GT OR ISZERO PUSH2 0x555 JUMPI PUSH2 0x554 PUSH2 0x500 JUMP JUMPDEST JUMPDEST DUP1 PUSH1 0x40 MSTORE POP POP POP JUMP JUMPDEST PUSH0 PUSH2 0x567 PUSH2 0x4D7 JUMP JUMPDEST SWAP1 POP PUSH2 0x573 DUP3 DUP3 PUSH2 0x52D JUMP JUMPDEST SWAP2 SWAP1 POP JUMP JUMPDEST PUSH0 PUSH8 0xFFFFFFFFFFFFFFFF DUP3 GT ISZERO PUSH2 0x592 JUMPI PUSH2 0x591 PUSH2 0x500 JUMP JUMPDEST JUMPDEST PUSH2 0x59B DUP3 PUSH2 0x4F0 JUMP JUMPDEST SWAP1 POP PUSH1 0x20 DUP2 ADD SWAP1 POP SWAP2 SWAP1 POP JUMP JUMPDEST DUP3 DUP2 DUP4 CALLDATACOPY PUSH0 DUP4 DUP4 ADD MSTORE POP POP POP JUMP JUMPDEST PUSH0 PUSH2 0x5C8 PUSH2 0x5C3 DUP5 PUSH2 0x578 JUMP JUMPDEST PUSH2 0x55E JUMP JUMPDEST SWAP1 POP DUP3 DUP2 MSTORE PUSH1 0x20 DUP2 ADD DUP5 DUP5 DUP5 ADD GT ISZERO PUSH2 0x5E4 JUMPI PUSH2 0x5E3 PUSH2 0x4EC JUMP JUMPDEST JUMPDEST PUSH2 0x5EF DUP5 DUP3 DUP6 PUSH2 0x5A8 JUMP JUMPDEST POP SWAP4 SWAP3 POP POP POP JUMP JUMPDEST PUSH0 DUP3 PUSH1 0x1F DUP4 ADD SLT PUSH2 0x60B JUMPI PUSH2 0x60A PUSH2 0x4E8 JUMP JUMPDEST JUMPDEST DUP2 CALLDATALOAD PUSH2 0x61B DUP5 DUP3 PUSH1 0x20 DUP7 ADD PUSH2 0x5B6 JUMP JUMPDEST SWAP2 POP POP SWAP3 SWAP2 POP POP JUMP JUMPDEST PUSH0 PUSH1 0x20 DUP3 DUP5 SUB SLT ISZERO PUSH2 0x639 JUMPI PUSH2 0x638 PUSH2 0x4E0 JUMP JUMPDEST JUMPDEST PUSH0 DUP3 ADD CALLDATALOAD PUSH8 0xFFFFFFFFFFFFFFFF DUP2 GT ISZERO PUSH2 0x656 JUMPI PUSH2 0x655 PUSH2 0x4E4 JUMP JUMPDEST JUMPDEST PUSH2 0x662 DUP5 DUP3 DUP6 ADD PUSH2 0x5F7 JUMP JUMPDEST SWAP2 POP POP SWAP3 SWAP2 POP POP JUMP JUMPDEST PUSH0 PUSH20 0xFFFFFFFFFFFFFFFFFFFFFFFFFFFFFFFFFFFFFFFF DUP3 AND SWAP1 POP SWAP2 SWAP1 POP JUMP JUMPDEST PUSH0 PUSH2 0x694 DUP3 PUSH2 0x66B JUMP JUMPDEST SWAP1 POP SWAP2 SWAP1 POP JUMP JUMPDEST PUSH2 0x6A4 DUP2 PUSH2 0x68A JUMP JUMPDEST DUP2 EQ PUSH2 0x6AE JUMPI PUSH0 PUSH0 REVERT JUMPDEST POP JUMP JUMPDEST PUSH0 DUP2 CALLDATALOAD SWAP1 POP PUSH2 0x6BF DUP2 PUSH2 0x69B JUMP JUMPDEST SWAP3 SWAP2 POP POP JUMP JUMPDEST PUSH0 PUSH1 0x20 DUP3 DUP5 SUB SLT ISZERO PUSH2 0x6DA JUMPI PUSH2 0x6D9 PUSH2 0x4E0 JUMP JUMPDEST JUMPDEST PUSH0 PUSH2 0x6E7 DUP5 DUP3 DUP6 ADD PUSH2 0x6B1 JUMP JUMPDEST SWAP2 POP POP SWAP3 SWAP2 POP POP JUMP JUMPDEST PUSH0 DUP2 MLOAD SWAP1 POP SWAP2 SWAP1 POP JUMP JUMPDEST PUSH0 DUP3 DUP3 MSTORE PUSH1 0x20 DUP3 ADD SWAP1 POP SWAP3 SWAP2 POP POP JUMP JUMPDEST DUP3 DUP2 DUP4 MCOPY PUSH0 DUP4 DUP4 ADD MSTORE POP POP POP JUMP JUMPDEST PUSH0 PUSH2 0x722 DUP3 PUSH2 0x6F0 JUMP JUMPDEST PUSH2 0x72C DUP2 DUP6 PUSH2 0x6FA JUMP JUMPDEST SWAP4 POP PUSH2 0x73C DUP2 DUP6 PUSH1 0x20 DUP7 ADD PUSH2 0x70A JUMP JUMPDEST PUSH2 0x745 DUP2 PUSH2 0x4F0 JUMP JUMPDEST DUP5 ADD SWAP2 POP POP SWAP3 SWAP2 POP POP JUMP JUMPDEST PUSH0 PUSH1 0x20 DUP3 ADD SWAP1 POP DUP2 DUP2 SUB PUSH0 DUP4 ADD MSTORE PUSH2 0x768 DUP2 DUP5 PUSH2 0x718 JUMP JUMPDEST SWAP1 POP SWAP3 SWAP2 POP POP JUMP JUMPDEST PUSH32 0x4E487B7100000000000000000000000000000000000000000000000000000000 PUSH0 MSTORE PUSH1 0x22 PUSH1 0x4 MSTORE PUSH1 0x24 PUSH0 REVERT JUMPDEST PUSH0 PUSH1 0x2 DUP3 DIV SWAP1 POP PUSH1 0x1 DUP3 AND DUP1 PUSH2 0x7B4 JUMPI PUSH1 0x7F DUP3 AND SWAP2 POP JUMPDEST PUSH1 0x20 DUP3 LT DUP2 SUB PUSH2 0x7C7 JUMPI PUSH2 0x7C6 PUSH2 0x770 JUMP JUMPDEST JUMPDEST POP SWAP2 SWAP1 POP JUMP JUMPDEST PUSH0 DUP2 SWAP1 POP DUP2 PUSH0 MSTORE PUSH1 0x20 PUSH0 KECCAK256 SWAP1 POP SWAP2 SWAP1 POP JUMP JUMPDEST PUSH0 PUSH1 0x20 PUSH1 0x1F DUP4 ADD DIV SWAP1 POP SWAP2 SWAP1 POP JUMP JUMPDEST PUSH0 DUP3 DUP3 SHL SWAP1 POP SWAP3 SWAP2 POP POP JUMP JUMPDEST PUSH0 PUSH1 0x8 DUP4 MUL PUSH2 0x829 PUSH32 0xFFFFFFFFFFFFFFFFFFFFFFFFFFFFFFFFFFFFFFFFFFFFFFFFFFFFFFFFFFFFFFFF DUP3 PUSH2 0x7EE JUMP JUMPDEST PUSH2 0x833 DUP7 DUP4 PUSH2 0x7EE JUMP JUMPDEST SWAP6 POP DUP1 NOT DUP5 AND SWAP4 POP DUP1 DUP7 AND DUP5 OR SWAP3 POP POP POP SWAP4 SWAP3 POP POP POP JUMP JUMPDEST PUSH0 DUP2 SWAP1 POP SWAP2 SWAP1 POP JUMP JUMPDEST PUSH0 PUSH2 0x86E PUSH2 0x869 PUSH2 0x864 DUP5 PUSH2 0x4A6 JUMP JUMPDEST PUSH2 0x84B JUMP JUMPDEST PUSH2 0x4A6 JUMP JUMPDEST SWAP1 POP SWAP2 SWAP1 POP JUMP JUMPDEST PUSH0 DUP2 SWAP1 POP SWAP2 SWAP1 POP JUMP JUMPDEST PUSH2 0x887 DUP4 PUSH2 0x854 JUMP JUMPDEST PUSH2 0x89B PUSH2 0x893 DUP3 PUSH2 0x875 JUMP JUMPDEST DUP5 DUP5 SLOAD PUSH2 0x7FA JUMP JUMPDEST DUP3 SSTORE POP POP POP POP JUMP JUMPDEST PUSH0 PUSH0 SWAP1 POP SWAP1 JUMP JUMPDEST PUSH2 0x8B2 PUSH2 0x8A3 JUMP JUMPDEST PUSH2 0x8BD DUP2 DUP5 DUP5 PUSH2 0x87E JUMP JUMPDEST POP POP POP JUMP JUMPDEST JUMPDEST DUP2 DUP2 LT ISZERO PUSH2 0x8E0 JUMPI PUSH2 0x8D5 PUSH0 DUP3 PUSH2 0x8AA JUMP JUMPDEST PUSH1 0x1 DUP2 ADD SWAP1 POP PUSH2 0x8C3 JUMP JUMPDEST POP POP JUMP JUMPDEST PUSH1 0x1F DUP3 GT ISZERO PUSH2 0x925 JUMPI PUSH2 0x8F6 DUP2 PUSH2 0x7CD JUMP JUMPDEST PUSH2 0x8FF DUP5 PUSH2 0x7DF JUMP JUMPDEST DUP2 ADD PUSH1 0x20 DUP6 LT ISZERO PUSH2 0x90E JUMPI DUP2 SWAP1 POP JUMPDEST PUSH2 0x922 PUSH2 0x91A DUP6 PUSH2 0x7DF JUMP JUMPDEST DUP4 ADD DUP3 PUSH2 0x8C2 JUMP JUMPDEST POP POP JUMPDEST POP POP POP JUMP JUMPDEST PUSH0 DUP3 DUP3 SHR SWAP1 POP SWAP3 SWAP2 POP POP JUMP JUMPDEST PUSH0 PUSH2 0x945 PUSH0 NOT DUP5 PUSH1 0x8 MUL PUSH2 0x92A JUMP JUMPDEST NOT DUP1 DUP4 AND SWAP2 POP POP SWAP3 SWAP2 POP POP JUMP JUMPDEST PUSH0 PUSH2 0x95D DUP4 DUP4 PUSH2 0x936 JUMP JUMPDEST SWAP2 POP DUP3 PUSH1 0x2 MUL DUP3 OR SWAP1 POP SWAP3 SWAP2 POP POP JUMP JUMPDEST PUSH2 0x976 DUP3 PUSH2 0x6F0 JUMP JUMPDEST PUSH8 0xFFFFFFFFFFFFFFFF DUP2 GT ISZERO PUSH2 0x98F JUMPI PUSH2 0x98E PUSH2 0x500 JUMP JUMPDEST JUMPDEST PUSH2 0x999 DUP3 SLOAD PUSH2 0x79D JUMP JUMPDEST PUSH2 0x9A4 DUP3 DUP3 DUP6 PUSH2 0x8E4 JUMP JUMPDEST PUSH0 PUSH1 0x20 SWAP1 POP PUSH1 0x1F DUP4 GT PUSH1 0x1 DUP2 EQ PUSH2 0x9D5 JUMPI PUSH0 DUP5 ISZERO PUSH2 0x9C3 JUMPI DUP3 DUP8 ADD MLOAD SWAP1 POP JUMPDEST PUSH2 0x9CD DUP6 DUP3 PUSH2 0x952 JUMP JUMPDEST DUP7 SSTORE POP PUSH2 0xA34 JUMP JUMPDEST PUSH1 0x1F NOT DUP5 AND PUSH2 0x9E3 DUP7 PUSH2 0x7CD JUMP JUMPDEST PUSH0 JUMPDEST DUP3 DUP2 LT ISZERO PUSH2 0xA0A JUMPI DUP5 DUP10 ADD MLOAD DUP3 SSTORE PUSH1 0x1 DUP3 ADD SWAP2 POP PUSH1 0x20 DUP6 ADD SWAP5 POP PUSH1 0x20 DUP2 ADD SWAP1 POP PUSH2 0x9E5 JUMP JUMPDEST DUP7 DUP4 LT ISZERO PUSH2 0xA27 JUMPI DUP5 DUP10 ADD MLOAD PUSH2 0xA23 PUSH1 0x1F DUP10 AND DUP3 PUSH2 0x936 JUMP JUMPDEST DUP4 SSTORE POP JUMPDEST PUSH1 0x1 PUSH1 0x2 DUP9 MUL ADD DUP9 SSTORE POP POP POP JUMPDEST POP POP POP POP POP POP JUMP JUMPDEST PUSH32 0x4E487B7100000000000000000000000000000000000000000000000000000000 PUSH0 MSTORE PUSH1 0x11 PUSH1 0x4 MSTORE PUSH1 0x24 PUSH0 REVERT JUMPDEST PUSH0 PUSH2 0xA73 DUP3 PUSH2 0x4A6 JUMP JUMPDEST SWAP2 POP PUSH32 0xFFFFFFFFFFFFFFFFFFFFFFFFFFFFFFFFFFFFFFFFFFFFFFFFFFFFFFFFFFFFFFFF DUP3 SUB PUSH2 0xAA5 JUMPI PUSH2 0xAA4 PUSH2 0xA3C JUMP JUMPDEST JUMPDEST PUSH1 0x1 DUP3 ADD SWAP1 POP SWAP2 SWAP1 POP JUMP JUMPDEST PUSH2 0xAB9 DUP2 PUSH2 0x68A JUMP JUMPDEST DUP3 MSTORE POP POP JUMP JUMPDEST PUSH0 PUSH1 0x40 DUP3 ADD SWAP1 POP DUP2 DUP2 SUB PUSH0 DUP4 ADD MSTORE PUSH2 0xAD7 DUP2 DUP6 PUSH2 0x718 JUMP JUMPDEST SWAP1 POP PUSH2 0xAE6 PUSH1 0x20 DUP4 ADD DUP5 PUSH2 0xAB0 JUMP JUMPDEST SWAP4 SWAP3 POP POP POP JUMP JUMPDEST PUSH32 0x4E6F2075736572204D6573736167650000000000000000000000000000000000 PUSH0 DUP3 ADD MSTORE POP JUMP JUMPDEST PUSH0 PUSH2 0xB21 PUSH1 0xF DUP4 PUSH2 0x6FA JUMP JUMPDEST SWAP2 POP PUSH2 0xB2C DUP3 PUSH2 0xAED JUMP JUMPDEST PUSH1 0x20 DUP3 ADD SWAP1 POP SWAP2 SWAP1 POP JUMP JUMPDEST PUSH0 PUSH1 0x20 DUP3 ADD SWAP1 POP DUP2 DUP2 SUB PUSH0 DUP4 ADD MSTORE PUSH2 0xB4E DUP2 PUSH2 0xB15 JUMP JUMPDEST SWAP1 POP SWAP2 SWAP1 POP JUMP JUMPDEST PUSH0 DUP2 SWAP1 POP SWAP3 SWAP2 POP POP JUMP JUMPDEST PUSH0 DUP2 SLOAD PUSH2 0xB6B DUP2 PUSH2 0x79D JUMP JUMPDEST PUSH2 0xB75 DUP2 DUP7 PUSH2 0xB55 JUMP JUMPDEST SWAP5 POP PUSH1 0x1 DUP3 AND PUSH0 DUP2 EQ PUSH2 0xB8F JUMPI PUSH1 0x1 DUP2 EQ PUSH2 0xBA4 JUMPI PUSH2 0xBD6 JUMP JUMPDEST PUSH1 0xFF NOT DUP4 AND DUP7 MSTORE DUP2 ISZERO ISZERO DUP3 MUL DUP7 ADD SWAP4 POP PUSH2 0xBD6 JUMP JUMPDEST PUSH2 0xBAD DUP6 PUSH2 0x7CD JUMP JUMPDEST PUSH0 JUMPDEST DUP4 DUP2 LT ISZERO PUSH2 0xBCE JUMPI DUP2 SLOAD DUP2 DUP10 ADD MSTORE PUSH1 0x1 DUP3 ADD SWAP2 POP PUSH1 0x20 DUP2 ADD SWAP1 POP PUSH2 0xBAF JUMP JUMPDEST DUP4 DUP9 ADD SWAP6 POP POP POP JUMPDEST POP POP POP SWAP3 SWAP2 POP POP JUMP JUMPDEST PUSH32 0x2026200000000000000000000000000000000000000000000000000000000000 PUSH0 DUP3 ADD MSTORE POP JUMP JUMPDEST PUSH0 PUSH2 0xC13 PUSH1 0x3 DUP4 PUSH2 0xB55 JUMP JUMPDEST SWAP2 POP PUSH2 0xC1E DUP3 PUSH2 0xBDF JUMP JUMPDEST PUSH1 0x3 DUP3 ADD SWAP1 POP SWAP2 SWAP1 POP JUMP JUMPDEST PUSH0 PUSH2 0xC34 DUP3 DUP6 PUSH2 0xB5F JUMP JUMPDEST SWAP2 POP PUSH2 0xC3F DUP3 PUSH2 0xC07 JUMP JUMPDEST SWAP2 POP PUSH2 0xC4B DUP3 DUP5 PUSH2 0xB5F JUMP JUMPDEST SWAP2 POP DUP2 SWAP1 POP SWAP4 SWAP3 POP POP POP JUMP INVALID LOG2 PUSH5 0x6970667358 0x22 SLT KECCAK256 SWAP9 0xC8 PUSH16 0x4BE4C37B4550A37BBDE7C46B81638D1C CALLER PUSH27 0x51815E19ED1877CA6BE15964736F6C634300081E00330000000000 "
				},
				"gasEstimates": {
					"creation": {
						"codeDepositCost": "642600",
						"executionCost": "infinite",
						"totalCost": "infinite"
					},
					"external": {
						"combineMessages()": "infinite",
						"getMessage()": "infinite",
						"getMessageCounter()": "2410",
						"getUserMessages(address)": "infinite",
						"setMessage(string)": "infinite",
						"storeUserMessage(string)": "infinite"
					}
				},
				"methodIdentifiers": {
					"combineMessages()": "faa7d6c7",
					"getMessage()": "ce6d41de",
					"getMessageCounter()": "0fb56b8b",
					"getUserMessages(address)": "98d63d3d",
					"setMessage(string)": "368b8772",
					"storeUserMessage(string)": "51647b89"
				}
			},
			"storageLayout": {
				"storage": [
					{
						"astId": 3,
						"contract": "contracts/HelloWorld.sol:HelloWorld",
						"label": "message",
						"offset": 0,
						"slot": "0",
						"type": "t_string_storage"
					},
					{
						"astId": 5,
						"contract": "contracts/HelloWorld.sol:HelloWorld",
						"label": "messageCounter",
						"offset": 0,
						"slot": "1",
						"type": "t_uint256"
					},
					{
						"astId": 9,
						"contract": "contracts/HelloWorld.sol:HelloWorld",
						"label": "userMessages",
						"offset": 0,
						"slot": "2",
						"type": "t_mapping(t_address,t_string_storage)"
					}
				],
				"types": {
					"t_address": {
						"encoding": "inplace",
						"label": "address",
						"numberOfBytes": "20"
					},
					"t_mapping(t_address,t_string_storage)": {
						"encoding": "mapping",
						"key": "t_address",
						"label": "mapping(address => string)",
						"numberOfBytes": "32",
						"value": "t_string_storage"
					},
					"t_string_storage": {
						"encoding": "bytes",
						"label": "string",
						"numberOfBytes": "32"
					},
					"t_uint256": {
						"encoding": "inplace",
						"label": "uint256",
						"numberOfBytes": "32"
					}
				}
			},
			"userdoc": {
				"kind": "user",
				"methods": {},
				"version": 1
			}
		}
	}
}